:400000000080002011000000391100003911000008B5044B1A6803F53F5302331A6001F0ABF800BFFA46004010B5054C237833B9044B13B10448AFF300800123237010BD3F
:40004000A086FF1F00000000B43D0000084B10B51BB108490848AFF300800848036803B910BD074B002BFBD0BDE81040184700BF00000000A486FF1FB43D0000C880FF1F66
:400080000000000008B5322001F02AFE074B1B78672B05D17022054B1A700122044B1A6002F0A2FE02F0DCFE08BD00BFCC80FF1FBC86FF1F08B5064B1B68012B02D1002215
:4000C000034B1A6002F098FE02F0FAFE08BD00BFBC86FF1F08B5064B5B680E2B02DC0133034A536002F046FD02F00EFD08BD00BFBC86FF1F38B505460C4603F0F5F9641BC6
:40010000631C90FBF3F203FB1200284438BD00BFF8B50446214801F023FAE4B22146002001F0B8F9002001F049F9671CFFB23946002001F0AFF9012001F040F9A61CF6B2FF
:400140003146002001F0A6F9022001F037F9E51CEDB22946002001F09DF9032001F02EF92146012001F096F9042001F027F93946012001F08FF9052001F020F93146012007
:4001800001F088F9062001F019F92946012001F081F9072001F012F9F8BD00BFA896FF1F034608B1002000E01020012B00D10820022B00D10420032B00D10220042B00D11C
:4001C000012070472DE9F84F80464FF00009CB46CA464E464F4630E006EB8602130143443A1953F82230002B04DD2046FFF7D8FF2844C5B2013401E000242546042CEBDD9F
:40020000124B03F80950BAF1060F03DC0AF1010A013610E00BF1010B0537BBF1040F00D10027BBF1030F03DD4FF0000A082602E04FF0000A564609F10109B9F13F0FDBDDB6
:400240000020FFF765FFBDE8F88F00BFA896FF1F002308E0054A4FF0FF3142F8331002EBC30251600133042BF4DD7047E896FF1F38B50446184B00259D60DD601D61FFF720
:40028000E7FF284611E083001D182901214451F82250034499001144104B43F82150013200E00022132AEEDD01300F28F9DD0C4B0A221A60072159609A600621D9601A618D
:4002C00005225A61044B00225A6102229A614422044B5A7038BD00BFBC86FF1FA491FF1F7487FF1FCC80FF1F70B500253CE0204B53F83530B3F1FF3F35D113210120FFF7B4
:40030000F9FE1B4C44F835000F210120FFF7F2FE04EBC5046060002420E0164B53F83420134B53F835309A4217D1124B03EBC4035A680F4B03EBC5035B689A420DD11321B4
:400340000120FFF7D7FE0A4E46F835000F210120FFF7D0FE06EBC50670600134064B9B699C42DADB70BD0135042DC0DD70BD00BFE896FF1F7487FF1FBC86FF1F10B40021F1
:4003800016E001EB8100830013440B4850F82330032B07D001EB8100830013440024064840F82340013200E00022132AE9DD01310F29F9DD10BC7047A491FF1F08B5052188
:4003C000002001F067F8064800F0EAFF0521012001F060F8034B188901F07AF808BD00BFB83D0000BC86FF1F08B5FFF7C7FF0022184B53F8321003EBC2035B6803EB830336
:40040000980043180120144941F82300134B9B699A4213D00244EBE7114A52F8331000290ADB02EBC302526802EB8202900001440120094A42F82100013300E00023042BD9
:40044000EADD012000F0BEFFFFF7B8FF0248FFF7B9FE08BD7487FF1FA491FF1FBC86FF1FE896FF1F552805D1104B9B78442B01D00E4B5870442805D10C4B9B78552B01D0F7
:400480000A4B58704C2805D1084B9B78522B01D0064B5870522805D1044B9B784C2B01D0024B5870014B9870704700BFCC80FF1FF0B585B000AF714C616907F10803704AF8
:4004C00002EBC10292E8030083E8030087E80300A1694B1CDB000833ADEB030D6846694B5B78443B112B19D8DFE803F00D18181818181818111818181818151818097B68B6
:40050000013B7B600AE07B6801337B6006E03B68013B3B6002E03B6801333B603D68122D00F39F80002D40F39E807E680E2E00F39C80002E40F39B8001230CE0504A52F8FF
:400540003320954206D14E4A02EBC3025268964200F08F8001338B42F0DB002352E04A4A52F8332095424CD1474A02EBC3025268964246D141498A6801328A60CA6801326F
:40058000CA60052A05D10A460021D1601169013111613D4A4FF0FF3142F8331002EBC303596000230AE0364951F8332040F83320DA00114449680244516001332F4A946939
:4005C00004F1010E7345EEDB52692D4B43F8325003EBC2035E6000230CE0591C50F83350274A42F8315000EBC3035B6802EBC10253600B46A342F0DD204BC3F818E0002082
:4006000038E00133042BAADD00230AE01C4951F8332040F83320DA0011444968024451600133164A9469621C9342EFDB134B5A69134B43F8325003EBC2035E6000230CE0DE
:40064000591C50F833500E4A42F8315000EBC3035B6802EBC10253600B46A342F0DB002008E0012006E0012004E0012002E0012000E001201437BD46F0BD00BFBC86FF1FFC
:400680007487FF1FCC80FF1FE896FF1F10B4002114E001EB410293000A4A134400229A60012208E0541E01EB4100830005480344232018550132052AF4DD01310229E8DDF3
:4006C00010BC70477491FF1F70B5FFF7DFFF00251DE005EB450293000E4A134405EB45025600B6B23146187A02F028FC01240BE0601E05EB45029300064A1344311989B228
:40070000185C02F01BFC0134052CF1DD0135022DDFDD70BD7491FF1F70B500251DE005EB450293000E4A134405EB45025600B6B23146187A02F002FC01240BE0601E05EB6B
:4007400045029300064A1344311989B2185C02F0F5FB0134052CF1DD0135022DDFDD70BD7491FF1FF8B500251DE005EB45035F00BFB2384602F04AFC05EB450293000B4ACC
:400780001344986001240BE0661E381980B202F03DFC05EB45029300044A134498550134052CF1DD0135022DDFDDF8BD7491FF1F00230AE003EB43018A002C490A4491689A
:4007C0002B4A9268914204DB0133022BF2DD4FF0FF33B3F1FF3F45D0254B9A68234BDA62002307E0234A1A441179204A1A4482F824100133042BF5DDF0B585B000272DE00C
:400800001A4803EB4302910001448D685C1C04EB44018A0002449268954217DA86465E00F1188A00024401AD07CA85E8070033449E007644620022449300734493E80700C1
:4008400086E8070095E8070083E80700234600E00023C7F103029342D2DB0137022FF7DD012001E00020704705B0F0BD7491FF1FBC86FF1FCC80FF1F70B5002626E0F4B206
:4008800004F10805EDB22946002000F003FE232000F094FDC4F10704E4B22146002000F0F9FD232000F08AFD2946012000F0F2FD232000F083FD2146012000F0EBFD232011
:4008C00000F07CFD642001F00BFA0136072ED6DD012000F077FD00240FE0E5B22946002000F0D8FD252000F069FD2946012000F0D1FD252000F062FD01340F2CEDDD642038
:4009000001F0EEF9012000F05DFD70BD10B40423002105E0C45C064A0A44147101310133082BF7DD0122034BDA6110BC704700BFCC80FF1FBC86FF1F10B500F081FE784BF7
:4009400018704D280CD1774A00241462764B0121D96054621961022191626D221A750DE04A280BD16F4A002414626F4B0121D96054621961032191626E221A756A4B1B7D6C
:400980006D2B02D06E2B64D0C6E02C2803D1654A536A01335362644B1B69012B04D1614B1B6A614A134418765E4B1B6A032B14D15D4A127E4D2A02D000215B4AD1605A4A8C
:4009C000527E562A02D00021574AD160564A927E542A02D00021544AD160062B14D1524A127E4D2A02D000214F4AD1604E4A527E562A02D000214C4AD1604B4A927E542AB7
:400A000002D00021484AD16046281DD1062B1BD1454BDB68012B17D1424B5A6A9B6A9A4212D10022404B1A6105E03F4B1344197E83F838100132062AF7DD3B4C94F83C00BD
:400A4000FFF710FD78232375364A136A0133136262E02C2803D1334A536A01335362324B1B69012B04D12F4B1B6A2F4A134418762C4B1B6A032B14D12B4A127E4A2A02D054
:400A80000021294AD160284A527E4B2A02D00021254AD160244A927E4C2A02D00021224AD160112B14D1204A127E4A2A02D000211D4AD1601C4A527E4B2A02D000211A4A87
:400AC000D160194A927E4C2A02D00021164AD16046281DD1102B1BD1134BDB68012B17D1104B5A6A9B6A9A4212D100220E4B1A6105E00D4B1344197E83F838100132102AEC
:400B0000F7DD094C04F13800FFF700FF78232375044A136A0133136202F000FA10BD00BFA496FF1FBC86FF1FCC80FF1F00B587B0054B1A780549684602F010FD684600F0C2
:400B4000B3FD07B05DF804FBCC80FF1FC03D000038B562B602F0EEF900F084FC01F08EFF00F042FDA74802F0CBF9A74802F06AF9A64802F097F9A64801F0B8FFA54802F08A
:400B80001FF901F089FF02F087FC01F01DFFA24B1B78633B102BFAD801A252F823F000BF750D00008F0B0000010D00008F0B00008F0B0000E50B00008F0B00008F0B0000B6
:400BC0008F0B00008F0B0000510D00008F0B00008F0B0000610C00008F0B00008F0B00000D0C0000FFF7BEFD002303E08B4AD25C22B10133042BF9DD002300E001230BB1CC
:400C0000FFF762FD7322844B1A70C0E7012000F0D9FB8348FFF72CFB0021084600F03AFC804800F0BDFB0021012000F033FC7E4800F0B6FB02E0052001F052F87B4BDB69E4
:400C4000002BF8D0FFF718FE02F050F84FF47A7002F00CF86722704B1A70FFF767FF96E702F072F8FFF708FE01F0CAFF6F4B00225A60DA6234E06D4B5B680F2B20D10421AE
:400C8000002000F007FC6A4800F08AFBFA2001F027F800F04FFC00F02BFD01F089FB01F033FE01F091FC00F037FD00F04FFC00225E4B5A606722584B1A7002F05BF813E096
:400CC0000421002000F0E6FB5A4800F069FB962001F006F8012000F075FB962001F000F8524B1B68012BC6D001F02AFFFFF7C4FD02F040F86722484B1A70FFF717FF46E767
:400D0000FFF7BAFD0321002000F0C4FB4A4800F047FB0021012000F0BDFB3F4C201D00F03FFB0621012000F0B5FB444800F038FB0921012000F0AEFB3C4B188900F0C8FB1D
:400D4000322000F0CDFF63232370FFF7EFFE1EE7FFF792FD0021084600F09CFB384800F01FFB322000F0BCFF63222B4B1A70FFF7DDFE0CE7FFF71CFD18B1FFF7CDFCFFF78C
:400D8000F1FC002433E0012000F01CFB0021084600F080FB14B92B4800F002FB012C02D1294800F0FDFA022C02D1284800F0F8FA0021012000F06EFB630023449D00174BD1
:400DC0001D44284600F0ECFA0621012000F062FB1A4800F0E5FA0921012000F05BFB288900F076FB4FF4FA6000F07AFF0134022CC9DD7322084B1A7000220C4BDA61FFF7BA
:400E000095FEC4E63909000085000000B5000000D5000000510E0000CC80FF1F7491FF1F2481FF1FCC3D0000D83D0000BC86FF1FE83D0000F03D0000F83D0000043E00002E
:400E4000083E00001C3E00002C3E00003C3E000008B51A4B1B78672B1BD164210020FFF749F9092801DCFFF73FFAFFF721FB10B9FFF7BAFA04E06522104B1A70FFF756FE82
:400E80000F4B9B68322B04D16D220C4B1A70FFF74DFE0B4BDA6A1869824207D040004FF47A7393FBF0F080B201F0E0FE044B1A69DA6201F0C9FE01F091FF08BDCC80FF1FE7
:400EC000BC86FF1FFEE700BFF0B40022174611E050F82760F3B226F0FF0608E001EB420511F812406D78A5550132013BDBB2002BF4D10137132FEBD9F0BC7047064B1B7885
:400F0000DBB203F00701054A11701B09013213704422034B1A707047CF0100496E5800407658004008B50A46002102F0ACFA08BD38B54FF49C72274B1A801823264A13705A
:400F400045F6BF5102321180023213700222234B1A7008224FF040231A70032103F5007319701F4B1B78DBB21E490B701E4B1A8041F25122023B1A80002419250CE01B4B80
:400F80001B7803F0010343EA440404F003044FF4F07002F051F8013D0DB1032CEFD115B90320FFF78FFF124B4FF480721A8007221A7000220F490A704820023108701A7089
:400FC0000222033B1A700C4A137843F00303137038BD00BF80400040824000400043004008010049A146004022420040254200400440004006400040A243004008B502F08D
:4010000037FA08BD38B572B6384A137843F00403137000240CE0364D630019194A0011462A44084691882858FFF77CFF0134E4B2082CF0D900240CE02D48A20011194B00E8
:401040000344B3F84020D96B986BFFF7D7FF0134E4B2012CF0D927494FF09040FFF734FF254A137843F0020313701032137843F002031370214C237843F040032370A2F5BD
:401080008632513A137843F0100313700A221C491C48FFF7B3FF08221B491C48FFF7AEFF08221B491B48FFF7A9FF08221A491B48FFF7A4FF08221A491A48FFF79FFF1A4A68
:4010C000137843F008031370184D61232B70FFF72FFF81232B700122154B1A70FFF70EFF0E2221461348FFF789FF38BDE84600404C3E00005000004803500140A043004001
:40110000F8030048C051004004040048F25100400C0400481251004014040048225100401C04004832510040224300400048004004000840B043004008B502F06DF90368E3
:401140000C2B00D1FEE7FEE708B5094B1A681044084BC31A802B02DC054B186005E002F05BF90C2303604FF0FF32104608BD00BF2486FF1F1897FF1F08B5104E104D16E02B
:4011800029686B68AC68002204E051F8040B43F8040B0432A242F8D1E868002203E0002143F8041B04328242F9D11035013E002EE6D102F037F9FFF7CBFCFEE7010000006A
:4011C000403F000008B5104A104B1A60104A136843F40073136000230AE0032B03D80D4A52F8231000E00C490C4A42F8231001332F2BF2D90A4B1A780A4B1A70074A0A4BEB
:401200001A60FFF7FFFE08BD0004FA050CED00E014ED00E000000000391100000080FF1FBC760040C080FF1F08ED00E010B50B4C237803F09F032370237803F0F00323703F
:401240002378184340F010002070012000F05EFD237803F0EF03237010BD00BF2051004038B505460E4C237843F020032370237803F0BF032370002000F048FD237803F010
:40128000F003237023781D4345F010052570012000F03CFD237803F0EF03237038BD00BF2051004070B5354B1A7802F08002D2B21A7033490A7802F0F00242F00F020A70B4
:4012C00001310A7802F0F0020A7001310A7802F0F0020A701A7802F0DF021A701A7842F040021A704FF4CA76002000F00FFD234D2B7843F010032B70012000F007FD214B37
:401300001C78E4B22B7803F0EF032B70002000F0FDFC04F00804E4B22B7843F010032B70012000F0F3FC2B7803F0EF032B7014B90A2000F0EBFC013E0CB1002ED4D10F4A24
:40134000137803F0BF031370137803F08003DBB213700232137803F0F00313700132137803F0F00343F00F0313700132137803F0F00343F00F03137070BD00BF20510040FC
:40138000225100402151004010B50446FFF78AFF2009FFF765FF04F00F00FFF761FF10BD38B505460078012404E0FFF7EDFF285D0134E4B20028F8D138BD00BF08B5FFF74E
:4013C000E3FF08BD10B50446FFF76CFF2009FFF72DFF04F00F00FFF729FF10BD08B5282000F07EFC0320FFF721FF052000F078FC0320FFF71BFF0F2000F072FC0320FFF793
:4014000015FF012000F06CFC0220FFF70FFF052000F066FC0620FFF7D5FF0E20FFF7D2FF2C20FFF7CFFF0820FFF7CCFF0120FFF7C9FF0C20FFF7C6FF0320FFF7C3FF0520DE
:4014400000F04EFC014800F08BF808BD983E000008B50C20FFF7B6FF0122014B1A7008BDEC86FF1F08B5054B5B7823B9FFF7B6FF0122024B5A70FFF7EBFF08BDEC86FF1F23
:4014800008B50820FFF79EFF0022014B1A7008BDEC86FF1F08B5032819D8DFE800F002070D1381F08000FFF78DFF08BDA1F14000C0B2FFF787FF08BDA1F16C00C0B2FFF78B
:4014C00081FF08BDA1F12C00C0B2FFF77BFF08BD10B584B000238DF80E30092211E0144BA3FB0013DB081C4603EB83035900431ADBB2303304A9114401F80C3C2046013AF4
:40150000D2B20928EBD80A4BA3FB0013DB0803EB83035900431ADBB2303304A9114401F80C3C01AB9818FFF73BFF04B010BD00BFCDCCCCCC08B5034B1A78034B1A70FFF785
:401540009FFF08BDEC86FF1FF086FF1F08B5034B1B78012B01D1FFF77BFF08BDF086FF1F38B50546FFF79EFE4020FFF72BFF002404E0285DFFF708FF0134E4B23F2CF8D9A4
:40158000FFF790FE8020FFF71DFF38BD7222074B1A702022FE3B1A700622A0331A70472210331A70002251331A7070478865004010B501F049FD04460A4A137843F0200341
:4015C0001370FE3A137843F01003137002F20112137843F01003137000F0ACF8204601F037FD10BD9865004008B5054B1B7823B9FFF7CCFF0122024B1A70FFF7D9FF08BD8E
:40160000F186FF1F10B501F01FFD04460A4A137803F0DF03137000F09BF8084A137803F0EF03137002F20112137803F0EF031370204601F00DFD10BD986500409A64004057
:40164000084B1B78DBB213F0200F06D0064A1078C0B213F01E0F02D17047002070470020704700BF6A6400404865004008B501F0EBFC064B1A7842F001021A701A7802F0C8
:40168000FE021A7001F0E4FC08BD00BF98650040034B1B7813F0040FFAD1024B187070476B6500404B65004038B5074B1B782BB938BDFFF7EDFF0134A4B201E00546002458
:4016C000285D0028F5D138BDF186FF1F08B501F0BBFC064B1A7842F001021A701A7802F0FE021A7001F0B4FC08BD00BF9B65004008B5074B1B7813F0100F03D00122054B69
:401700001A7002E00022034B1A70FFF77BFF08BD9A640040F486FF1F08B5FFF7A7FFFFF7D5FF034B1B780BB1FFF742FF08BD00BFF486FF1F054A137843F00103137010324F
:40174000137843F001031370704700BFA2430040054A137803F0FE0313701032137803F0FE031370704700BFA24300400E4B1B7813F0070F04D10D4B1B7813F0010F0CD1A4
:40178000094B1B7803F00703012B08D1084B1B7813F0010F05D10020704701207047002070470120704700BF93430040A5430040B54300400C4A137803F0F0031370002272
:4017C0000A4B1A700A4A137843F080031370C2B2084B1A70000A01331870074A137843F001031370704700BF1440004010400040084000400240004001400040024A137849
:4018000003F0FE031370704720420040054A137803F0EF0313701032137803F0EF031370704700BFA0430040024A137843F010031370704700420040024A137803F0EF0333
:401840001370704700420040044A137803F0FC0300F0030018431070704700BF05400040014B1870704700BF0440004070B5054601F0EAFB0646164B1A78013B1B7843EAC9
:40188000022305B1EBB9134B1C78E4B2062C02D80720FFF7E5FF45B90F4A137843F0400313702846FFF786FF07E02846FFF782FF094A137803F0BF0313702046FFF7D0FF43
:4018C00002E02846FFF776FF304601F0C1FB70BD074000400440004008400040024A137843F002031370704700430040024A137843F004031370704700430040024A1378D9
:4019000003F0FB031370704700430040F8B5194A137843F00103137048B3174B1C7804F00404E4B280331F78FFB202331E78F6B2182001F007F809E0104B1B7813F0010FA1
:4019400004D00E4B1B7813F0010F07D1012000F0E1FF10F0010FEFD0102500E000250CB9FFF7CCFF064B1F7002331E7000E000252846F8BD204200400043004025420040A5
:4019800080430040144A137843F0100313701032137843F010031370E0B170B50F4B1C7804F00404E4B280331E78F6B202331D78EDB2002000F0C6FF012000F0ABFF10F0BC
:4019C000010FF9D00CB9FFF799FF054B1E7002331D7070BD704700BFA04300400043004080430040074B1B78DBB220B143F0100204490A7003E003F0EF0202490A70C3F33E
:401A00000010704700430040F0B583B08DF80700254A137843F001031370002840D0234B1E78F6B280331D78EDB202331C78E4B2182000F087FF21E01B4B1B7804238DF8C6
:401A400006300BE0012000F065FF10F0010FF9D09DF80630013BDBB28DF806309DF8063013F0FF0FEED1104B1B7813F0800F0CD09DF80730013BDBB28DF807309DF8073094
:401A800013F0FF0FD8D1102700E0002716F0040F01D1FFF733FF064B1D7002331C7000E00027384603B0F0BD104200400043004080430040024A137803F0FE03137070477A
:401AC0001042004001BE704710B50446FFF74EFE012804D1254A137803F0FD031370082C3FD8DFE804F0050B11171D23293E2F001F4B1B78DBB21F4A137010BD1E4B1B78CC
:401B0000DBB21C4A137010BD1C4B1B78DBB2194A137010BD1A4B1B78DBB2164A137010BD184B1B78DBB2134A137010BD164B1B78DBB2104A137010BD144B1B78DBB20D4AC2
:401B4000137010BD124B1B78DBB20A4A137001280AD102F5CB520832137843F00203137010BD0020FFF7AEFF10BD00BF0960004008010049A1460040090100490A01004944
:401B80000B010049890100490C0100490D0100490F01004970B506463A4B1C7804F00704082801D1032500E00546062C0BD8DFE804F0040D06080D0D0D00022406E00324D0
:401BC00004E0002402E00020FFF77CFFAC4202D83046FFF779FF082E44D8DFE806F0050D151B232B33433B00264A137803F0B80343F00303137038E0224A137803F0B8034C
:401C000043F00103137030E01E4A137803F0B80313702AE01B4A137803F0B80343F00203137022E0174A137803F0B80343F0040313701AE0134A137803F0B80343F005032F
:401C4000137012E00F4A137803F0B80343F0060313700AE00B4A137803F0B80343F04203137002E00020FFF72DFF082E02D1FFF7DBFD01E0FFF7E0FDAC4202D93046FFF747
:401C800023FF70BD0042004008B501280FD0D8B102281FD14FF04022137803F0BF03137002F50072137843F02003137008BD4FF04022137843F04003137002F500721378DC
:401CC00043F02003137008BD044A137803F0DF03137008BD0020FFF7F5FE08BD0042004010B5044605E0084B186801F0A5F9A4F50044B4F5004FF6D8034B586800FB04F00A
:401D000001F09AF910BD00BF2886FF1F08B5034B1B7A00FB03F001F08FF908BD2886FF1F38B5054601F090F9064B1978064A13780B4303F0070423EA0503137001F088F96A
:401D4000204638BDFA460040F886FF1F2DE9F0410746884601F078F906461A4B1C6804F00104012580331D60174A137803F0BF031370033A137808F00F0103F0F00319436E
:401D80001170013213782B4313702846FFF7BEFF2846FFF7C5FF2FB10B4A137843F04003137004E0084A137803F0BF0313700122064B1A60A3F5C0731C60304601F048F91B
:401DC000BDE8F08100E100E0F746004080E200E0F8B507460C4601F037F90646194B1D6805F00105012080331860174A137803F07F0313702101C9B2033A137803F00F0316
:401E0000194311700132137843F002031370FFF77DFF0220FFF784FF2FB10B4A137843F08003137004E0084A137803F07F0313700122064B1A60A3F5C0731D60304601F0F0
:401E400007F9F8BD00E100E0F746004080E200E008B50A4A137803F0FE0313700232137803F0BF0313700120FFF75AFF0120FFF757FF10F0010FF9D108BD00BFF54600406D
:401E800008B5084A137803F0FD0313700232137803F07F0313700220FFF742FF10F0020FF9D108BDF5460040F8B501F0CDF807460E4E346804F0010401250D4B1D600D4AF4
:401EC000137803F07F031370023A137843F0040313702846FFF71AFF0420FFF721FF064B1D603460384601F0B3F8F8BD00E100E080E100E0F746004080E200E008B5064A25
:401F0000137803F0FB0313700420FFF709FF10F0040FF9D108BD00BFF54600402DE9F04FDFF8BCA19AF80020554B9A72DFF8B49199F80020DA72534A12781A73524A1278CA
:401F40005A73524A12789A73514A1278DA73514A12781A74504A12785A74504A12789A744F4A1278DA744F4A12781A754E4A12785A754E4A12789A754D4A1278DA754D4ACC
:401F800012781A764C4A12785A764C4A12789A76DFF854B19BF80020DA76DFF8508198F800201A77DFF848C19CF800205A77DFF844E19EF800209A77414F3A78DA77414ED5
:401FC000327883F82020404D2A7883F821203F4C227883F822203E48027883F823203D490A7883F824203C4A127883F8252000238AF8003089F80030224A1370013213702F
:40200000023213700232137002321370063213700232137001321370013213700232137002321370023213700632137002321370013213708BF8003088F800308CF8003039
:402040008EF800303B7033702B70237003700B7017321370214B1B7813F0080F0AD00122074B83F82F201D4A137803F0F7031370BDE8F08F0022024B83F82F20BDE8F08F5F
:402080001487FF1F035A0040045A0040065A0040085A00400A5A0040105A0040125A0040135A0040145A0040165A0040185A00401A5A0040205A0040225A0040235A00404C
:4020C000305A0040325A0040335A0040345A0040365A0040385A00403A5A004022430040005A0040025A0040245A0040265A0040285A00402A5A0040334B997A334A1170CB
:40210000D97A02321170197B01321170597B01321170997B02321170D97B02321170197C02321170597C06321170997C02321170D97C01321170197D01321170597D0232F6
:402140001170997D02321170D97D02321170197E06321170597E02321170997E01321170D97E01321170197F02321170597F02321170997F02321170D97F0632117093F813
:4021800020100232117093F821100132117093F822100132117093F823100232117093F824100232117093F825100232117093F82F30012B06D1A2F5B852183A137843F05F
:4021C00008031370704700BF1487FF1F005A004008B5234B1B7813F0010F12D0214B012283F82620204A127802F00F0283F827201E4A1278C2F3801283F82B20FFF728FEB1
:4022000003E00022174B83F82620154B1B7813F0020F10D0134B012283F82820124A1278120983F82920114A1278D20983F82C20FFF726FE03E000220A4B83F82820084B75
:402240001B7813F0040F06D00122064B83F82A20FFF754FE08BD0022024B83F82A2008BDF54600401487FF1FF4460040F746004010B51E4B1B7813F0040F04D01B4A1378DA
:4022800003F0FB0313700120FFF7ACFB184B187018490A78C2F340025A700A78C2F380029A70154B1B7813F0100F08D10022104BDA70114A137843F01003137002E0012231
:4022C0000B4BDA70FFF784FFFFF728FE0B480278074BDA710A490A781A720A4A14785C72FF230370B0200870137010BD314300401487FF1F004300408346004085460040FF
:40230000864600408A46004008B5104B93F82630012B06D10D4B93F8271093F82B00FFF715FD0A4B93F82830012B06D1074B93F8291093F82C00FFF74BFD044B93F82A3033
:40234000012B01D1FFF7B0FD08BD00BF1487FF1F10B5FFF7D9FFFFF7CFFE114B5B78012B01D1FFF7BBFA0E4B9B78012B01D1FFF7BDFA0B4C2078FFF735FBE37823B9094A9B
:40238000137803F0EF031370054BD979064A1170197A013211705A7A044B1A7010BD00BF1487FF1F83460040854600408A46004010B5784A1378784C03F00F0384F83030A3
:4023C000764B197884F83110117801F0F00111701A7800221A7003F25E431B7803F0C00384F83530372000F097FE6D4B1A7802F0070284F833201A7802F0400284F834205E
:402400001B7813F0100F03D0012284F8392003E00022614B83F83920624B1B7803F003035D4A82F83230012B19D14FF040231B7803F00303012B07D013B1022B08D00BE0E0
:402440000020FFF701FA0AE00220FFF7FDF906E00320FFF7F9F902E00020FFF733FB524B1B7813F0010F06D001224B4B83F83E20FFF7C4F903E00022474B83F83E2004204A
:40248000FFF788FB494B1B7813F0100F04D00122414B83F8362008E000203F4B83F83600FFF770FA0620FFF731FC3D4B1B7813F0200F0FD04FF040231B7813F0400F01D195
:4024C000022200E00122344B83F837200020FFF7DBFB03E00022304B83F837204FF040231B7803F030032C4A82F838302BB14FF04022137803F0CF031370294B1B7813F019
:40250000100F01D0FFF798F9294B1B78DBB2224A82F83A3013B10020FFF7A2F91E4B93F8323013B10020FFF78FF9224B1B781B02194A9387204909780B43938713B1002043
:40254000FFF794F9164B1B7803F007031B4AD05C00F0E2FD1A4B1B7813F0010F06D001220D4B83F83F20FFF7A5FA03E000220A4B83F83F20134B1B7813F0040F04D001228A
:40258000054B83F8402010BD0022034B83F8402010BD00BFA14300401487FF1FA2430040004200400540004020420040A0430040044000400740004006400040D83E0000D7
:4025C000104200400B40004010B582B0854B53F8080F00909A889B79ADF804208DF80630814B93F84030012B10D1804B1B7803F007037C4AD05C00EB8000C0EB001000F014
:402600001BFD7B4A137843F004031370764B93F83F30012B1AD10020FFF7F6F9754B1B78052411E0714B1B7803F007036D4AD35CC82000FB03F000F0FFFC6E4B1B7813F0EF
:40264000800F03D0013CA4B2002CEBD1372000F063FD654B93F83230023BDBB2012B0ED8654B1B78DBB2604A92F83A00834201D0FFF7F6F85C4B93F83200FFF7E5F85A4BC9
:4026800093F8343013F0400F0CD0574B93F8333002AA134413F8083C032B03D10820FFF779FA18E0504C94F8333002AA134413F8080CFFF76FFA94F8343013F0400F05D06D
:4026C0004A4A137843F04003137004E0474A137803F0BF031370444B93F83630012B07D1464B1B7813F0100F02D10020FFF74AF93D4C94F83700FFF7C7FA94F83930012B70
:4027000001D1FFF791F8384B93F838304FF04022127802F030029A4206D04FF040210A7802F0CF0213430B702F4B93F83E30012B1AD10020FFF7EAF85020FFF7E7FA304BD7
:402740001B78AB240EE00120FFF7E0FA2C4B1B7813F0010F04D02A4B1B7813F0010F03D1013CA4B2002CEED11F4B93F83230012B0ED8214B1B78DBB21B4A92F83A008342D7
:4027800001D0FFF76DF8184B93F83200FFF75CF8154B93F8363033B9184B1B7813F0100F01D0FFF733F8174B1A78013B1B7843EA02230D4A908F834201D0FFF757F812487C
:4027C0000278094B93F8351002F03F020A43027093F830100D4A117093F831200C4B1A7002B010BDD83E00001487FF1F004200400B4000401042004004400040A043004055
:40280000254200400740004000480040A1430040A243004038B5044600F016FC0546334B1B7813F0080F22D1314A137803F01F031370FFF71DFD2F490B782F4A1371C4F39A
:40284000071303F00403DBB20B702C4B1978517104F00F041C7001331978917100221A70A3F5CD731B7813F0070F03D007E000F0EFFB38BD0122204B83F82E200DE01E49B4
:40288000002381F82E301E4B1A7802F0070281F82D201A7802F0F8021A70144A137803F0F80343F004031370137800BF00BF30BF114B93F82E30012B08D011490B780E4A50
:4028C00092F82D2003F0F80313430B70FFF740FD094B1979074A11705979013211709A79084B1A70284600F0B3FB38BD9343004083460040984300401487FF1F99430040D1
:40290000004200409A43004008B54020FFF782FF08BD00BF38B5054600F096FB074B1978074A92F842300B4303F0070423EA050382F8423000F08CFB204638BD90430040C5
:402940001487FF1F38B50546134C237803F0FD032370FEF7CBFF237813F0010F0FD00F4B1B78DBB2AB4216D0227802F0FE0222700A4A1570227842F00102227038BD074BAE
:402980001B78DBB29D4201D0044B1D70024A137843F00103137038BD8243004080430040084A137843F0020313701032137843F00203137002F65932137843F001031370F5
:4029C000704700BFA3430040084A137803F0FE031370A2F66932137803F0FD0313701032137803F0FD031370704700BF0C4F0040014B1870704700BF0F4F0040014B188093
:402A0000704700BF104F0040014B1880704700BF124F004008B5164A137803F0010313700232137803F0FC031370124B1A7802F0CF021A701A7842F030021A701A7802F0F0
:402A4000F0021A701A7842F00F021A700A4A137843F0010313704FF6FF70FFF7CFFF4FF6FF70FFF7D1FF0020FFF7C2FF08BD00BF0C4F0040174F00400D4F004008B5054BAB
:402A80001B7823B9FFF7C6FF0122024B1A70FFF787FF08BD5787FF1F024B1B88024B188880B27047124F0040144F0040024B1B68C3F88400704700BF08ED00E04001C0B29E
:402AC000014B1870704700BF11E400E04FF40032014B1A60704700BF00E100E04FF40032014B1A60704700BF80E100E010B50446FFF7F4FF2046FFF7D9FF0720FFF7DEFF2D
:402B0000FFF7E4FF10BD00BF4FF40032014B1A60704700BF80E200E0084A137843F0010313701032137843F00103137002F64D32137843F001031370704700BFA3430040C7
:402B4000084A137803F0FE031370A2F65D32137803F0FE0313701032137803F0FE031370704700BF004F0040014B1870704700BF034F0040014B1878704700BF034F0040CF
:402B8000014B1880704700BF044F0040014B1880704700BF064F004008B5164A137803F0010313700232137803F0FC031370124B1A7802F0CF021A701A7842F030021A7027
:402BC0001A7802F0F0021A701A7842F00F021A700A4A137843F00103137040F2E730FFF7CFFF40F2E730FFF7D1FF0820FFF7BCFF08BD00BF004F00400B4F0040014F0040AB
:402C000008B5054B1B7823B9FFF7C6FF0122024B1A70FFF781FF08BD5887FF1F024A137843F08003137070477B640040024A137803F07F03137070477B640040014B1870CC
:402C4000704700BF8B640040014B1878704700BF6B640040014B1878704700BF7B640040014B1870704700BF7B640040014B1880704700BF54680040014B188880B2704749
:402C800094680040014B1880704700BF14680040024B1B78024B188880B270470A6400409468004008B501E0FFF7E6FFFFF7CCFF10F0080FF8D108BD08B540F2E730FFF747
:402CC000D5FF40F2E730FFF7DDFF00F0BDF9064A137843F01003137000F0BAF9FFF7E2FF0120FFF7ABFF08BD9B64004008B5054B1B7823B9FFF7E0FF0122024B1A70FFF71B
:402D00008DFF08BD5987FF1F10B5FFF7C1FF044C6080044B1B782371FFF79CFF607110BD5C87FF1F8B64004010B5054C6088FFF7A9FF2279034B1A706079FFF791FF10BD89
:402D40005C87FF1F8B64004008B5084B1B7813F0800F03D00122064B1A7002E00022044B1A70FFF763FFFFF7CFFF08BD7B6400405C87FF1F08B5FFF7D7FF034B1B78012BA9
:402D800001D1FFF74BFF08BD5C87FF1F014B1B685864704708ED00E04001C0B2014B1870704700BF01E400E00222014B1A60704700E100E00222014B1A60704780E100E01E
:402DC00010B50446FFF7F6FF2046FFF7DFFF0720FFF7E2FFFFF7E8FF10BD00BF0222014B1A60704780E200E0024B1878C0F34010704700BF8F450040024B187800F001001D
:402E0000704700BF83450040014B1B681867704708ED00E04001C0B2014B1870704700BF0CE400E04FF48052014B1A60704700BF00E100E04FF48052014B1A60704700BF0A
:402E400080E100E010B50446FFF7F4FF2046FFF7DBFF0720FFF7DEFFFFF7E4FF10BD00BF4FF48052014B1A60704700BF80E200E0014B1B68D865704708ED00E04001C0B2A6
:402E8000014B1870704700BF07E400E08022014B1A60704700E100E08022014B1A60704780E100E010B50446FFF7F6FF2046FFF7DFFF0720FFF7E2FFFFF7E8FF10BD00BF22
:402EC0008022014B1A60704780E200E0014B1B681864704708ED00E04001C0B2014B1870704700BF00E400E00122014B1A60704700E100E00122014B1A60704780E100E097
:402F000010B50446FFF7F6FF2046FFF7DFFF0720FFF7E2FFFFF7E8FF10BD00BF0122014B1A60704780E200E008B500F0EBF800F031F908BD08B5FFF7F7FF08BD30B583B01F
:402F40000C468DF8070000F065F9B4F5006F52D22509A4EB0514A4B200F008FA00284CD101230DF107022146402000F07FF9044607282FD1234B1B7813F0020FFAD0214B68
:402F80001B7813F0020F06D01E4B1B789B0805D04FF0FF3403E04FF0FF3400E00024E4B9194A537812782946402000F09BF9072816D1144B1B7813F0020FFAD0114B1B78D8
:402FC00013F0020F0FD00F4B1B789B0810D04FF0FF340DE0012809D10AE04FF0FF3407E04FF0FF3404E04FF0FF3401E04FF0FF3400F0E2F902E0012400E00424204603B0BB
:4030000030BD00BF224700401097FF1F38B5044600F01AF8054600F0E7F804F1804000F500400478E4B200F0EDF8284600F010F8204638BD000000000230800803D000BF45
:4030400001380046FCD17047EFF3108072B6704780F31088704700BF10B500F0DBF800F085F910BB012000F063F9072818D102210F4800F0E1F802280AD102E00120FEF7F5
:4030800045FE0C4B1B7813F0020FF7D0002409E0084B1B7813F0020FE9D04FF0FF3401E04FF0FF3400F088F900E00424204610BD1097FF1F2247004010B500F0ABF800F021
:4030C00055F9D0B900F094F90446072812D102E00120FEF71BFE0A4B1B7813F0020FF7D0074B1B7813F0020F04D0054B1B789B0800D1002400F060F900E00424204610BD80
:403100002247004008B5FFF7D7FF034610B9FFF7A3FF0346184608BD38B50446FFF794FF05460F2C07D81A4A137803F01F0343F04003137028E0202C07D8154A137803F015
:403140001F0343F0800313701EE0312C07D8104A137803F01F0343F0C003137014E0422C05D80B4A137803F01F0313700CE0532C07D8074A137803F01F0343F0200313707C
:4031800002E00020FEF79EFC2846FFF761FF38BD0048004008B5FFF757FF0F4A137843F0080313701032137843F008031370C8220A4B1A700A4A137843F01003137010324E
:4031C000137843F010031370064B1B7813F0200FFAD0FFF73DFF08BDA043004001470040AC43004000470040054A137843F001031370034B1B7813F0020FFAD0704700BF7A
:4032000002470040024A137803F0FE03137070470247004008B5FFF717FF064A137843F0080313701032137843F008031370FFF70FFF08BDA043004070B506460D460024B0
:403240000CE00120FEF762FD064B1B7813F0010FF7D0054B1B7833550134E4B2AC42F3D3204670BD224700402047004030B43E2801D81F2B03D93F2827D90F2B27D8174C16
:40328000247814F0020F24D0154CB6252570D4252570012525700234247814F0020F1AD10F4C2070C1F300202070C9B22170591EC9B22170002104E0545C094804700131F3
:4032C000C9B29942F8D3072006E0012004E0012002E0042000E0092030BC7047224700402047004030B4104C247814F0020F15D00E4CB6252570D825257005252570023451
:40330000247814F0020F0BD1084C2070080A2070C9B2217022702370072002E0042000E0092030BC704700BF22470040204700400C4B1B7813F0020F0FD00B4BB6221A70CC
:40334000E1221A700E221A7002331B7813F0020F05D1054B187007207047042070470920704700BF224700402047004010B5FFF76BFE0F4B1B78A3B901220D4B1A700D4B0A
:403380001B6813F0010F0ED00A4A136823F00103136000BF00BF00BF0122054B5A60002402E0042400E00024FFF752FE204610BD6487FF1F0400084008B5FFF745FE0A4B8B
:4033C00000221A705B68012B0AD1084A136843F00103136000BF00BF00BF0022024B5A60FFF736FE08BD00BF6487FF1F04000840074B1B7813F0020F08D0064BB6221A70F3
:40340000E0221A700D221A7007207047042070472247004020470040014B1868704700BF9886FF1F0E4B70B51E460E4C0025E41AA410A54204D056F8253098470135F8E75B
:4034400000F06CFD084B094C1E46E41AA4100025A54204D056F8253098470135F8E770BD283F0000283F0000283F0000303F000010B5431E0A44914204D011F8014B03F882
:40348000014FF8E710BD03460244934202D003F8011BFAE77047000038B5124B05461C68A36BD3B9182000F07DF843F20E33A06303804AF6CD33438041F2342383804EF20F
:4034C0006D63C3804DF6EC630381052343810B23838101220023C0E90423A36B00221D615A6138BD9886FF1F194B10B51C68A36BD3B9182000F056F843F20E33A06303801C
:403500004AF6CD33438041F2342383804EF26D63C3804DF6EC630381052343810B23838101220023C0E90423A16B0A4C0B6948695C43094A02FB0040A3FB0223013203446B
:4035400043F10003C1E9042323F0004010BD00BF9886FF1F2DF451582D7F954C0EB400B54FF402719CB0ADF814106FF00041049107914FF6FF711DAB02900690084853F882
:40358000042BADF81610006802A9019300F016F9029B00221A701CB05DF804EB03B070479886FF1F024B0146186800F04FB800BF9886FF1F38B50546002944D051F8043C68
:4035C0000C1F002BB8BFE41800F0C1FB1E4A1368114613B96360146030E0A3420DD92268A018834201BF18685B681218226063600C6023E0A24203D813465A68002AF9D188
:4036000018681918A1420BD12168014458188242196013D110685268014419605A600DE002D90C232B6009E021686018824201BF106852680918216062605C602846BDE8BC
:40364000384000F085BB38BD7087FF1F70B5CD1C25F0030508350C2D38BF0C25002D064601DBA94202D90C23336046E000F06FFB234B1C681A462146A1B10B685B1B0ED49C
:403680000B2B03D90B60CC18CD501EE08C420BBF63684B681360636018BF0C4615E00C464968E9E7174C23681BB9304600F016FB20602946304600F011FB431C18D0C41C90
:4036C00024F00304A0420DD12560304600F040FB04F10B00231D20F00700C31A0ED05A42E25070BD211A304600F0F8FA0130EBD10C233360304600F02BFB002070BD00BFE2
:403700007087FF1F6C87FF1F2DE9F0478E6882469E420C46914698463ED88A8912F4906F3AD02568096902236F1A656905EB450595FBF3F57B1C43449D4238BF1D4653055D
:403740000FD52946FFF782FF064698B13A462169FFF78EFEA38923F4906343F08003A38113E02A4600F0F5FA064670B921695046FFF720FF0C23CAF80030A3894FF0FF30A7
:4037800043F04003A381BDE8F08726613E44266046466561ED1BA560464528BF464649463246206800F0B8FAA36800209B1BA36023681E442660BDE8F08700002DE9F04F6E
:4037C0009DB003938B8980461C060D4616460DD50B695BB94021FFF739FF2860286118B90C23C8F80030CDE040236B610023099320238DF82930DFF89CB130238DF82A302F
:4038000037463C4614F8013B1BB9B7EB060910D003E0252BF9D02746F3E74B46324629464046FFF771FF013000F0A780099B4B4409933B78002B00F0A08000234FF0FF329D
:4038400004930793059206938DF853301A930126052221784E4800F051FA671C049B38B14B4A3C46801A06FA00F018430490EFE7D90644BF20228DF853201A0744BF2B227C
:403880008DF8532022782A2A03D0079A00210A200BE0039A111D12680391002A10DA524243F00200079204900BE027463B780134303B092B03D800FB02320121F5E701B1FC
:4038C00007923B782E2B1ED17B782A2B0AD1039B02371A1D1B680392002BB8BF4FF0FF33059310E0002319460593781C0A2407463A780130303A092A03D804FB0121012387
:40390000F5E703B1059103223978224800F0F6F940B14023CBEB000003FA00F0049B013718430490397806221B487E1C8DF8281000F0E4F988B1194B33B9039B073323F0B1
:4039400007030833039314E003AB00932A46144B04A94046AFF3008007E003AB00932A460F4B04A9404600F093F8B0F1FF3F824603D0099B5344099342E7AB895B0601D48F
:40398000099801E04FF0FF301DB0BDE8F08F00BFE93E0000EF3E0000F33E000000000000093700002DE9F04791461F460A698B6806469342B8BF1346C9F8003091F84320E5
:4039C0000C46DDF8208012B10133C9F800302368990642BFD9F800300233C9F80030256815F0060510D104F1190A07E00123524639463046C04701301AD00135E368D9F824
:403A000000209B1A9D42F1DB94F843302268003318BF012392060FD5E118302081F843005A1C94F845102244023382F8431003E04FF0FF30BDE8F08704F143023946304673
:403A4000C0470130F4D02268D9F80050E36802F00602042A08BF5D1B2269A3680CBF25EAE57500259342C4BF9B1AED184FF000091A344D4509D00123224639463046C04763
:403A80000130D5D009F10109F3E70020BDE8F0872DE9F04317460A7E85B06E2A984606460C460C9B01F1430E00F0AE8011D8632A22D009D8002A00F0BB80582A40F0CA80FD
:403AC00081F84520834955E0642A1ED0692A1CD0C0E0732A00F0B08009D86F2A2ED0702A40F0B8800A6842F020020A603EE0752A24D0782A3AD0ADE01A6801F14205111D12
:403B00001960136884F84230A8E021681A6811F0800F02D0111D196008E011F0400F02F10401196002D0B2F9003000E01368002B3CDA2D225B4284F8432037E021681A6828
:403B400011F0800F02D0111D196007E011F0400F02F10401196001D0138800E01368227E5C496F2A14BF0A2208221BE078225A4984F845202268186812F0800F00F1040518
:403B80001D6003D1550601D5038800E00368D00744BF42F0200222601BB9226822F0200222601022002084F8430001E049490A226568002DA56008DB206820F0040020603B
:403BC0002BB9002D7DD175460CE0002B79D07546B3FBF2F002FB1033CB5C05F8013D03460028F5D1082A0BD12368DA0708D5236962689A42DEBF302305F8013C05F1FF354A
:403C0000C5EB0E0323612EE008681A6810F0800F496903D0101D1860136808E010F0400F02F104001860136801D0198000E0196000232361754616E01A68111D1960156829
:403C400000216268284600F059F808B1401B6060636804E004F1420584F8422001232361002384F84330CDF800803B4603AA21463046FFF797FE013002D14FF0FF3026E000
:403C800023692A4639463046C0470130F5D023689B0710D5002504F1190907E001234A4639463046C0470130E7D00135E368039A9B1A9D42F2DBE068039B9842B8BF184635
:403CC00005E00B7804F1420584F842308AE705B0BDE8F083FA3E00000B3F000038B5064C0023054608462360FDF72EFA431C02D1236803B12B6038BD1497FF1F10B5C9B2DE
:403D000002449042034605D01C7801308C42F8D1184610BD002010BD884210B501EB020301D8421E0BE09842FBD28118D21AD34204D013F8014D01F8014DF8E710BD9942F9
:403D400004D011F8014B02F8014FF8E710BD70477047F8B5074615460E4621B91146BDE8F840FFF773BC1AB9FFF724FC2846F8BD00F015F885420ED929463846FFF766FCDE
:403D8000044650B131462A46FFF772FB31463846FFF710FC01E03046F8BD2046F8BD51F8040C0028BEBF091851F8043CC0180438704700000000000053434F524500000061
:403DC0004253542C25632C460A00000057616974696E6720466F72004E616D657320546F2053746172740000534C454550000000504155534544000047616D65204F76658C
:403E00007200000053433A004D61782053636F72652041636869766564210000466972737420506C6163653A000000005365636F6E6420506C6163653A0000005468697290
:403E40006420506C6163653A00000000004F0040180000510040100040510040300000000140001000140140000480180140800300400140000A004C0140000200500140A5
:403E8000200000006052004070030048060000180140780300488000000E0808080E0000000A0A0404040000000E0A0E08080000000E0A0C0A0A0000000E080C080E000099
:403EC000000E080E020E0000000E080E020E000000040404000400000C061803303E4A00020103000405064300232D302B2000686C4C0065666745464700303132333435EF
:403F000036373839414243444546003031323334353637383961626364656600F8B500BFF8BC08BC9E4670474D000000C5110000F8B500BFF8BC08BC9E4670472900000062
:403F4000503F0000C880FF1FD8050000781000000000000068444400697361616300000001000000010000006D0000003030303030303030300000000000000000000000D7
:403F80000000000000000000000000004E4E4E2C302C302C4600000000000000000000000000000000000000000000000000000003000000030000000300000003000000E1
:403FC0000300000003000000030000000300000003000000030000000300000003000000030000000300000003000000030000000300000003000000000000000300000094
:404000000000000000000000000000000000000000000000000000000000000000000000000000000000000000000000000000000000000000000000000000000000000080
:40404000000000000000000003000000030000000000000000000000000000000000000000000000000000000000000000000000000000000000000000000000000000003A
:4040800000000000000000000000000000000000000000000000000003000000030000000000000000000000000000000000000000000000000000000000000000000000FA
:4040C00000000000000000000000000000000000000000000000000000000000000000000000000000000000030000000300000000000000000000000000000000000000BA
:404100000000000000000000000000000000000000000000000000000000000000000000000000000000000000000000000000000000000000000000030000000300000079
:40414000000000000000000000000000000000000000000000000000000000000000000000000000000000000000000000000000000000000000000000000000000000003F
:4041800000000000000000000300000003000000000000000000000000000000000000000000000000000000000000000000000000000000000000000000000000000000F9
:4041C00000000000000000000000000000000000000000000000000003000000030000000000000000000000000000000000000000000000000000000000000000000000B9
:404200000000000000000000000000000000000000000000000000000000000000000000000000000000000003000000030000000000000000000000000000000000000078
:404240000000000000000000000000000000000000000000000000000000000000000000000000000000000000000000000000000000000000000000030000000300000038
:4042800000000000000000000000000000000000000000000000000000000000000000000000000000000000000000000000000000000000000000000000000000000000FE
:4042C00000000000000000000300000003000000000000000000000000000000000000000000000000000000000000000000000000000000000000000000000000000000B8
:404300000000000000000000000000000000000000000000000000000300000003000000000000000000000000000000000000000000000000000000000000000000000077
:404340000000000000000000000000000000000000000000000000000000000000000000000000000000000003000000030000000000000000000000000000000000000037
:4043800000000000000000000000000000000000000000000000000000000000000000000000000000000000000000000000000000000000000000000300000003000000F7
:4043C00000000000000000000000000000000000000000000000000000000000000000000000000000000000000000000000000000000000000000000000000000000000BD
:404400000000000000000000030000000300000000000000000000000000000000000000000000000000000000000000000000000000000000000000000000000000000076
:404440000000000000000000000000000000000000000000000000000300000000000000030000000300000003000000030000000300000003000000030000000300000021
:4044800003000000030000000300000003000000030000000300000003000000030000000300000003000000000000001897FF1F0000E02EC05D00001800000000366E0129
:4044C0000000000000000000000000000000000000000000000000000000000000000000E73E00000000000000000000000000000000000000000000000000000000000097
:4045000000000000000000000000000000000000000000000000000000000000000000003886FF1F000000000000000000000000000000000000000000000000000000009F
:40454000000000000000000000000000000000000000000000000000000000000000000000000000000000000000000000000000000000000000000000000000000000003B
:4045800000000000000000000000000000000000000000000000000000000000000000000000000000000000000000000000000000000000000000000000000000000000FB
:4045C00000000000000000000000000000000000000000000000000000000000000000000000000000000000000000000000000000000000000000000000000000000000BB
:40460000000000000000000000000000000000000000000000000000000000000000000000000000000000000000000000000000000000000000000000000000000000007A
:020000040003F7
:0200000480007A
:4000000002450040044F0040026400400265004003050140060901403E0A0140230B0140040C0140010D01400E18014038190140691A0140491B01400340014002410140BE
:400040000C420140094D0140045001400151014018017D0101100A4B0D80164B8A388B0D88728B0FE208E601EA08942C9F01A108A402A602A720405149FF4AFF4BFF4F01BC
:400080005018541856045A045B045D015F016040624064406540668068806A806C806E80820184028802900293019E01A701B001B202B701BE01BF40C015C5ECC602C80782
:4000C000C9FFCAFFCBFFCD83CE03CF01D018D280D401D604D804D904DA04DB04DD11DF01E040E240E440E540E680E880EA80EC80EE80042805010C821C401D0824012F2035
:4001000036024380474048014D044F81548057C05B015C405D045F016085678074017501774080808740AF40C070C290CA40CC80D018D218D6D1D88D38803E4058045F0163
:400140001F4086018A028E0190049801A202A801B201B402B604B808BE50D804DF010050031005290601070409200A800D080EC6108011201680172A18161C401DA11E24F6
:400180002510260A27152D292E80364137283C403D083E2245A846204C804D204E0257205E206C166D106E087603772889218E48942C9F01A108A402A602A720C0F7C2FA34
:4001C000C47ACAF0CCF0CEF0D070D230D62000DC02220410058006AC07130E030F0C100912D01414152C174319711B061F08201022402620280C29712A712B0E301F31C07A
:40020000330F34E0353039223A203B083F104002460449FF4A074BFF4C404D204EF04F055008580459045A045F01604061A862406320800A821484408620881389068A0CDB
:400240008C808E2091049208930294139506960498E09C209EC0A108A502A615A705A8E0AC03AE14B010B301B40FB508B6E0B706BA20BE01BF10C026C103C50BC60EC7C05E
:40028000C825C9FFCAFFCBFFCEF0CF44D00CD401D804D904DA04DB04DF01E6C0EA40EB02024003120518064007020A200B400C040E0A0F401004110412801514160119207E
:4002C0001A801B021D101E422004220823402504270A280429202A202D092F8031103288331036043702380839043B403D104004462047104C044E10500452805603578010
:400300005C205D015E405F08864889088C208E02911096809D089F02A204A504A601B401C0FDC2FCC4EECAC4CCCECE2AD064D220D6F032403580CC3096809D805B085F0842
:400340008240858096809B089D80AF08D6C0E210E680EA1010407C4088409040B440C408DE04E201E80200030C0310011C01000F80800000400000008F104000010020049B
:40038000CF0000E3081C00E18CC0430000084300C3180C00033C10C202E72018044400000CFF0000008000004C38801F0F0030C000002228000044002306050001E0C00041
:4003C0000AFFFFFF62A0F0410C000000000002110404040400000001000000000000400200103010001010120000000000000000000000000000000080004080800080008F
:40040000000000002020000000000000000B0B0000000000007F7F000000000001010000000000000000000000000000000000000000000000000000000000000000000066
:40044000000000000000000000000000000000000000000000000000000000000000000000000000000000000000000000000000000000000000000000000000000000007C
:40048000000000000000000000000000000000000000000000000000000000000000000000000000000000000000000000000000000000000000000000000000000000003C
:4004C00000000000000000000000000000000000000000000000000000000000000000000000000000000000000000000000000000000000000000000000000000000000FC
:4005000000000000000000000000000000000000000000000000000000000000000000000000000000000000000000000000000000000000000000000000000000000000BB
:0200000490006A
:0400000000004005B7
:0200000490105A
:04000000BC90ACAF55
:0200000490303A
:02000000B4CE7C
:0200000490402A
:4000000000000000000000000000000000000000000000000000000000000000000000000000000000000000000000000000000000000000000000000000000000000000C0
:400040000000000000000000000000000000000000000000000000000000000000000000000000000000000000000000000000000000000000000000000000000000000080
:400080000000000000000000000000000000000000000000000000000000000000000000000000000000000000000000000000000000000000000000000000000000000040
:4000C0000000000000000000000000000000000000000000000000000000000000000000000000000000000000000000000000000000000000000000000000000000000000
:0200000490501A
:0C00000000012E16106900012E2EC537DD
:00000001FF