:400000000080002011000000DD060000DD06000008B5044B1A6803F53F5302331A6000F065FB00BFFA46004010B5054C237833B9044B13B10448AFF300800123237010BD51
:400040009881FF1F00000000B4210000084B10B51BB108490848AFF300800848036803B910BD074B002BFBD0BDE81040184700BF000000009C81FF1FB4210000C880FF1FB8
:400080000000000010B500F03DFD344B1870572807D1334900240C60324B01221A604C605A602C2803D12E4A5368013353602D4B5B68012B04D12A4B1B682A4A134418729C
:4000C000274B1B68032B14D1264A127A572A02D00021244A1160234A527A522A02D00021204A11601F4A927A452A02D000211D4A11601F2B14D11B4A127A572A02D00021E3
:40010000184A1160174A527A522A02D00021154A1160144A927A452A02D00021114A1160462815D11F2B13D10E4A1268012A0FD10B4A52680A2A0BD100210A4A516005E05F
:40014000084A0A44107A82F8280001311F29F7DD0133034A136000F013FD10BDF481FF1FB481FF1FCC80FF1FF0B40025012433E0435C302B13D0312B13D0322B13D0332B99
:4001800013D0342B13D0352B13D0362B13D0372B13D0382B13D0392B13D1092312E0002310E001230EE002230CE003230AE0042308E0052306E0062304E0072302E00823FB
:4001C00000E00023012C03D103EB83077E00354404B91D44013C01319142C9DD2846F0BC704700BF0000000080B562B600F0EEFB00F07AFC01F070FA01F082FA00F002FFB1
:4002000000F028FD00F09AFD00F00AFE00F07AFE00F0EAFE01F078F801F0E8F801F058F901F0C8F9684800F09DFC00F0A9FC002001F06AFA01F0DEFC61A3D3E9002301F0E2
:400240003FFD06460F46614CA06C01F0D3FC32463B4601F083FB01F045FF5D4D2860012001F052FA01F0C6FC55A3D3E9002301F027FD06460F46A06C01F0BCFC32463B460D
:4002800001F06CFB01F02EFF6860022001F03CFA01F0B0FC4AA3D3E9002301F011FD06460F46A06C01F0A6FC32463B4601F056FB01F018FFA860032001F026FA01F09AFC09
:4002C0003FA3D3E9002301F0FBFC06460F46A06C01F090FC32463B4601F040FB01F002FFE8602834052204212046FFF73DFF80B200F060FC082207212046FFF735FF80B2FA
:4003000000F0CAFC0B220A212046FFF72DFF80B200F036FD0E220D212046FFF725FF80B200F0A0FD112210212046FFF71DFF80B200F00AFE1D221C212046FFF715FF80B211
:4003400001F0E8F801F0F0F9012818D1142213212046FFF709FF80B200F086FF172216212046FFF701FF80B200F0F0FF1A2219212046FFF7F9FE80B201F05AF809E0144CE7
:40038000208800F071FFA08800F0E0FF208901F04FF8012000F0CEFA0021084600F024FB0C4800F0B9FA0021012000F01DFB0A4B988800F037FB1E2000F022FF37E700BF02
:4003C000BA490C022B87763F85000000CC80FF1FE481FF1FF480FF1FB481FF1FFEE700BFF0B40022174611E050F82760F3B226F0FF0608E001EB420511F812406D78A55592
:400400000132013BDBB2002BF4D10137272FEBD9F0BC704708B50A46002101F0C2FE08BD38B50E22294B1A801823294A13704FF49C71023211800232137040F2CF710232A9
:400440001180023213700222224B1A7008224FF040231A70032103F5007319701E4B1B78DBB21E490B701E4B1A8041F25122023B1A80002419250CE01A4B1B7803F0010383
:4004800043EA440404F003044FF4F07001F050FA013D0DB1032CEFD115B90320FFF79EFF114B4FF480721A8007221A7000220F490A704820023108701A700222033B1A7024
:4004C0000B4A137843F00703137038BD80400040824000400043004008010049A146004022420040254200400440004006400040A2430040F8B5164B1B78DBB2154E3478B2
:40050000E4B2154F3D78EDB203F00701134A11701B090132137044F00303337045F003033B701F220E4B1A7040230E4A137002321370F0220C4B1A70202203331A700A20BF
:4005400000F074FE3D7034704422084B1A70F8BDCF010049F8460040F94600406E5800400D51004001590040205B00407658004008B501F00BFE08BD38B572B63F4A13780E
:4005800043F00403137000240CE03D4D630019194A0011462A44084691882858FFF73AFF0134E4B2062CF0D900240BE03448A20011194B0003449A8E196BD86AFFF7D8FFC0
:4005C0000134E4B2012CF1D92E494FF09040FFF707FF04212C48FFF71DFF04222B492C48FFF7C6FF2B4A137843F0020313701032137843F002031370274C237843F040037C
:400600002370A2F58632513A137843F010031370082222492248FFF7ABFF0A2221492248FFF7A6FF082221492148FFF7A1FF082220492148FFF79CFF082220492048FFF7AE
:4006400097FF08221F492048FFF792FF1F4A137843F0080313701E4D61232B70FFF7E0FE81232B7001221B4B1A70FFF743FF0E2221461948FFF77CFF38BD00BFE84600403B
:40068000B8210000A0000048007600407C0F00480876004003500140A0430040480F004802510040500F0048C05100405C0F0048F2510040640F0048125100406C0F0048FA
:4006C00022510040740F004832510040224300400048004004000840B043004008B501F029FD03680C2B00D1FEE7FEE708B5104E104D16E029686B68AC68002204E051F8C7
:40070000040B43F8040B0432A242F8D1E868002203E0002143F8041B04328242F9D11035013E002EE6D101F00BFDFFF75DFDFEE7010000002022000008B5114A114B1A6021
:40074000114A136843F40073136000230AE0032B03D80E4A52F8231000E00D490D4A42F8231001332F2BF2D90B4B1A780B4B1A70084A0B4B1A60FFF7FFFE00F05FFC08BD5B
:400780000004FA050CED00E014ED00E000000000DD0600000080FF1FBC760040C080FF1F08ED00E010B50B4C237803F09F032370237803F0F00323702378184340F010002D
:4007C0002070012000F032FD237803F0EF03237010BD00BF2051004038B505460E4C237843F020032370237803F0BF032370002000F01CFD237803F0F003237023781D43A8
:4008000045F010052570012000F010FD237803F0EF03237038BD00BF2051004070B5354B1A7802F08002D2B21A7033490A7802F0F00242F00F020A7001310A7802F0F00253
:400840000A7001310A7802F0F0020A701A7802F0DF021A701A7842F040021A704FF4CA76002000F0E3FC234D2B7843F010032B70012000F0DBFC214B1C78E4B22B7803F0F3
:40088000EF032B70002000F0D1FC04F00804E4B22B7843F010032B70012000F0C7FC2B7803F0EF032B7014B90A2000F0BFFC013E0CB1002ED4D10F4A137803F0BF03137030
:4008C000137803F08003DBB213700232137803F0F00313700132137803F0F00343F00F0313700132137803F0F00343F00F03137070BD00BF205100402251004021510040E5
:4009000010B50446FFF78AFF2009FFF765FF04F00F00FFF761FF10BD38B505460078012404E0FFF7EDFF285D0134E4B20028F8D138BD00BF10B50446FFF770FF2009FFF75D
:4009400031FF04F00F00FFF72DFF10BD08B5282000F056FC0320FFF725FF052000F050FC0320FFF71FFF0F2000F04AFC0320FFF719FF012000F044FC0220FFF713FF052003
:4009800000F03EFC0620FFF7D5FF0E20FFF7D2FF2C20FFF7CFFF0820FFF7CCFF0120FFF7C9FF0C20FFF7C6FF0320FFF7C3FF052000F026FC08BD00BF08B50C20FFF7BAFF3B
:4009C0000122014B1A7008BDBC81FF1F08B5054B5B7823B9FFF7BAFF0122024B5A70FFF7EBFF08BDBC81FF1F08B5032819D8DFE800F002070D1381F08000FFF79BFF08BD3A
:400A0000A1F14000C0B2FFF795FF08BDA1F16C00C0B2FFF78FFF08BDA1F12C00C0B2FFF789FF08BD10B584B000238DF80E30092211E0144BA3FB0013DB081C4603EB830333
:400A40005900431ADBB2303304A9114401F80C3C2046013AD2B20928EBD80A4BA3FB0013DB0803EB83035900431ADBB2303304A9114401F80C3C01AB9818FFF74DFF04B0DC
:400A800010BD00BFCDCCCCCC7222084B1A702022013B1A700622A3F5B1731A70472210331A7000224E331A70704700BF8965004010B500F045FF04460A4A137843F0200313
:400AC0001370013A137843F010031370A2F58272137843F01003137000F0A2FA204600F033FF10BD9965004008B5054B1B7823B9FFF7CAFF0122024B1A70FFF7D9FF08BD1E
:400B0000BE81FF1F084B1B78DBB213F0200F06D0064A1078C0B213F01E0F02D17047002070470020704700BF6865004049640040014B1B685864704708ED00E04001C0B2A8
:400B4000014B1870704700BF01E400E00222014B1A60704700E100E00222014B1A60704780E100E010B50446FFF7F6FF2046FFF7DFFF0720FFF7E2FFFFF7E8FF10BD00BF87
:400B80000222014B1A60704780E200E0024A137843F080031370704779640040014B1880704700BF14680040014B1880704700BF94680040014B1880704700BF546800406C
:400BC000014B1870704700BF8B640040014B1878704700BF6B640040014B188880B27047B468004008B501E0FFF7F6FFFFF7EEFF10F0100FF8D108BD10B5144A137803F030
:400C0000C00343F0090313702132137843F0010313700F4C237843F001032370EF20FFF7BDFFEF20FFF7C0FF3D20FFF7C3FF0020FFF7C6FF00F084FE237843F0100323707C
:400C400000F082FEFFF7CEFF10BD00BF796400409B64004008B5054B1B7823B9FFF7CCFF0122024B1A70FFF791FF08BDC081FF1F024A137843F08003137070477864004095
:400C8000014B1880704700BF106A0040014B1880704700BF906A0040014B1880704700BF506A0040014B1870704700BF88640040014B1878704700BF68640040014B188878
:400CC00080B27047B06A004008B501E0FFF7F6FFFFF7EEFF10F0100FF8D108BD08B5154A137803F0C00343F00903137002F59072137843F0010313700132137843F0010346
:400D00001370EF20FFF7BCFFEF20FFF7BFFF3D20FFF7C2FF0020FFF7C5FF00F011FE064A137843F01003137000F00EFEFFF7CCFF08BD00BF786400409864004008B5054B76
:400D40001B7823B9FFF7CAFF0122024B1A70FFF78FFF08BDC181FF1F024A137843F08003137070477B640040014B1880704700BF18680040014B1880704700BF9868004008
:400D8000014B1880704700BF58680040014B1870704700BF8A640040014B1878704700BF6A640040014B188880B27047B868004008B501E0FFF7F6FFFFF7EEFF10F0100F41
:400DC000F8D108BD08B5144A137803F0C00343F0090313702132137843F0010313700132137843F001031370EF20FFF7BDFFEF20FFF7C0FF3D20FFF7C3FF0020FFF7C6FFC2
:400E000000F09EFD054A137843F01003137000F09BFDFFF7CDFF08BD7B6400409A64004008B5054B1B7823B9FFF7CCFF0122024B1A70FFF791FF08BDC281FF1F024A13785E
:400E400043F080031370704776640040014B1880704700BF00680040014B1880704700BF80680040014B1880704700BF40680040014B1870704700BF81640040014B187857
:400E8000704700BF61640040014B188880B27047A068004008B501E0FFF7F6FFFFF7EEFF10F0100FF8D108BD10B5144A137803F0C00343F0090313701A32137843F001034D
:400EC00013700F4C237843F001032370EF20FFF7BDFFEF20FFF7C0FF3D20FFF7C3FF0020FFF7C6FF00F02CFD237843F01003237000F02AFDFFF7CEFF10BD00BF766400402D
:400F00009164004008B5054B1B7823B9FFF7CCFF0122024B1A70FFF791FF08BDC381FF1F024A137843F080031370704777640040014B1880704700BF04680040014B1880CC
:400F4000704700BF84680040014B1880704700BF44680040014B1870704700BF83640040014B1878704700BF63640040014B188880B27047A468004008B501E0FFF7F6FF15
:400F8000FFF7EEFF10F0100FF8D108BD10B5144A137803F0C00343F0090313701B32137843F0010313700F4C237843F001032370EF20FFF7BDFFEF20FFF7C0FF3D20FFF751
:400FC000C3FF0020FFF7C6FF00F0BAFC237843F01003237000F0B8FCFFF7CEFF10BD00BF776400409364004008B5054B1B7823B9FFF7CCFF0122024B1A70FFF791FF08BD73
:40100000C481FF1F054A137843F0040313701032137843F004031370704700BFA2430040054A137843F0020313701032137843F002031370704700BFA24300400B4A7F23E2
:4010400013708021517007E0DA0002F1804202F5F042013BDBB21370002BF5D1DB0003F1804303F5F04300221A7070471881FF1F172815D831B103010A495A5C42F0200269
:401080005A5405E0030107495A5C02F0DF025A540001044A835C43F00103835400207047012070471070004017280CD80001074BC1180A7942F004020A71C25C42F001028F
:4010C000C254002070470120704700BF1070004017280BD80001064A835C03F0F103490001F00E011943815400207047012070471070004041F6FF73994201D14FF40051A0
:4011000041F6FF739A4201D14FF40052172808D8C00000F1804000F5EC408180C280002070470120704700BF172805D8034B03EB00104172002070470120704710700040D7
:4011400017281BD810B4C00000F1804404F5EC44D201D2B201F07F01114321709DF804201201D2B203F00F03134363709DF8083003F00F03A3700020E07001E001207047A2
:4011800010BC704710B500F0DBFB0A4B5B78182B0BD9084A1478013B5370E30003F1804303F5F0431B78137000E0FF2400F0CCFB204610BD1881FF1F10F0800F0CD111F405
:4011C000704F0BD1C00000F1804000F5F04001808270C37000207047012070470120704710F0800F08D1C00000F1804000F5F0408180C280002070470120704701BE70472B
:4012000010B5044605E0084B186800F091FBA4F50044B4F5004FF6D8034B586800FB04F000F086FB10BD00BF2081FF1F08B5034B1B7A00FB03F000F07BFB08BD2081FF1F97
:40124000024A137843F080031370704774650040014B1880704700BF0C6A0040014B1880704700BF8C6A0040014B1880704700BF4C6A0040014B1870704700BF8765004028
:40128000014B1878704700BF67650040014B188880B27047AC6A004008B501E0FFF7F6FFFFF7EEFF10F0100FF8D108BD10B5144A137803F0C00343F0090313702232137887
:4012C00043F0010313700F4C237843F001032370EF20FFF7BDFFEF20FFF7C0FF3D20FFF7C3FF0020FFF7C6FF00F02AFB237843F01003237000F028FBFFF7CEFF10BD00BF14
:40130000746500409765004008B5054B1B7823B9FFF7CCFF0122024B1A70FFF791FF08BDC581FF1F024A137843F080031370704775650040014B1880704700BF086A004085
:40134000014B1880704700BF886A0040014B1880704700BF486A0040014B1870704700BF85650040014B1878704700BF65650040014B188880B27047A86A004008B501E000
:40138000FFF7F6FFFFF7EEFF10F0100FF8D108BD10B5144A137803F0C00343F0090313701F32137843F0010313700F4C237843F001032370EF20FFF7BDFFEF20FFF7C0FFB1
:4013C0003D20FFF7C3FF0020FFF7C6FF00F0B8FA237843F01003237000F0B6FAFFF7CEFF10BD00BF756500409565004008B5054B1B7823B9FFF7CCFF0122024B1A70FFF777
:4014000091FF08BDC681FF1F024A137843F080031370704772640040014B1880704700BF08680040014B1880704700BF88680040014B1880704700BF48680040014B187063
:40144000704700BF85640040014B1878704700BF65640040014B188880B27047A868004008B501E0FFF7F6FFFFF7EEFF10F0100FF8D108BD10B5144A137803F0C00343F09D
:40148000090313702232137843F0010313700F4C237843F001032370EF20FFF7BDFFEF20FFF7C0FF3D20FFF7C3FF0020FFF7C6FF00F046FA237843F01003237000F044FAFD
:4014C000FFF7CEFF10BD00BF726400409564004008B5054B1B7823B9FFF7CCFF0122024B1A70FFF791FF08BDC781FF1F024A137843F08003137070477B650040014B18809B
:40150000704700BF146A0040014B1880704700BF946A0040014B1880704700BF546A0040014B1870704700BF8B650040014B1878704700BF6B650040014B188880B27047D6
:40154000B46A004008B501E0FFF7F6FFFFF7EEFF10F0100FF8D108BD10B5144A137803F0C00343F0090313701F32137843F0010313700F4C237843F001032370EF20FFF773
:40158000BDFFEF20FFF7C0FF3D20FFF7C3FF0020FFF7C6FF00F0D4F9237843F01003237000F0D2F9FFF7CEFF10BD00BF7B6500409B65004008B5054B1B7823B9FFF7CCFFE3
:4015C0000122024B1A70FFF791FF08BDC881FF1F10B541F6FF734FF480420121022000F05DF9084C207041F6FF731A4601210A2000F072F96070044800F08CF9002000F00D
:401600008FF910BDCC81FF1F2517000070B52C4C2078FFF749FD6078FFF746FD294B1B78FF2B03D1FFF7AEFD264B1870254D2878062302460A21FFF7BFFD214E341DA4B217
:40164000224645F6A0312878FFF7CAFD29783078FFF76AFD6B78FF2B02D1FFF793FD6870184D6878072302460A21FFF7A5FD164A92B221466878FFF7B3FD114C6978607894
:40168000FFF752FD01212078FFF7F2FC01216078FFF7EEFC00F054F90C4A137843F02003137000F051F90A4B1A7842F001021A701A7842F002021A700122064B1A6070BD29
:4016C000CC81FF1F3081FF1FF881FF1F9F6400407C64004080E200E008B5074B1B6923B9FFF776FF0122044B1A6100F0C1F8FFF78DFF024B1B7808BDCC81FF1F6D64004061
:4017000008B500F0C3F808BDC0F10400034B33F91030034A1088181A00B27047F881FF1F0682FF1F704700BF024B1878C0F34010704700BFF151004008B50A280FD00C2800
:4017400002D0082806D102E04FF4805209E04FF4807206E00020FFF751FD002201E04FF480620021094B198042F2107303FB02F303F6C413064A82FB0302DB17C3EBE2230A
:40178000044A1360044B198008BD00BF0482FF1FAD8BDB680882FF1F0682FF1F10B500F0CFF80446184A137843F0010313701032137843F00103137002F5AA5208321378E3
:4017C00043F0030313701822104B1A70013B1A7842F040021A701A7802F0FC021A70C822053B1A700222A3F597530C3B1A70084A137843F0080313700A20FFF717FD2046D3
:4018000000F0A2F810BD00BFAB43004006590040275B004010B504460A280DD00C2802D0082804D101E0C22207E0422205E00020FFF7E4FCC22200E08222034B1A70204649
:40184000FFF77AFF10BD00BF0259004008B5064A137843F0060313700C20FFF7DBFF0022024B1A8008BD00BF015900400C82FF1F08B5054B1B7823B9FFF7E8FF0122024BE3
:401880001A70FFF78BFF08BDE081FF1F024A137843F001031370704700590040F0B583B016461F460B4C012525700023019300932B460A4601462846FFF742FC3A46314663
:4018C0002078FFF717FC02212078FFF701FC207803B0F0BD3281FF1FF0B583B016461F460B4D00242C700194009423460A4601462046FFF725FC3A4631462878FFF7FAFBF7
:4019000002212878FFF7E4FB287803B0F0BD00BF3381FF1F014B1B681864704708ED00E04001C0B2014B1870704700BF00E400E00230800803D000BF01380046FCD1704797
:40194000EFF3108072B6704780F31088704700BF81F0004102E000BF83F0004330B54FEA41044FEA430594EA050F08BF90EA020F1FBF54EA000C55EA020C7FEA645C7FEABD
:40198000655C00F0E2804FEA5454D4EB5555B8BF6D420CDD2C4480EA020281EA030382EA000083EA010180EA020281EA0303362D88BF30BD11F0004F4FEA01314FF4801C81
:4019C0004CEA113102D0404261EB410113F0004F4FEA03334CEA133302D0524263EB430394EA050F00F0A780A4F10104D5F1200E0DDB02FA0EFC22FA05F2801841F1000153
:401A000003FA0EF2801843FA05F359410EE0A5F120050EF1200E012A03FA0EFC28BF4CF0020C43FA05F3C01851EBE37101F0004507D54FF0000EDCF1000C7EEB00006EEB72
:401A40000101B1F5801F1BD3B1F5001F0CD349085FEA30004FEA3C0C04F101044FEA445212F5800F80F09A80BCF1004F08BF5FEA500C50F1000041EB045141EA050130BD11
:401A80005FEA4C0C404141EB010111F4801FA4F10104E9D191F0000F04BF01460020B1FA81F308BF2033A3F10B03B3F120020CDA0C3208DD02F1140CC2F10C0201FA0CF0AF
:401AC00021FA02F10CE002F11402D8BFC2F1200C01FA02F120FA0CFCDCBF41EA0C019040E41AA2BF01EB0451294330BD6FEA04041F3C1CDA0C340EDC04F11404C4F1200201
:401B000020FA04F001FA02F340EA030021FA04F345EA030130BDC4F10C04C4F1200220FA02F001FA04F340EA0300294630BD21FA04F0294630BD94F0000F83F4801306BF58
:401B400081F480110134013D4EE77FEA645C18BF7FEA655C29D094EA050F08BF90EA020F05D054EA000C04BF1946104630BD91EA030F1EBF0021002030BD5FEA545C05D1C5
:401B80004000494128BF41F0004130BD14F580043CBF01F5801130BD01F0004545F0FE4141F470014FF0000030BD7FEA645C1ABF194610467FEA655C1CBF0B46024650EA0E
:401BC000013406BF52EA033591EA030F41F4002130BD00BF90F0000F04BF0021704730B54FF4806404F132044FF000054FF0000150E700BF90F0000F04BF0021704730B5FE
:401C00004FF4806404F1320410F0004548BF40424FF000013EE700BF42004FEAE2014FEA31014FEA02701FBF12F07F4393F07F4F81F06051704792F0000F14BF93F07F4F6B
:401C4000704730B54FF4607401F0004521F0004120E700BF50EA010208BF704730B54FF000050AE050EA010208BF704730B511F0004502D5404261EB41014FF4806404F1AC
:401C800032045FEA915C3FF4DCAE4FF003025FEADC0C18BF03325FEADC0C18BF033202EBDC02C2F1200300FA03FC20FA02F001FA03FE40EA0E0021FA02F11444C1E600BF97
:401CC00070B54FF0FF0C4CF4E06C1CEA11541DBF1CEA135594EA0C0F95EA0C0F00F0DEF82C4481EA030621EA4C5123EA4C5350EA013518BF52EA033541F4801143F48013B8
:401D000038D0A0FB02CE4FF00005E1FB02E506F00042E0FB03E54FF00006E1FB03569CF0000F18BF4EF0010EA4F1FF04B6F5007F64F5407404D25FEA4E0E6D4146EB0606C0
:401D400042EAC62141EA55514FEAC52040EA5E504FEACE2EB4F1FD0C88BFBCF5E06F1ED8BEF1004F08BF5FEA500E50F1000041EB045170BD06F0004646EA010140EA020074
:401D800081EA0301B4EB5C04C2BFD4EB0C0541EA045170BD41F480114FF0000E013C00F3AB8014F1360FDEBF002001F0004170BDC4F10004203C35DA0C341BDC04F114047B
:401DC000C4F1200500FA05F320FA04F001FA05F240EA020001F0004221F0004110EBD37021FA04F642EB06015EEA430E08BF20EAD37070BDC4F10C04C4F1200500FA04F375
:401E000020FA05F001FA04F240EA020001F0004110EBD37041F100015EEA430E08BF20EAD37070BDC4F1200500FA05F24EEA020E20FA04F301FA05F243EA020321FA04F0A2
:401E400001F0004121FA04F220EA020000EBD3705EEA430E08BF20EAD37070BD94F0000F0FD101F00046400041EB010111F4801F08BF013CF7D041EA060195F0000F18BFE7
:401E8000704703F00046520043EB030313F4801F08BF013DF7D043EA0603704794EA0C0F0CEA135518BF95EA0C0F0CD050EA410618BF52EA4306D1D181EA030101F00041E9
:401EC0004FF0000070BD50EA410606BF1046194652EA430619D094EA0C0F02D150EA013613D195EA0C0F05D152EA03361CBF104619460AD181EA030101F0004141F0FE41EB
:401F000041F470014FF0000070BD41F0FE4141F4780170BD70B54FF0FF0C4CF4E06C1CEA11541DBF1CEA135594EA0C0F95EA0C0F00F0A7F8A4EB050481EA030E52EA03354A
:401F40004FEA013100F088804FEA03334FF0805545EA131343EA12634FEA022245EA111545EA10654FEA00260EF000419D4208BF964244F1FD0404F5407402D25B084FEABF
:401F80003202B61A65EB03055B084FEA32024FF480104FF4002CB6EB020E75EB030E22BFB61A754640EA0C005B084FEA3202B6EB020E75EB030E22BFB61A754640EA5C000B
:401FC0005B084FEA3202B6EB020E75EB030E22BFB61A754640EA9C005B084FEA3202B6EB020E75EB030E22BFB61A754640EADC0055EA060E18D04FEA051545EA16754FEAD8
:4020000006164FEAC30343EA52734FEAC2025FEA1C1CC0D111F4801F0BD141EA00014FF000004FF0004CB6E711F4801F04BF01430020B4F1FD0C88BFBCF5E06F3FF6AFAE1F
:40204000B5EB030C04BFB6EB020C5FEA500C50F1000041EB045170BD0EF0004E4EEA113114EB5C04C2BFD4EB0C0541EA045170BD41F480114FF0000E013C90E645EA060E7F
:402080008DE60CEA135594EA0C0F08BF95EA0C0F3FF43BAF94EA0C0F0AD150EA01347FF434AF95EA0C0F7FF425AF104619462CE795EA0C0F06D152EA03353FF4FDAE10463D
:4020C000194622E750EA410618BF52EA43067FF4C5AE50EA41047FF40DAF52EA43057FF4EBAE12E74FEA410212F5001215D211D56FF47873B3EB625212D94FEAC12343F041
:40210000004343EA505311F0004F23FA02F018BF404270474FF00000704750EA013005D111F0004008BF6FF0004070474FF00000704700BF014B1868704700BF9481FF1F5E
:402140000E4B70B51E460E4C0025E41AA410A54204D056F8253098470135F8E700F04EF8084B094C1E46E41AA4100025A54204D056F8253098470135F8E770BD0822000038
:4021800008220000082200001022000010B5431E0A44914204D011F8014B03F8014FF8E710BD03460244934202D003F8011BFAE7704700000000000040510040300000004C
:4021C0000140001000140140800200170140000500400140000A004C01400002005001402000000060520040C00E0048060080160140C80E0048800043000000F8B500BF5D
:40220000F8BC08BC9E4670474D00000039070000F8B500BFF8BC08BC9E4670472900000030220000C880FF1FD0000000780000000000000001000000010000003030303094
:40224000303030303030303030303030303030303030303030303030303030305752452C30382C30382C30382C30382C30382C30382C30382C30382C30382C460800000082
:402280007F800000030000000000E02EC05D00001800000000366E01FFFFFFFF0000000000000000000000000000000000000000000000000000000000000000F82100001F
:4022C0000000000000000000000000000000000000000000000000000000000000000000000000000000000000000000000000000000000000000000000000003481FF1F0B
:40230000000000000000000000000000000000000000000000000000000000000000000000000000000000000000000000000000000000000000000000000000000000009D
:40234000000000000000000000000000000000000000000000000000000000000000000000000000000000000000000000000000000000000000000000000000000000005D
:40238000000000000000000000000000000000000000000000000000000000000000000000000000000000000000000000000000000000000000000000000000000000001D
:4023C00000000000000000000000000000000000000000000000000000000000000000000000000000000000000000000000000000000000000000000000000000000000DD
:020000040003F7
:0200000480007A
:4000000005520040015B004008640040056500404B0001403B0101404D0201403E0301404C040140450501404F0601404D070140470801403C090140430A01403B0B0140AA
:400040004E0C01404C0D0140200E0140390F0140611401404C15014016160140471701404E18014049190140631A0140571B01400A4001400B4101400C4201400643014003
:4000800009460140024701400F48014016490140014C01400B4D01400A500140025101400019010518AC19CA79012784810D830D840F850D880D8A0D8B0D8F04850D870DED
:4000C000883889728B0D07020B100F041101190221082602270829042E012F0130013402371F39803F404050410149FF4AFF4BFF4DA04F045018580459045A045D025F011D
:40010000604062C06440654066C068C06AC06CC06EC08E029401A601AE02B001B402BE10C040C101C5D0C610C720C82AC9FFCAFFCBFFCDAFCE0FCF04D018D405D804D9042A
:40014000DA04DB04DC02DD22DF01E040E2C0E440E540E6C0E8C0EAC0ECC0EEC000220540070208800A440E20100411441280161218401A4C1B201E882002230128A2291029
:400180002C022FA03006328033A03480382039C43B013C403F1142024602470249404D02551056125D025E8880028140828084048504860487108C80C08AC22BC4AFCADFE1
:4001C000CC1FCEBFD098D208D6D0E080E209E408E6070B020C0F100F140E1601180F1C0B1D011E04200722082301260F3002310132013404350236084060410449FF4AFF09
:400200004BFF4DA04F0450185280580459045A045B045C205D225F01604062C06440654066C068C06AC06CC06EC087019301B301BF04C060C104C5D0C601C720C826C9FFDB
:40024000CAFFCBFFCDAFCE0FCF04D018D405D804D904DA04DB04DD22DF01E040E2C0E440E540E6C0E8C0EAC0ECC0EEC00042044008800A040B800C470E04104412C014A066
:400280001C081F8622042610274028A52C80310232803320364038483D2041024502480849024C0C50C0510259025A085B407680842590409204938098849D40A003A11011
:4002C000A280A320A610A830AC12AF40B440B510C089C2FBC43ACA8FCC1DCE2AD081D224D60BE408EA8CEE04200132013E044030410249FF4AFF4BFF4DA04F04501854014A
:40030000580459045A045B045D125F01604062C06440654066C068C06AC06CC06EC0830186018B089302960197029E049F08A202AB04AD01B004B101B202B308B401B502AD
:40034000B704BE10C030C102C5D0C620C710C82AC9FFCAFFCBFFCDAFCE0FCF04D018D405D804D904DA04DB04DC22DD22DF01E040E2C0E440E540E6C0E8C0EAC0ECC0EEC005
:40038000014003A0062008640BC40E200F0212801302168019041E241F092668278028802A402B202C082F0130043380354037093B843D203F024120430C452047044D0158
:4003C000552056205701581059045A805B025D015E045F80820886208C4890809380940898649AC09B089D40A001A110A320A640AF02B30CB780C02DC2AFC418CA3BCCDAFF
:40040000CEAAD066D6DFEAC0EE010202030106010D010E0116041E041F01210125012B012D0130013101320436024005474049FF4A074BFF4C404D204EF04F055008528061
:40044000580459045A045B045C025D215F01604061A8624063208406870188068C048D019301960199019E02AE08AF01B201B408B606B701B880BE40BF40C054C102C5E0DF
:40048000C6B0C70CC81AC9FFCAFFCBFFCEF0CF44D00CD280D804D904DA04DB04DC02DD21DF01E6C0EA40EB020064022003020488078009400B200E200F0210021410150824
:4004C00018081A201B401C101D401F012240260228842A402B202C042D482FA03220338A344039193B803C023D013F40400442804A804B804F805124554056C15C805D40B0
:400500007002778084108740884089108A028C109080934094089540968098449C909D40A001A210A321A680A780AF01C0B7C2A5C401CAFFCC1FCE9FD005D218E210E62090
:40054000EA02000807010A0212041A081B041F04220127022A0230083102320433013401350436023F1052805405580459045B045C225D205F0182018B018F0297089B043B
:40058000A301A601A708B302B501B601B70CBE40BF50C063C104C205C401C50CC6E0C809C9FFCAFFCBFFCC62CDA0CEF0CF41D00CD280D804D904DA04DB04DC20DD21DF0151
:4005C000E640E702E910EA30EB10ED10EE10EF120002011204100740089809050C020E0410601140164819801C041D081EA1201123042604274828202B402E042F10312082
:400600003204369038203B403E08400142404308482149204C014D4050105E805F09734074029002941495509A489C10A105A301A604AD08B584C05AC25FC45DCA43CC3622
:40064000CE4CD00BD20CD6D04030410249FF4AFF4BFF4DA04F0450185405580459045A045B045D225F01604062C06440654066C068C06AC06CC06EC0820884088A04960402
:400680009802A201AA02B002B201B404B608BE10C030C102C5D0C620C701C81AC9FFCAFFCBFFCDAFCE0FCF04D018D280D405D804D904DA04DB04DC02DD22DF01E040E2C041
:4006C000E440E540E6C0E8C0EAC0ECC0EEC0011003400414064008480E080F201090114016881D481E44284829802A022C802F8030103380341835803740380239103D52A5
:400700003E023F0240304120442045204D0155205608571059415A085D015E44768090029208980899019A429B40A380A508B001B240C07AC265C45DCA8DCC7CCEB5D066BA
:40074000D6DBEE810704090117022A012D01310433013601370239083F044030410649FF4AFF4BFF4DA04F04501852035302580459045A045B045D025F01604062C06440F6
:40078000654066C068C06AC06CC06EC0800187048E0197049901A202AF03B304B502B603B701BF04C060C103C5D0C601C702C816C9FFCAFFCBFFCDAFCE0FCF04D018D401CF
:4007C000D804D90CDA04DB0CDC09DD02DF01E040E2C0E440E540E6C0E8C0EAC0ECC0EEC000020180060207400E220F80128015041688170819801E021F8020022120224458
:4008000024222540274029822B402C012D042F803128320835023610374438283B203D903E864308450849014A084C045004524053085A806D106F027B02840885029204F9
:400840009402951097209A0A9B0C9C089F40A290A401A601A702AA44AC80B001B508B602C099C2B0C478CAD8CCF6CEF2D042D224D608DE08E840EA805608580459045B0452
:400880005D905F0180108220860488408A808C0490809240960298089E019F01A002A420A610A801AE08B0FFB501BE01D602D739D804D904DB0CDF01010A0482050A0708BE
:4008C000082C0C800D400EAA1080114013081540160817461E4025202708280829082C042D0A3120334036513708380239803B083D4058405D10628067206C406E8C6F0409
:40090000760877027F028041820884208610870E88408F40C0FCC2F6C4FDCAE6CCFCCE1BD628D848DE10E080E21002010503060107040D0A0F04131014021503170C1903C3
:400940001B04260227102A082B082E042F0530013208330F3404360237103B283F404010410349FF4AFF4BFF4DA04F0450185280580459045A045B045C125D225F0160409C
:4009800062C06440654066C068C06AC06CC06EC0830686048A048E01930494019E02AA02AF01B001B204B304B402B502B701BE10C010C102C5D0C712C832C9FFCAFFCBFF3B
:4009C000CDAFCE0FCF04D018D280D405D804D904DA04DB04DC22DD22DF01E040E2C0E440E540E6C0E8C0EAC0ECC0EEC0010803400428060107080A200D800E201208134820
:400A000016041808194A1E98202A210825802610272229182A402E803108322033023702384039083D0241804308458046044F015501560557085E885F017340768081088F
:400A40008320840589028A088E108F42906091089220940899109A409D40A220A410A940AB04AE02AF80B004B204C0ECC2A4C447CA1ECC87CE8AD03AD6D0E2A0E40EE61066
:400A8000E810EE0C4060410249FF4AFF4BFF4DA04F045018580459045A045D025F01604062C06440654066C068C06AC06CC06EC00064050806020A040B100C040E200F0834
:400AC000124514021511184019141A842004222429102A402D102E023120324434023508361038043A013B803C023D013F084308460449014B104C044F1050105204531847
:400B0000594583018D08911892209382944495409720980699089A41A001A120A410A780AC02AF48B001C0A7C266C4DBCAACCCEECECBD022D224D60BE208EA08EC022101D1
:400B400033013F044030410449FF4AFF4BFF4DA04F04501854185604580459045A045B045D125F01604062C06440654066C068C06AC06CC06EC080C084FC860188E78A1886
:400B80008E0490FF944498809C3C9EC2A010A408A818AEC3B020B4D8B61FBAA0BE01C030C101C5D0C612C80EC9FFCAFFCBFFCDAFCE0FCF04D018D602D713D804D904DA0458
:400BC000DB04DC01DD12DF01E040E2C0E440E540E6C0E8C0EAC0ECC0EEC0008401210402054008020A690C400E08108013681488162019211A011B202420288829402B0147
:400C00002F8030503110380239103A204148450846404B01514052D0531059015F02658067846810696070807328874089218B488D108E049002930495109648972198C81B
:400C400099809C309D22A108A301A520A680A748AC80AE01B040C09FC2CFC47FCA8DCC0CCE05D0CAD681D8B0E040E8800222040C06320703080109F80F03103E140115920C
:400C80001728183219031A0C1C0E1E301F032008212323C0240425492734280C29F82C012D03300E310432013318342C35E03610370338803A204060410249FF4AFF4BFF27
:400CC0004DA04F045018580459045A045C115D025F01604062C06440654066C068C06AC06CC06EC086028B019602A101A601B101B402B601C060C103C5D0C610C702C81A1E
:400D0000C9FFCAFFCBFFCDAFCE0FCF04D018D280D405D804D904DA04DB04DC22DD22DF01E040E2C0E440E540E6C0E8C0EAC0ECC0EEC00024012002400340061008520A0124
:400D40000B100D081080114013281620180419021B481F9020802120220423022440282229212F80305032043320380439203A403B103E20420845044A0C4E084F0155042C
:400D8000562857105C485F017402812182048348840A88028B108C208D048E108F1091609201940496289A109B289C229D029F02A090A108A320A440A520A748A808AF01DB
:400DC000B220B380B410C02EC22FC42FCA8FCC0ECE2ED044D224D6D0E230E6C0E890EC80128016803380358038083E808A80C430CC30CE605280544258105D0284109408C8
:400E00009D80B380D4E0D6A0E640800286089D80A440A804AC02B280B502E220E640EA10EE8088408D209A089D80A002A4401810272094109F20A810B320C608C801EE048E
:400E40004402D0042408594081088580938099209A089D80A002AF40C820D480E210E620EA10534054025608588059085F01620265208202888089408F01938099289A0897
:400E80009D40A002B404D4E0D6E0D8C0E2809C02128075018E809901B402B501C408DE04E202E808EC020007010108050A070C070E050F0110071A071C07000F100A00008C
:400EC000808000004000000000100040110C0E71110006000C1013AC000000000000400300140C0000DC00222000030000000000000940D0000008200F00401F30E0000091
:400F000020000220000004006003000000D010021AFFFFFF00AF0F04180000000500000004040404112200014000C0004040C000C000C000C000C0000000000000000000AC
:400F4000000000000000000000000000001F1F008000408080008000000000002021010001000000000B0B0000000000007F7F000000000000FFFF00FF000000000100009E
:400F80000000000000000000000000000000000000000000000000000000000000000000000000000000000000000000000000000000000000000000000000000000000031
:400FC00000000000000000000000000000000000000000000000000000000000000000000000000000000000000000000000000000000000000000000000000000000000F1
:4010000000000000000000000000000000000000000000000000000000000000000000000000000000000000000000000000000000000000000000000000000000000000B0
:401040000000000000000000000000000000000000000000000000000000000000000000000000000000000000000000000000000000000000000000000000000000000070
:0200000490006A
:0400000000004005B7
:0200000490105A
:04000000BC90ACAF55
:0200000490303A
:02000000BB72D1
:0200000490402A
:4000000000000000000000000000000000000000000000000000000000000000000000000000000000000000000000000000000000000000000000000000000000000000C0
:400040000000000000000000000000000000000000000000000000000000000000000000000000000000000000000000000000000000000000000000000000000000000080
:400080000000000000000000000000000000000000000000000000000000000000000000000000000000000000000000000000000000000000000000000000000000000040
:4000C0000000000000000000000000000000000000000000000000000000000000000000000000000000000000000000000000000000000000000000000000000000000000
:0200000490501A
:0C00000000012E16106900012E28CBDB39
:00000001FF