:400000000080002011000000BD040000BD04000008B5044B1A6803F53F5302331A6000F06DFA00BFFA46004010B5054C237833B9044B13B10448AFF300800123237010BD8E
:400040005881FF1F000000001C2A0000084B10B51BB108490848AFF300800848036803B910BD074B002BFBD0BDE81040184700BF000000005C81FF1F1C2A0000C880FF1F56
:400080000000000008B50A4B1B680E2B08DC6822084B1A70084801F0DDFE642000F08AFF01F014FF01F02CFF01F0D0FF08BD00BF7481FF1FCC80FF1F202A000010B5144BBF
:4000C0001B78682B11D0732B1CD1282000F088FF104B1A6801321A600F4C1049204602F079F8204601F0B6FE0CE00A4A136801331360012001F058FF642000F05BFF0020E4
:4001000001F052FF01F0D2FF01F0C4FE10BD00BFCC80FF1F7481FF1FEC81FF1F3C2A000008B562B601F07CFE00F08CFA0121454800F06CFC444801F07BFF01F087FF434858
:4001400001F0A6FF01F0B2FF01F0A4FE404B1B78692B04D0732B24D0682BF7D13EE000F0D1FB01F05DFE3B4801F074FE642000F021FF01F0B3FA8021002001F0E1FC01F083
:40018000B9FB002001F028FF00F026FC01F048FE314801F05FFE01F0F9FE73222C4B1A70D4E72E4B1B680E2BD0DD6922284B1A7001F08CFE012001F003FF012001F00CFFF4
:4001C000274801F047FE4FF4FA7000F0F3FE002001F0F6FE0022214B1A60B7E700F092FB01F07CFA01F0A0FD01F084FB00F0F4FB01F016FE194C1B4D22681B49284601F041
:40020000E9FF284601F026FE322000F0D3FE23680E2B9BDD69220E4B1A70012001F0D0FE012001F0D9FE01F0FBFD0D4801F012FE4FF4FA7000F0BEFE002001F0C1FE002243
:40024000226083E7E881FF1F85000000BD000000CC80FF1F582A00006C2A00007481FF1F802A0000EC81FF1F942A0000FEE700BFF0B40022174611E050F82760F3B226F0FF
:40028000FF0608E001EB420511F812406D78A5550132013BDBB2002BF4D10137132FEBD9F0BC7047064B1B78DBB203F00701054A11701B09013213704422034B1A7070474C
:4002C000CF0100496E5800407658004008B50A46002101F076FF08BD38B54FF49C72274B1A801823264A137045F6BF5102321180023213700222234B1A7008224FF0402351
:400300001A70032103F5007319701F4B1B78DBB21E490B701E4B1A8041F25122023B1A80002419250CE01B4B1B7803F0010343EA440404F003044FF4F07001F0BDFE013DF4
:400340000DB1032CEFD115B90320FFF78FFF124B4FF480721A8007221A7000220F490A704820023108701A700222033B1A700C4A137843F00303137038BD00BF80400040AE
:40038000824000400043004008010049A146004022420040254200400440004006400040A243004008B501F001FF08BD38B572B6334A137843F00403137000240CE0314DEA
:4003C000630019194A0011462A44084691882858FFF77CFF0134E4B2082CF0D900240BE02849A3001819420088180622C16B806BFFF7D8FF0134E4B2002CF1D022494FF095
:400400009040FFF735FF214A137843F0020313701032137843F0020313701D4C237843F040032370A2F58632513A137843F010031370082217491848FFF7B4FF0A2217492F
:400440001748FFF7AFFF082216491748FFF7AAFF164A137843F008031370154D61232B70FFF73AFF81232B700122124B1A70FFF719FF0E2221461048FFF794FF38BD00BF13
:40048000E8460040B02A00005000004803500140A0430040080400480251004010040048C05100401C04004812510040224300400048004004000840B043004008B501F0AC
:4004C00049FE03680C2B00D1FEE7FEE708B5094B1A681044084BC31A802B02DC054B186005E001F037FE0C2303604FF0FF32104608BD00BFD480FF1F4882FF1F08B5104EB4
:40050000104D16E029686B68AC68002204E051F8040B43F8040B0432A242F8D1E868002203E0002143F8041B04328242F9D11035013E002EE6D101F013FEFFF7F1FDFEE79D
:40054000010000005C2B000008B5104A104B1A60104A136843F40073136000230AE0032B03D80D4A52F8231000E00C490C4A42F8231001332F2BF2D90A4B1A780A4B1A7014
:40058000074A0A4B1A60FFF711FF08BD0004FA050CED00E014ED00E000000000BD0400000080FF1FBC760040C080FF1F08ED00E070B5C123124A13700E3A13700126114B59
:4005C0001E700F2511331D70002401331C704FF400420D4B1A600721284600F01DFE0B49284600F005FE1022094B1A70094B1C70094B1C70094B1C70304600F0FFF970BD9C
:40060000D6490040CA49004080E100E06D0600002C82FF1F3182FF1F3082FF1F3282FF1F08B501F051FD064A137843F0040313701032137843F00403137001F049FD08BDFB
:40064000A543004008B5074B1B7823B9FFF7B0FF0122044B1A70FFF7E3FF4FF40042024B1A6008BD7881FF1F00E100E008B5724B1B78DAB2714B1B7813F0400F40F0DB80AD
:400680006E4B1B7813F0100F00F0D28012F0200F03D102F00903092B15D1684B1B78DBB2112B10D166490B7803F0EF030B70654B197801F0DF011970197841F010011970F4
:4006C00010215E4B197012F0010F00F0B48012F0080F42D05C4B1B7813F0010F2CD05B4B1A78D2B25A4B1B78DBB29A4215D2574A1378DBB257490968CB5CDBB252490B7015
:4007000014214D4B197013780133DBB213704D4A137843F0020313700AE0FF224A4B1A701422013B1A70474A137843F0060313701222424B1A7008BD10223F4B1A7011222D
:400740003E4B1A703F4A137843F0200313703C4A137843F01003137008BD384B1B78DBB2112B21D13C4B1A78D2B23C4B1B78DBB29A4210D2344B1978C9B21022013B1A7084
:40078000354A1378DBB236480068C15413780133DBB2137008BD0022274B1A70294A137843F04003137008BD244B1B78DBB2122B3AD112F0020F24D1244B1A78D2B2244B66
:4007C0001B78DBB29A4210D2204A1378DBB221490968CB5CDBB21C490B700421164B197013780133DBB2137008BDFF22164B1A700422013B1A70134A137843F004031370EA
:4008000008BDFF22104B1A700022013B1A700D4B1A7802F0FD021A701A7842F001021A701022064B1A7008BD002000F0B5FA08BD1022024B1A7008BDD74900402C82FF1FFF
:40084000D64900403182FF1FD84900403082FF1F3382FF1F3C82FF1F3282FF1F3482FF1F3882FF1F0122014B1A7070472D82FF1F10B5194A1178194B9970194C2178597088
:4008800018490978D9701849097819711749097859711378DBB2137001F016FC144A137843F00403137001F013FC237843F0100323700B4B1B7813F0200FFAD04FF40044D2
:4008C0000C4B1C600C490F2000F092FC00220B4B1A700B4B1C6010BDD6490040D880FF1FC8490040CA490040DB490040DC4900403143004080E100E0650800002D82FF1F11
:4009000000E100E008B50022024B1A70FFF7B0FF08BD00BFD880FF1F08B5244B1B7813F0040F0DD001F0D0FB204A137803F0FB03137001F0CDFB1E4B9A781E4B1A701FE0A4
:4009400001F0C2FB1C4A137803F0FB0313701032137803F0FB03137001F0BAFB144B01221A705978154A117099780E321170D9780C3A11701979113211705A79104B1A70C8
:400980004FF400420F4B1A600F490F2000F030FC0E4B1B7813F0FF0F03D04FF400420C4B1A604FF400420B4B1A6008BD31430040D880FF1FD6490040A5430040C8490040F9
:4009C000DC49004080E100E06D0600002D82FF1F00E200E000E100E008B5FFF79DFF054B1B782BB1FFF71CFE4FF40042024B1A6008BD00BFD880FF1F00E100E000F07F00FA
:400A0000014B1870704700BFCA490040024660B14FF400430548036005480260054A11700021054A1170054A1360704780E100E03882FF1F3482FF1F3282FF1F00E100E021
:400A40000E4B1B7813F0070F04D10D4B1B7813F0010F0CD1094B1B7803F00703012B08D1084B1B7813F0010F05D10020704701207047002070470120704700BF93430040D6
:400A8000A5430040B54300400C4A137803F0F003137000220A4B1A700A4A137843F080031370C2B2084B1A70000A01331870074A137843F001031370704700BF14400040BC
:400AC00010400040084000400240004001400040024A137803F0FE031370704720420040054A137803F0EF0313701032137803F0EF031370704700BFA0430040024A13784D
:400B000043F010031370704700420040024A137803F0EF031370704700420040044A137803F0FC0300F0030018431070704700BF05400040014B1870704700BF04400040D9
:400B400070B5054601F0C0FA0646164B1A78013B1B7843EA022305B1EBB9134B1C78E4B2062C02D80720FFF7E5FF45B90F4A137843F0400313702846FFF786FF07E02846F2
:400B8000FFF782FF094A137803F0BF0313702046FFF7D0FF02E02846FFF776FF304601F097FA70BD074000400440004008400040024A137843F0020313707047004300403E
:400BC000024A137843F004031370704700430040024A137803F0FB031370704700430040F8B5194A137843F00103137048B3174B1C7804F00404E4B280331F78FFB202339A
:400C00001E78F6B2182001F0ADF809E0104B1B7813F0010F04D00E4B1B7813F0010F07D1012001F087F810F0010FEFD0102500E000250CB9FFF7CCFF064B1F7002331E7050
:400C400000E000252846F8BD20420040004300402542004080430040144A137843F0100313701032137843F010031370E0B170B50F4B1C7804F00404E4B280331E78F6B20E
:400C800002331D78EDB2002001F06CF8012001F051F810F0010FF9D00CB9FFF799FF054B1E7002331D7070BD704700BFA04300400043004080430040074B1B78DBB220B1A0
:400CC00043F0100204490A7003E003F0EF0202490A70C3F30010704700430040F0B583B08DF80700254A137843F001031370002840D0234B1E78F6B280331D78EDB2023344
:400D00001C78E4B2182001F02DF821E01B4B1B7804238DF806300BE0012001F00BF810F0010FF9D09DF80630013BDBB28DF806309DF8063013F0FF0FEED1104B1B7813F0AB
:400D4000800F0CD09DF80730013BDBB28DF807309DF8073013F0FF0FD8D1102700E0002716F0040F01D1FFF733FF064B1D7002331C7000E00027384603B0F0BD10420040CA
:400D80000043004080430040024A137803F0FE03137070471042004001BE704710B50446FFF74EFE012804D1254A137803F0FD031370082C3FD8DFE804F0050B11171D2363
:400DC000293E2F001F4B1B78DBB21F4A137010BD1E4B1B78DBB21C4A137010BD1C4B1B78DBB2194A137010BD1A4B1B78DBB2164A137010BD184B1B78DBB2134A137010BD3C
:400E0000164B1B78DBB2104A137010BD144B1B78DBB20D4A137010BD124B1B78DBB20A4A137001280AD102F5CB520832137843F00203137010BD0020FFF7AEFF10BD00BF59
:400E40000960004008010049A1460040090100490A0100490B010049890100490C0100490D0100490F01004970B506463A4B1C7804F00704082801D1032500E00546062C6B
:400E80000BD8DFE804F0040D06080D0D0D00022406E0032404E0002402E00020FFF77CFFAC4202D83046FFF779FF082E44D8DFE806F0050D151B232B33433B00264A1378A9
:400EC00003F0B80343F00303137038E0224A137803F0B80343F00103137030E01E4A137803F0B80313702AE01B4A137803F0B80343F00203137022E0174A137803F0B803DE
:400F000043F0040313701AE0134A137803F0B80343F00503137012E00F4A137803F0B80343F0060313700AE00B4A137803F0B80343F04203137002E00020FFF72DFF082E96
:400F400002D1FFF7DBFD01E0FFF7E0FDAC4202D93046FFF723FF70BD0042004008B501280FD0D8B102281FD14FF04022137803F0BF03137002F50072137843F0200313707D
:400F800008BD4FF04022137843F04003137002F50072137843F02003137008BD044A137803F0DF03137008BD0020FFF7F5FE08BD0042004010B5044605E0084B186801F0B7
:400FC0007BF8A4F50044B4F5004FF6D8034B586800FB04F001F070F810BD00BFE080FF1F08B5034B1B7A00FB03F001F065F808BDE080FF1F38B5054601F066F8064B1978F3
:40100000064A13780B4303F0070423EA0503137001F05EF8204638BDFA4600407C81FF1F2DE9F0410746884601F04EF806461A4B1C6804F00104012580331D60174A1378AB
:4010400003F0BF031370033A137808F00F0103F0F00319431170013213782B4313702846FFF7BEFF2846FFF7C5FF2FB10B4A137843F04003137004E0084A137803F0BF037E
:4010800013700122064B1A60A3F5C0731C60304601F01EF8BDE8F08100E100E0F746004080E200E0F8B507460C4601F00DF80646194B1D6805F00105012080331860174A46
:4010C000137803F07F0313702101C9B2033A137803F00F03194311700132137843F002031370FFF77DFF0220FFF784FF2FB10B4A137843F08003137004E0084A137803F0F3
:401100007F0313700122064B1A60A3F5C0731D60304600F0DDFFF8BD00E100E0F746004080E200E008B50A4A137803F0FE0313700232137803F0BF0313700120FFF75AFF83
:401140000120FFF757FF10F0010FF9D108BD00BFF546004008B5084A137803F0FD0313700232137803F07F0313700220FFF742FF10F0020FF9D108BDF5460040F8B500F051
:40118000A3FF07460E4E346804F0010401250D4B1D600D4A137803F07F031370023A137843F0040313702846FFF71AFF0420FFF721FF064B1D603460384600F089FFF8BD32
:4011C00000E100E080E100E0F746004080E200E008B5064A137803F0FB0313700420FFF709FF10F0040FF9D108BD00BFF546004070B504460E46074B1D681F2802D9002048
:40120000FFF7CAFD04F01F04103455F8240045F8246070BD08ED00E038B504460D46072902D90020FFF7B8FD1F2C02D90020FFF7B3FD04F01F0000F1604000F564406D016B
:40124000EDB2057038BD00BF2DE9F04FDFF8BCA19AF80020554B9A72DFF8B49199F80020DA72534A12781A73524A12785A73524A12789A73514A1278DA73514A12781A74A7
:40128000504A12785A74504A12789A744F4A1278DA744F4A12781A754E4A12785A754E4A12789A754D4A1278DA754D4A12781A764C4A12785A764C4A12789A76DFF854B1A8
:4012C0009BF80020DA76DFF8508198F800201A77DFF848C19CF800205A77DFF844E19EF800209A77414F3A78DA77414E327883F82020404D2A7883F821203F4C227883F8C8
:4013000022203E48027883F823203D490A7883F824203C4A127883F8252000238AF8003089F80030224A137001321370023213700232137002321370063213700232137054
:4013400001321370013213700232137002321370023213700632137002321370013213708BF8003088F800308CF800308EF800303B7033702B70237003700B7017321370B1
:40138000214B1B7813F0080F0AD00122074B83F82F201D4A137803F0F7031370BDE8F08F0022024B83F82F20BDE8F08F9881FF1F035A0040045A0040065A0040085A004064
:4013C0000A5A0040105A0040125A0040135A0040145A0040165A0040185A00401A5A0040205A0040225A0040235A0040305A0040325A0040335A0040345A0040365A00404E
:40140000385A00403A5A004022430040005A0040025A0040245A0040265A0040285A00402A5A0040334B997A334A1170D97A02321170197B01321170597B01321170997BAC
:4014400002321170D97B02321170197C02321170597C06321170997C02321170D97C01321170197D01321170597D02321170997D02321170D97D02321170197E0632117008
:40148000597E02321170997E01321170D97E01321170197F02321170597F02321170997F02321170D97F0632117093F820100232117093F821100132117093F82210013242
:4014C000117093F823100232117093F824100232117093F825100232117093F82F30012B06D1A2F5B852183A137843F008031370704700BF9881FF1F005A004008B5234B71
:401500001B7813F0010F12D0214B012283F82620204A127802F00F0283F827201E4A1278C2F3801283F82B20FFF7FCFD03E00022174B83F82620154B1B7813F0020F10D01D
:40154000134B012283F82820124A1278120983F82920114A1278D20983F82C20FFF7FAFD03E000220A4B83F82820084B1B7813F0040F06D00122064B83F82A20FFF728FEAA
:4015800008BD0022024B83F82A2008BDF54600409881FF1FF4460040F746004010B51E4B1B7813F0040F04D01B4A137803F0FB0313700120FFF780FB184B187018490A7855
:4015C000C2F340025A700A78C2F380029A70154B1B7813F0100F08D10022104BDA70114A137843F01003137002E001220B4BDA70FFF784FFFFF728FE0B480278074BDA715F
:401600000A490A781A720A4A14785C72FF230370B0200870137010BD314300409881FF1F004300408346004085460040864600408A46004008B5104B93F82630012B06D1D4
:401640000D4B93F8271093F82B00FFF7E9FC0A4B93F82830012B06D1074B93F8291093F82C00FFF71FFD044B93F82A30012B01D1FFF784FD08BD00BF9881FF1F10B5FFF786
:40168000D9FFFFF7CFFE114B5B78012B01D1FFF78FFA0E4B9B78012B01D1FFF791FA0B4C2078FFF709FBE37823B9094A137803F0EF031370054BD979064A1170197A013259
:4016C00011705A7A044B1A7010BD00BF9881FF1F83460040854600408A46004010B5784A1378784C03F00F0384F83030764B197884F83110117801F0F00111701A7800226F
:401700001A7003F25E431B7803F0C00384F83530372000F0E1FC6D4B1A7802F0070284F833201A7802F0400284F834201B7813F0100F03D0012284F8392003E00022614B60
:4017400083F83920624B1B7803F003035D4A82F83230012B19D14FF040231B7803F00303012B07D013B1022B08D00BE00020FFF7D5F90AE00220FFF7D1F906E00320FFF72F
:40178000CDF902E00020FFF707FB524B1B7813F0010F06D001224B4B83F83E20FFF798F903E00022474B83F83E200420FFF75CFB494B1B7813F0100F04D00122414B83F80F
:4017C000362008E000203F4B83F83600FFF744FA0620FFF705FC3D4B1B7813F0200F0FD04FF040231B7813F0400F01D1022200E00122344B83F837200020FFF7AFFB03E05F
:401800000022304B83F837204FF040231B7803F030032C4A82F838302BB14FF04022137803F0CF031370294B1B7813F0100F01D0FFF76CF9294B1B78DBB2224A82F83A30FD
:4018400013B10020FFF776F91E4B93F8323013B10020FFF763F9224B1B781B02194A9387204909780B43938713B10020FFF768F9164B1B7803F007031B4AD05C00F02CFCD2
:401880001A4B1B7813F0010F06D001220D4B83F83F20FFF779FA03E000220A4B83F83F20134B1B7813F0040F04D00122054B83F8402010BD0022034B83F8402010BD00BF88
:4018C000A14300409881FF1FA2430040004200400540004020420040A0430040044000400740004006400040F42A0000104200400B40004010B582B0854B53F8080F009017
:401900009A889B79ADF804208DF80630814B93F84030012B10D1804B1B7803F007037C4AD05C00EB8000C0EB001000F0C5FB7B4A137843F004031370764B93F83F30012B02
:401940001AD10020FFF7CAF9754B1B78052411E0714B1B7803F007036D4AD35CC82000FB03F000F0A9FB6E4B1B7813F0800F03D0013CA4B2002CEBD1372000F0ADFB654BCF
:4019800093F83230023BDBB2012B0ED8654B1B78DBB2604A92F83A00834201D0FFF7CAF85C4B93F83200FFF7B9F85A4B93F8343013F0400F0CD0574B93F8333002AA134472
:4019C00013F8083C032B03D10820FFF74DFA18E0504C94F8333002AA134413F8080CFFF743FA94F8343013F0400F05D04A4A137843F04003137004E0474A137803F0BF0375
:401A00001370444B93F83630012B07D1464B1B7813F0100F02D10020FFF71EF93D4C94F83700FFF79BFA94F83930012B01D1FFF765F8384B93F838304FF04022127802F0A9
:401A400030029A4206D04FF040210A7802F0CF0213430B702F4B93F83E30012B1AD10020FFF7BEF85020FFF7BBFA304B1B78AB240EE00120FFF7B4FA2C4B1B7813F0010FAE
:401A800004D02A4B1B7813F0010F03D1013CA4B2002CEED11F4B93F83230012B0ED8214B1B78DBB21B4A92F83A00834201D0FFF741F8184B93F83200FFF730F8154B93F8D9
:401AC000363033B9184B1B7813F0100F01D0FFF707F8174B1A78013B1B7843EA02230D4A908F834201D0FFF72BF812480278094B93F8351002F03F020A43027093F83010C7
:401B00000D4A117093F831200C4B1A7002B010BDF42A00009881FF1F004200400B4000401042004004400040A0430040254200400740004000480040A1430040A2430040F7
:401B400070B506460C4600F0BFFA0546334B1B7813F0080F06D1324A137803F01F03137036B102E000F0B4FA70BD0020FFF714F9FFF76AFB2B4A11782B4B1971C4F307112E
:401B8000117001321178597104F00F011170013211789971C4F300341470244B1B7813F0070F04D10122204B83F82E200DE01E49002381F82E301D4B1A7802F0070281F861
:401BC0002D201A7802F0F8021A70144A137803F0F80343F003031370137800BF00BF30BF114B93F82E30012B08D010490B780E4A92F82D2003F0F80313430B70FFF712FCEE
:401C0000094B1979074A11705979013211709A79074B1A70284600F05BFA70BD9343004083460040984300409881FF1F004200409A43004038B5044600F046FA0546334B57
:401C40001B7813F0080F22D1314A137803F01F031370FFF7A3FC2F490B782F4A1371C4F3071303F00403DBB20B702C4B1978517104F00F041C7001331978917100221A70F6
:401C8000A3F5CD731B7813F0070F03D007E000F01FFA38BD0122204B83F82E200DE01E49002381F82E301E4B1A7802F0070281F82D201A7802F0F8021A70144A137803F0A3
:401CC000F80343F004031370137800BF00BF30BF114B93F82E30012B08D011490B780E4A92F82D2003F0F80313430B70FFF7C6FC094B1979074A11705979013211709A7917
:401D0000084B1A70284600F0E3F938BD9343004083460040984300409881FF1F99430040004200409A43004008B54020FFF782FF08BD00BF38B5054600F0C6F9074B197889
:401D4000074A92F842300B4303F0070423EA050382F8423000F0BCF9204638BD904300409881FF1F38B50546134C237803F0FD032370FEF725FF237813F0010F0FD00F4BC7
:401D80001B78DBB2AB4216D0227802F0FE0222700A4A1570227842F00102227038BD074B1B78DBB29D4201D0044B1D70024A137843F00103137038BD824300408043004057
:401DC0007222084B1A70202203331A700622A3F5B1731A70472210331A7000224F331A70704700BF8865004010B500F06DF904460A4A137843F0200313700332137843F0EB
:401E000010031370A2F20312137843F01003137000F032F8204600F05BF910BD9865004008B5054B1B7823B9FFF7CAFF0122024B1A70FFF7D9FF08BDDB81FF1F034B1B781E
:401E400013F0040FFAD1024B18707047686400404864004038B5074B1B782BB938BDFFF7EDFF0134A4B201E005460024285D0028F5D138BDDB81FF1F054A137843F00103A2
:401E800013701032137843F001031370704700BFA2430040024B1878C0F34000704700BF80450040084A137843F0010313701032137843F00103137002F64D32137843F0DF
:401EC00001031370704700BFA3430040084A137803F0FE031370A2F65D32137803F0FE0313701032137803F0FE031370704700BF004F0040014B1870704700BF034F00401D
:401F0000014B1878704700BF034F0040014B1880704700BF044F0040014B1880704700BF064F004008B5164A137803F0010313700232137803F0FC031370124B1A7802F0AA
:401F4000CF021A701A7842F030021A701A7802F0F0021A701A7842F00F021A700A4A137843F00103137047F22F50FFF7CFFF47F22F50FFF7D1FF0820FFF7BCFF08BD00BF37
:401F8000004F00400B4F0040014F004008B5054B1B7823B9FFF7C6FF0122024B1A70FFF781FF08BDDD81FF1F044A137803F0F703C00000F0080018431070704700510040DF
:401FC000044A137803F0FB03800000F0040018431070704700510040044A137803F0FE0300F0010018431070704700BF00510040024B1B68C3F88400704700BF08ED00E086
:402000004001C0B2014B1870704700BF11E400E04FF40032014B1A60704700BF00E100E04FF40032014B1A60704700BF80E100E010B50446FFF7F4FF2046FFF7D9FF072017
:40204000FFF7DEFFFFF7E4FF10BD00BF4FF40032014B1A60704700BF80E200E0014B1B681865704708ED00E04001C0B2014B1870704700BF04E400E01022014B1A607047E9
:4020800000E100E01022014B1A60704780E100E010B50446FFF7F6FF2046FFF7DFFF0720FFF7E2FFFFF7E8FF10BD00BF1022014B1A60704780E200E00230800803D000BF97
:4020C00001380046FCD17047EFF3108072B6704780F31088704700BF38B50446FFF7F4FF05460F2C07D81A4A137803F01F0343F04003137028E0202C07D8154A137803F079
:402100001F0343F0800313701EE0312C07D8104A137803F01F0343F0C003137014E0422C05D80B4A137803F01F0313700CE0532C07D8074A137803F01F0343F020031370CC
:4021400002E00020FEF728FE2846FFF7C1FF38BD00480040014B1868704700BF5081FF1F0E4B70B51E460E4C0025E41AA410A54204D056F8253098470135F8E700F0DCFC43
:40218000084B094C1E46E41AA4100025A54204D056F8253098470135F8E770BD442B0000442B0000442B00004C2B000010B5431E0A44914204D011F8014B03F8014FF8E75F
:4021C00010BD03460244934202D003F8011BFAE7704700000EB400B54FF402719CB0ADF814106FF00041049107914FF6FF711DAB02900690084853F8042BADF8161000687C
:4022000002A9019300F064F8029B00221A701CB05DF804EB03B070475081FF1F2DE9F0478E6882469E420C46914698463ED88A8912F4906F3AD02568096902236F1A6569BC
:4022400005EB450595FBF3F57B1C43449D4238BF1D4653050FD5294600F040FB064698B13A462169FFF7A2FFA38923F4906343F08003A38113E02A4600F08EFB064670B9E8
:402280002169504600F0DEFA0C23CAF80030A3894FF0FF3043F04003A381BDE8F08726613E44266046466561ED1BA560464528BF464649463246206800F0A8FAA36800208D
:4022C0009B1BA36023681E442660BDE8F08700002DE9F04F9DB003938B8980461C060D4616460DD50B695BB9402100F0F7FA2860286118B90C23C8F80030CDE040236B612A
:402300000023099320238DF82930DFF89CB130238DF82A3037463C4614F8013B1BB9B7EB060910D003E0252BF9D02746F3E74B46324629464046FFF771FF013000F0A780CC
:40234000099B4B4409933B78002B00F0A08000234FF0FF3204930793059206938DF853301A930126052221784E4800F041FA671C049B38B14B4A3C46801A06FA00F0184348
:402380000490EFE7D90644BF20228DF853201A0744BF2B228DF8532022782A2A03D0079A00210A200BE0039A111D12680391002A10DA524243F00200079204900BE027465B
:4023C0003B780134303B092B03D800FB02320121F5E701B107923B782E2B1ED17B782A2B0AD1039B02371A1D1B680392002BB8BF4FF0FF33059310E0002319460593781C76
:402400000A2407463A780130303A092A03D804FB01210123F5E703B1059103223978224800F0E6F940B14023CBEB000003FA00F0049B013718430490397806221B487E1CB9
:402440008DF8281000F0D4F988B1194B33B9039B073323F007030833039314E003AB00932A46144B04A94046AFF3008007E003AB00932A460F4B04A9404600F093F8B0F1F9
:40248000FF3F824603D0099B5344099342E7AB895B0601D4099801E04FF0FF301DB0BDE8F08F00BF052B00000B2B00000F2B0000000000001D2200002DE9F04791461F46D1
:4024C0000A698B6806469342B8BF1346C9F8003091F843200C46DDF8208012B10133C9F800302368990642BFD9F800300233C9F80030256815F0060510D104F1190A07E02A
:402500000123524639463046C04701301AD00135E368D9F800209B1A9D42F1DB94F843302268003318BF012392060FD5E118302081F843005A1C94F845102244023382F852
:40254000431003E04FF0FF30BDE8F08704F1430239463046C0470130F4D02268D9F80050E36802F00602042A08BF5D1B2269A3680CBF25EAE57500259342C4BF9B1AED1812
:402580004FF000091A344D4509D00123224639463046C0470130D5D009F10109F3E70020BDE8F0872DE9F04317460A7E85B06E2A984606460C460C9B01F1430E00F0AE8023
:4025C00011D8632A22D009D8002A00F0BB80582A40F0CA8081F84520834955E0642A1ED0692A1CD0C0E0732A00F0B08009D86F2A2ED0702A40F0B8800A6842F020020A6060
:402600003EE0752A24D0782A3AD0ADE01A6801F14205111D1960136884F84230A8E021681A6811F0800F02D0111D196008E011F0400F02F10401196002D0B2F9003000E013
:402640001368002B3CDA2D225B4284F8432037E021681A6811F0800F02D0111D196007E011F0400F02F10401196001D0138800E01368227E5C496F2A14BF0A2208221BE037
:4026800078225A4984F845202268186812F0800F00F104051D6003D1550601D5038800E00368D00744BF42F0200222601BB9226822F0200222601022002084F8430001E059
:4026C00049490A226568002DA56008DB206820F0040020602BB9002D7DD175460CE0002B79D07546B3FBF2F002FB1033CB5C05F8013D03460028F5D1082A0BD12368DA0706
:4027000008D5236962689A42DEBF302305F8013C05F1FF35C5EB0E0323612EE008681A6810F0800F496903D0101D1860136808E010F0400F02F104001860136801D0198032
:4027400000E0196000232361754616E01A68111D1960156800216268284600F049F808B1401B6060636804E004F1420584F8422001232361002384F84330CDF800803B465B
:4027800003AA21463046FFF797FE013002D14FF0FF3026E023692A4639463046C0470130F5D023689B0710D5002504F1190907E001234A4639463046C0470130E7D001359B
:4027C000E368039A9B1A9D42F2DBE068039B9842B8BF184605E00B7804F1420584F842308AE705B0BDE8F083162B0000272B000010B5C9B202449042034605D01C7801305D
:402800008C42F8D1184610BD002010BD884210B501EB020301D8421E0BE09842FBD28118D21AD34204D013F8014D01F8014DF8E710BD994204D011F8014B02F8014FF8E7B7
:4028400010BD000038B50546002944D051F8043C0C1F002BB8BFE41800F0D4F81E4A1368114613B96360146030E0A3420DD92268A018834201BF18685B6812182260636077
:402880000C6023E0A24203D813465A68002AF9D118681918A1420BD12168014458188242196013D110685268014419605A600DE002D90C232B6009E021686018824201BF72
:4028C000106852680918216062605C602846BDE8384000F098B838BDE481FF1F70B5CD1C25F0030508350C2D38BF0C25002D064601DBA94202D90C23336046E000F082F80D
:40290000234B1C681A462146A1B10B685B1B0ED40B2B03D90B60CC18CD501EE08C420BBF63684B681360636018BF0C4615E00C464968E9E7174C23681BB9304600F052F896
:4029400020602946304600F04DF8431C18D0C41C24F00304A0420DD12560304600F053F804F10B00231D20F00700C31A0ED05A42E25070BD211A304600F034F80130EBD1BE
:402980000C233360304600F03EF8002070BD00BFE481FF1FE081FF1FF8B5074615460E4621B91146BDE8F840FFF798BF1AB9FFF749FF2846F8BD00F027F885420ED9294647
:4029C0003846FFF78BFF044650B131462A46FFF7EDFB31463846FFF735FF01E03046F8BD2046F8BD38B5064C0023054608462360FDF76CFD431C02D1236803B12B6038BDB7
:402A00004082FF1F7047704751F8040C0028BEBF091851F8043CC0180438704700000000456E746572696E67204869626572616E7465204D6F6465200A000000256420531C
:402A4000747564656E747320486176652041727269766564200A000057616974696E6720746F20496E6974200A000000526561647920746F20436F756E74200A0000000095
:402A8000416C6C2053747564656E74732048657265200A0025642053747564656E742041727269766564204C617465200A000000C84900401900004F00400C0020510040B2
:402AC0005000F0510040100000000140001000140140000800400140000A004C0140000200500140200000006052004000040048060000000C061803303E4A00020103004D
:402B00000405064300232D302B2000686C4C006566674546470030313233343536373839414243444546003031323334353637383961626364656600F8B500BFF8BC08BC6C
:402B40009E4670474D00000049050000F8B500BFF8BC08BC9E46704729000000702B0000C880FF1F90000000F0000000000000000000000069000000010000004882FF1FA4
:402B800000C1C1010F0000000000E02EC05D00001800000000366E010000000000000000000000000000000000000000000000000000000000000000032B0000000000006D
:402BC0000000000000000000000000000000000000000000000000000000000000000000000000000000000000000000000000000000000000000000F080FF1F0000000047
:402C00000000000000000000000000000000000000000000000000000000000000000000000000000000000000000000000000000000000000000000000000000000000094
:402C40000000000000000000000000000000000000000000000000000000000000000000000000000000000000000000000000000000000000000000000000000000000054
:402C80000000000000000000000000000000000000000000000000000000000000000000000000000000000000000000000000000000000000000000000000000000000014
:402CC00000000000000000000000000000000000000000000000000000000000000000000000000000000000000000000000000000000000000000000000000000000000D4
:020000040003F7
:0200000480007A
:400000000145004001490040024F004001640040026500405F0801403109014005150140451801403B190140441A0140431B014002420140014301400348014015490140AF
:40004000084C01400D4D014004500140015101400101D6C001100A36880F88728B380013020C060808600C200E40140A161418031A141C131E0422152460284029012A2061
:40008000301032603501360F3A803E013F1040154104450C46B0470E481949FF4AFF4BFF4EF04F44500C5401580459045A045B045F0166C06A406B02800C8271840986D042
:4000C000870C8A038C108D808E408F139220952C97439C109EAC9F08A171A30EA414A8DCAA22AD71AF06B0E0B130B30FB41FB5C0B922BA02BB08BF01C004C540C9FFCA0748
:40010000CBFFCC40CD20CEF0CF05D008D804D904DA04DF01E040E1A8E240E3200084012204240580064009800B400F1A102012081688170419231B011DC41E40204422088E
:4001400023102708284029452A482F08328838843A803B4040404440458048404A804F485040542057085C225E405F08C0FFC2E9C476CA29CC0ACE0AD091D210D6F0E00825
:40018000E401E602EA05EE0200010401050E0801090E0C020F101001110115081604174219021A041B2C1F10230124022701280229012D042F423160320433013401350EF0
:4001C0003602371039083E143F414053410242064401450E460C480549FF4AFF4BFF4C624DA04EF04F41500C56025712580459045A045B045F016640670269106A306B1044
:400200006D106E106F12A901B501BB08BF10D904DF010416050A07010C010D080E400F481240130217141E081F8420102120232025082610274229202C042D8A340935041A
:4002400036903D103E043F80442447604E044F4857405E086C106D106E046F157468760C77088A848D20942099249D809F04A820AB04B002B308C0F0C270C460CAF4CCF059
:40028000CE70D070D230D640020103080406051006010807093E0C040D201001113812061302153019381B041C061E011F06210E2330240228062D082F01353E360737011C
:4002C0003A803B20580459045F01800F8230840C8502880489078C118D049033920C9433980C99079A339D069E339F01A008A301A43FA506A822AD01AF06B00FB630B70777
:40030000B808BA02BE04D418D804D904DB04DF0100D403850402058807280A420C400E600F041028132014081705180219401A021D011E411F082005222023042680298130
:400340002D082E402F803048322133803540362038513A043C903E085E016640670887088980901093089406964098089A4C9B089D80A068A210A380A680B420B780C0FF3F
:40038000C2F9C476CAD9CC3FCE7FD680D830E008E401EA05EE023E10CE20961067409610D880122016407B027E0182208640874092029740A302AA10AB02AE01C430DC8093
:4003C000DE20E010E480E640EAA0EE40132815027B107F408C02C40EDE03E402110174028310874089019780A002A710AB28AD01C408DE04E60100010C0110011C0103C019
:400400008280000043000000020F0D0000000000830040808300830000000000000B0B000000000000000000000000000000000000000000000000000000000000000000FA
:40044000000000000000000000000000000000000000000000000000000000000000000000000000000000000000000000000000000000000000000000000000000000007C
:40048000000000000000000000000000000000000000000000000000000000000000000000000000000000000000000000000000000000000000000000000000000000003C
:4004C00000000000000000000000000000000000000000000000000000000000000000000000000000000000000000000000000000000000000000000000000000000000FC
:4005000000000000000000000000000000000000000000000000000000000000000000000000000000000000000000000000000000000000000000000000000000000000BB
:0200000490006A
:0400000000004005B7
:0200000490105A
:04000000BC90ACAF55
:0200000490303A
:02000000CE60D0
:0200000490402A
:4000000000000000000000000000000000000000000000000000000000000000000000000000000000000000000000000000000000000000000000000000000000000000C0
:400040000000000000000000000000000000000000000000000000000000000000000000000000000000000000000000000000000000000000000000000000000000000080
:400080000000000000000000000000000000000000000000000000000000000000000000000000000000000000000000000000000000000000000000000000000000000040
:4000C0000000000000000000000000000000000000000000000000000000000000000000000000000000000000000000000000000000000000000000000000000000000000
:0200000490501A
:0C00000000012E16106900012E26DEC93A
:00000001FF