:4000000000800020110000001D0500001D05000008B5044B1A6803F53F5302331A6000F09DFA00BFFA46004010B5054C237833B9044B13B10448AFF300800123237010BD9C
:40004000A081FF1F00000000701F0000084B10B51BB108490848AFF300800848036803B910BD074B002BFBD0BDE81040184700BF00000000A481FF1F701F0000C880FF1F34
:400080000000000070B592B062B601F0D9F800F05FFC00F02DFF00F097FC00F0BBFB4FF6FF76012000F0D4FE00F0F6FAF8B95F4B1D6000F095FD05464FF6FF73984212D0DA
:4000C000864210D05A4B1A6802925A6801929B68009333460246574905A801F025FB05A801F0C8F82E4600F065FD00F093FB524B1D604E4B1B68514A13604FF6FF7296421F
:4001000000F08E804A4A9289954231D0484AD28993422DD04A4801F0ADF8474B1A68474B1B689A4211DA474801F0A4F8404B1B6813F1070F02D0013B3D4A13603C4B5B68CD
:40014000B3B1013B3A4A536012E09A4210DD3E4801F090F8364B1B68072B02D00133344A1360334B5B680F2B02D00133304A5360364B1B68002B05DA2D4B1B685B42334AF0
:40018000136003E02A4B1A68304B1A600721002000F0BCFE002000F057FE0821002000F0B5FE002000F050FE00241DE0204B1B681BB90821002000F0A9FE1D4B1B68002B83
:4001C00006DAC4F10701C9B2002000F09FFE07E0002B05DD04F10801C9B2002000F096FE002000F031FE0134184B1B689C42DDDD0F4C2179012000F089FE23692BB9012019
:4002000000F022FE0122226107E0012B05D1022000F01AFE0022064B1A61052000F094FF034B9D81014A1268DA813AE7F481FF1FBC81FF1F741F0000EC81FF1FF081FF1F17
:40024000941F00009C1F0000A41F0000CC80FF1FFEE700BFF0B40022174611E050F82760F3B226F0FF0608E001EB420511F812406D78A5550132013BDBB2002BF4D1013723
:40028000192FEBD9F0BC70470E4B1B78DBB203F007010D4A11701B090132137010220B4B1A70002203F273631A70202203F25B231A70012290331A704422A3F2E5231A70E4
:4002C000704700BFCF0100496E580040FD51004008B50A46002101F01EFA08BD38B50122264B1A801823264A13704FF49C7102321180023213700222224B1A7008224FF046
:4003000040231A70032103F5007319701E4B1B78DBB21E490B701E4B1A8041F25122023B1A80002419250CE01A4B1B7803F0010343EA440404F003044FF4F07000F0BCFFD2
:40034000013D0DB1032CEFD115B90320FFF780FF114B4FF480721A8007221A7000220F490A704820023108701A700222033B1A700B4A137843F00303137038BD8040004040
:40038000824000400043004008010049A146004022420040254200400440004006400040A243004008B501F0ABF908BD072808D8044B53F82020184490F8201013780B43D8
:4003C00013707047AC1F0000072809D8054B53F82020184490F82010137823EA01031370704700BFAC1F000038B572B6364A137843F00403137000240BE0344863001A199B
:40040000510001440A46898D906AFFF761FF0134E4B2062CF1D92E494FF09040FFF71AFF4FF440722B4B1A8040F20312283B1A80294A03F532430E331A60284A137843F000
:40044000020313701032137843F002031370244C237843F040032370A2F58632513A137843F0100313700A221E491F48FFF79AFF08221E491E48FFF795FF08221D491E482A
:40048000FFF790FF08221D491D48FFF78BFF08221C491D48FFF786FF1C4A137843F0080313701B4D61232B70FFF718FF81232B700122184B1A70FFF7E7FE0E22214616486E
:4004C000FFF770FF38BD00BFE8460040AC1F000068000048725800400400044403500140A0430040C0050048C0510040CC050048F2510040D405004812510040DC05004806
:4005000022510040E405004832510040224300400048004004000840B043004008B501F0C3F803680C2B00D1FEE7FEE708B5094B1A681044084BC31A802B02DC054B18605A
:4005400005E001F0B1F80C2303604FF0FF32104608BD00BFD080FF1F8882FF1F08B5104E104D16E029686B68AC68002204E051F8040B43F8040B0432A242F8D1E8680022A7
:4005800003E0002143F8041B04328242F9D11035013E002EE6D101F08DF8FFF773FDFEE7010000002021000008B5104A104B1A60104A136843F40073136000230AE0032B94
:4005C00003D80D4A52F8231000E00C490C4A42F8231001332F2BF2D90A4B1A780A4B1A70074A0A4B1A60FFF7FFFE08BD0004FA050CED00E014ED00E0000000001D0500007E
:400600000080FF1FBC760040C080FF1F08ED00E010B500F059FE0446134A137843F02003137000F081FD00F0A5FC00F0FBFC0F4A137843F010031370103A137843F01003B2
:40064000137002F5A6520532137843F001031370204600F03DFE0122054B1A60054A137843F08003137010BD9A640040BB43004000E100E07B6400400130C0B2052808D02A
:40068000C20800F0070101238B4002498A5C1342F2D07047D480FF1F024B187800F00100704700BF0A82FF1F10B50B4B195C1A18147A03EB80031B6909221A700F2900D127
:4006C0000721054A02EB8102526A137823431370FFF76CFE10BD00BF0020000070B505460B4B1C5C03441E7AFFF76EFE0F2C00D10724074800EB8404626A137823EA0603F2
:40070000137000EB8500036908221A7070BD00BF0020000010B5002404E02046FFF7DEFF0134E4B2042CF8D910BD00BF10B50E4A137803F0FC0313700C4B1B781B020C49C3
:4007400021F810308E3212781343DB4321F81030FFF7C4FF002000F081FC064A137843F00103137010BD00BF7B64004019650040F881FF1F70580040024B187040081033C6
:40078000187070472A64004070B50446084B034493F84450074E3318187900F05FFC35442A7B054B1A70054B185DFFF7E5FF70BD00200000D480FF1F5B6400400482FF1F8F
:4007C00038B50546FFF7E0FF084C237843F001032370074A137803F0FE0313702846FFF763FF237843F00203237038BD7B6400407058004008B5054B00221A70044A107011
:4008000081221A70FFF7DCFF08BD00BF0A82FF1F0982FF1F10B500220A4B1A700A4CFF2323702078FFF728FF20702378DBB2042B07D8044A137843F0010313702078FFF776
:40084000BFFF10BD0A82FF1F0982FF1F012805D1054A137803F0EF0313707047024A137843F01003137070477B64004038B5FFF751FF0220FFF7EAFF00F026FD2E4A1378E2
:4008800043F0030313700132137843F00303137000F01EFD4FF43442284B1A804FF6FF7520331D80072442331C7000F00DFD244A137843F003031370FE32137843F00303B9
:4008C000137000F005FDFF231E4A157020321370403A137002F58F72137030321370103A1370012203F1E02381331A601649002000F04AFC2146002000F05AFC00F010FCAF
:400900000520FFF753FD0620FFF750FD2046FFF74DFD0E4A137843F00403137000F064FB00F0BCFB002000F0CFFB042000F0DCFB002000F093FB38BD986400402864004047
:400940009B6400402B6400404D0C00007B64004008B5084B1B7823B9FFF788FF0122054B1A70FFF755FE00F0A5F90122024B5A7308BD00BFD081FF1FD480FF1F074B33F802
:400980001030074A22F81030002206490A5406490A54064A22F81030704700BFF881FF1F2482FF1F1482FF1F1C82FF1F3082FF1F10B50446FFF71EFFFFF76EFE0028FBD19D
:4009C0002046FFF7DBFF10BD10B5002404E02046FFF7EEFF0134E4B2042CF8D910BD00BF70B4094D05440026FF20334608E0EC5C944203D9A64201D2264618460133DBB2DD
:400A00008B42F4D370BC70471C82FF1FF0B59DF81450284C2144044610B1461EF6B200E00026601CC0B211F804E0234F87F809E024B900263E72095CB9720DE0013A9442F9
:400A400005D1895D1C4A11720021917204E08E5D194A1672095C9172174A127AAA4203D9521B15490A7202E00021134A1172124A517A491BC9B25172927A954203D2551BBB
:400A80000D4A957202E000200B4A90720A4A907A157A421B29440844120292FBF0F000EB04201BB200FB03F000F5FE40C0F30740F0BD00BF1C82FF1FD481FF1F084400EB32
:400AC0004100C0F38F0070472DE9F0410446314B1B5C314A13441E7A304D35F81010304B33F81000FFF7EAFF074625F81400204600F0DCF82B4B33F81420974204D3BD1A6B
:400B0000ADB24FF0010803E0D51BADB24FF00008B8F1000F10D1142D0ED9234B1B5D042B06D92046FFF72AFF00221F4B1A551AE001331D4A135516E0B3B29D4204D9132D0C
:400B400011D8B8F1000F0ED118490B5D43EA02231F44BF1AC7F30F22124B23F814200F550022114B1A55B6B2B5420DD9B8F1000F0AD0FF2D04D9FF220D4B1A55BDE8F081D8
:400B80000B4B1D55BDE8F0810022094B1A55BDE8F08100BF44200000E480FF1F3082FF1FF881FF1F2482FF1F0C82FF1F1482FF1F1C82FF1F10B500240DE0E20804F00701B4
:400BC00001238B4005498A5C134202D02046FFF77BFF0134E4B2042CEFD910BDD480FF1F70B582B00446184B1A18157B1A5C05210020FFF7F5FEFF281DD0134E3444237ADE
:400C000000934FF4C85305220021FFF7FFFE024680B26B1CDBB22E44317B29B90A490B441A73012333730CE0074C1C44217BFFF745FF207305E0044B1D4400232B734FF65E
:400C4000FF7002B070BD00BFE480FF1F10B5114B1878FFF76BFD104B1B7813F0800F05D00D4A137803F0FE03137010BD094C2078FFF702FD20702378DBB2042B03D820781F
:400C8000FFF79EFD10BD044A137803F0FE03137010BD00BF0982FF1F0A82FF1F08B5FFF7A9FD08BD08B5FFF7F7FC08BD08B500F0EDFB08BD08B500F09FFC08BD08B50220D8
:400CC000FFF7C4FD08BD00BF08B50120FFF7BEFD08BD00BF10B50B4C237803F09F032370237803F0F00323702378184340F010002070012000F03EFA237803F0EF03237091
:400D000010BD00BF2051004038B505460E4C237843F020032370237803F0BF032370002000F028FA237803F0F003237023781D4345F010052570012000F01CFA237803F0A8
:400D4000EF03237038BD00BF2051004070B5354B1A7802F08002D2B21A7033490A7802F0F00242F00F020A7001310A7802F0F0020A7001310A7802F0F0020A701A7802F089
:400D8000DF021A701A7842F040021A704FF4CA76002000F0EFF9234D2B7843F010032B70012000F0E7F9214B1C78E4B22B7803F0EF032B70002000F0DDF904F00804E4B2A3
:400DC0002B7843F010032B70012000F0D3F92B7803F0EF032B7014B90A2000F0CBF9013E0CB1002ED4D10F4A137803F0BF031370137803F08003DBB213700232137803F016
:400E0000F00313700132137803F0F00343F00F0313700132137803F0F00343F00F03137070BD00BF20510040225100402151004010B50446FFF78AFF2009FFF765FF04F05D
:400E40000F00FFF761FF10BD08B5FFF7F1FF08BD10B50446FFF77AFF2009FFF73BFF04F00F00FFF737FF10BD08B5282000F06CF90320FFF72FFF052000F066F90320FFF7D7
:400E800029FF0F2000F060F90320FFF723FF012000F05AF90220FFF71DFF052000F054F90620FFF7D5FF0E20FFF7D2FF2C20FFF7CFFF0820FFF7CCFF0120FFF7C9FF0C2074
:400EC000FFF7C6FF0320FFF7C3FF052000F03CF9014800F039F808BD8420000008B50C20FFF7B6FF0122014B1A7008BDDF81FF1F08B5054B5B7823B9FFF7B6FF0122024B98
:400F00005A70FFF7EBFF08BDDF81FF1F08B5032819D8DFE800F002070D1381F08000FFF797FF08BDA1F14000C0B2FFF791FF08BDA1F16C00C0B2FFF78BFF08BDA1F12C00C7
:400F4000C0B2FFF785FF08BD38B50546FFF7FEFE4020FFF77DFF002404E0285DFFF768FF0134E4B23F2CF8D9FFF7F0FE8020FFF76FFF38BD054A137843F00203137010321F
:400F8000137843F002031370704700BFA74300400F490B7803F0FC0200F0030313430B7001280AD10B4B1B78DBB20B4A13700B4B1B78DBB2013213707047094B1B78DBB20F
:400FC000054A1370074B1B78DBB201321370704741580040110100493246004015010049AF010049B701004908B50020FFF7D0FF0B4B1A7842F020021A701A7802F0FB0212
:401000001A701A7842F008021A7003F28E231A7802F0E7021A701A7842F010021A7008BD41580040054A137843F0080313701032137843F008031370704700BFA843004069
:40104000054B1A7802F0FD021A701A7800F0020010431870704700BF2C580040014B1870704700BF835B0040094B1B7803F00C035B08084A127812F0040F00D0013303F1DD
:40108000924393F83831DBB2034A1370704700BF2C5800402D5800400B46004008B51422084B1A700133002018701A7842F004021A701A7842F002021A70FFF7C1FFFFF77C
:4010C000D3FF08BD2C58004008B5064B1A7802F0FB021A701A7800F0040010431870FFF7C3FF08BD2D58004008B5064B1A7802F0F3021A701A7800F00C0010431870FFF769
:40110000B3FF08BD2C58004010B5002404E02046FFF75AF90134E4B2072CF8D910BD00BF08B5FFF7F1FF08BD054A137843F0010313701032137843F001031370704700BFA4
:40114000A243004001BE704710B5044605E0084B186800F0B1F8A4F50044B4F5004FF6D8034B586800FB04F000F0A6F810BD00BF2881FF1F08B5034B1B7A00FB03F000F075
:401180009BF808BD2881FF1F70B504460E46074B1D681F2802D90020FFF7D4FF04F01F04103455F8240045F8246070BD08ED00E038B504460D46072902D90020FFF7C2FF70
:4011C0001F2C02D90020FFF7BDFF04F01F0000F1604000F564406D01EDB2057038BD00BF7222084B1A702022A3F580731A700622A2331A70472210331A7000224D331A70D3
:40120000704700BF8965004010B500F05DF804460A4A137843F020031370A2F58072137843F010031370FF32137843F01003137000F032F8204600F04BF810BD99650040DE
:4012400008B5054B1B7823B9FFF7CAFF0122024B1A70FFF7D9FF08BDE181FF1F034B1B7813F0040FFAD1024B18707047686500404865004038B5074B1B782BB938BDFFF73D
:40128000EDFF0134A4B201E005460024285D0028F5D138BDE181FF1F054A137843F0020313701032137843F002031370704700BFA2430040000000000230800803D000BF7B
:4012C00001380046FCD17047EFF3108072B6704780F31088704700BFF7B50193194B041C1B7883422CD9184B184F1B6808261954396800230B54164B16491B6809681B5CC2
:401300008025CA54420000923968201C0B191A782A431A70FFF7C2FCFFF7C4FC0028FBD10D4B009A1B6801999B5A8B4204D23A6813191A78AA431A70013E6D08002EE3D11A
:40134000F7BDC046F580FF1F0481FF1F0881FF1F1881FF1F1C81FF1F0081FF1F70B5194DFF232B54184B0F221B68041C1E5C174BFFF7B2FF164A174B10881B5D311C584325
:4013800000F07EF980B2802804D92B5D40085B082B55F8E7104BC0B21855104B1049800818556200002353520E490F4853520F490968095DFF2444540D4843540D49096880
:4013C0008B5270BD5882FF1F0881FF1F980D0000F880FF1F7C2000007082FF1F7882FF1F4082FF1F6082FF1F5482FF1F1881FF1F6C82FF1FFC80FF1F1E4BF7B51A681E4E11
:4014000043001E4C9A5A9F5B195BBD1AADB20191891A6940090429D5002D27D0019D1F53511B89B28DB22CB2002C01DA4D42ADB21349EDB20F5C79088D4217DA114C215C10
:401440008D4206DD104D00260131FF082E54C9190BE08D420AD00C4D2F5C092F02D801372F5403E000272F54013921540249CA52F7BDC0460081FF1F4082FF1F6082FF1F79
:401480007082FF1F7882FF1F4C82FF1F70B5264B051C1B681C5CFFF7AFFF244B595D244B48005A5DC0B2234B824204D9185D904205D91A5503E01E5D864200D9185548085E
:4014C0000918C8B29208011C904200D2111C1A4AC8B2165D864200D2115518490968085D17490968095D4118013989B28D421AD11449185D0D6828551348155D06683555F9
:4015000000680E680019355D06786D08AE4200D3057009680D48095D006889080155FF2119550023135570BD1881FF1F7882FF1F7082FF1F5482FF1F6C82FF1F1081FF1FA8
:401540001481FF1F0C81FF1F2481FF1F2081FF1FF7B50022224B1B7893423FD9214C2248267800230768B446191CDDB265450BD2FD5C954206D11D4DEE5C351C8E4200D2D6
:401580000D1CE9B20133F0E7194B1B68995424780068019400900023019CD8B2A0421AD2009CE05C904214D1124CE05C0F4D5D192F78B94206D901267F003743B0402F701C
:4015C00080B2F3E7FF25071CAF4301D0E55400E0E0540133E0E70132D2B2BBE7F7BDC046F480FF1FF680FF1F1881FF1F5882FF1F1C81FF1F7082FF1F38B5FFF765FB002473
:40160000194B1A781D1CA2420AD9184B01221978D923201C93400134FFF75EFEE4B2EFE70023134A12789A420BD91249124A09681248C95C1268C908415CD1540133DBB260
:40164000EFE7FFF73BFB00242B78A34208D90A4B201C1B68195D0134FFF780FEE4B2F3E7FFF776FF38BDC046F580FF1FFA80FF1FF680FF1F0881FF1F0481FF1F5C2000004D
:40168000002902D0B0FBF1F0704708B14FF0FF3000F008B80029F8D00246B0FBF1F000FB11217047704700BF014B1868704700BF9881FF1F0E4B70B51E460E4C0025E41A1E
:4016C000A410A54204D056F8253098470135F8E700F014FD084B094C1E46E41AA4100025A54204D056F8253098470135F8E770BD08210000082100000821000010210000D5
:4017000010B5431E0A44914204D011F8014B03F8014FF8E710BD03460244934202D003F8011BFAE7704700000EB400B54FF402719CB0ADF814106FF00041049107914FF609
:40174000FF711DAB02900690084853F8042BADF81610006802A9019300F064F8029B00221A701CB05DF804EB03B070479881FF1F2DE9F0478E6882469E420C469146984695
:401780003ED88A8912F4906F3AD02568096902236F1A656905EB450595FBF3F57B1C43449D4238BF1D4653050FD5294600F040FB064698B13A462169FFF7A2FFA38923F41E
:4017C000906343F08003A38113E02A4600F08EFB064670B92169504600F0DEFA0C23CAF80030A3894FF0FF3043F04003A381BDE8F08726613E44266046466561ED1BA56084
:40180000464528BF464649463246206800F0A8FAA36800209B1BA36023681E442660BDE8F08700002DE9F04F9DB003938B8980461C060D4616460DD50B695BB9402100F078
:40184000F7FA2860286118B90C23C8F80030CDE040236B610023099320238DF82930DFF89CB130238DF82A3037463C4614F8013B1BB9B7EB060910D003E0252BF9D027464F
:40188000F3E74B46324629464046FFF771FF013000F0A780099B4B4409933B78002B00F0A08000234FF0FF3204930793059206938DF853301A930126052221784E4800F0CF
:4018C00041FA671C049B38B14B4A3C46801A06FA00F018430490EFE7D90644BF20228DF853201A0744BF2B228DF8532022782A2A03D0079A00210A200BE0039A111D1268DA
:401900000391002A10DA524243F00200079204900BE027463B780134303B092B03D800FB02320121F5E701B107923B782E2B1ED17B782A2B0AD1039B02371A1D1B68039293
:40194000002BB8BF4FF0FF33059310E0002319460593781C0A2407463A780130303A092A03D804FB01210123F5E703B1059103223978224800F0E6F940B14023CBEB0000C4
:4019800003FA00F0049B013718430490397806221B487E1C8DF8281000F0D4F988B1194B33B9039B073323F007030833039314E003AB00932A46144B04A94046AFF300807C
:4019C00007E003AB00932A460F4B04A9404600F093F8B0F1FF3F824603D0099B5344099342E7AB895B0601D4099801E04FF0FF301DB0BDE8F08F00BFC6200000CC200000F1
:401A0000D020000000000000711700002DE9F04791461F460A698B6806469342B8BF1346C9F8003091F843200C46DDF8208012B10133C9F800302368990642BFD9F8003096
:401A40000233C9F80030256815F0060510D104F1190A07E00123524639463046C04701301AD00135E368D9F800209B1A9D42F1DB94F843302268003318BF012392060FD5EB
:401A8000E118302081F843005A1C94F845102244023382F8431003E04FF0FF30BDE8F08704F1430239463046C0470130F4D02268D9F80050E36802F00602042A08BF5D1B6D
:401AC0002269A3680CBF25EAE57500259342C4BF9B1AED184FF000091A344D4509D00123224639463046C0470130D5D009F10109F3E70020BDE8F0872DE9F04317460A7E3E
:401B000085B06E2A984606460C460C9B01F1430E00F0AE8011D8632A22D009D8002A00F0BB80582A40F0CA8081F84520834955E0642A1ED0692A1CD0C0E0732A00F0B08083
:401B400009D86F2A2ED0702A40F0B8800A6842F020020A603EE0752A24D0782A3AD0ADE01A6801F14205111D1960136884F84230A8E021681A6811F0800F02D0111D19606A
:401B800008E011F0400F02F10401196002D0B2F9003000E01368002B3CDA2D225B4284F8432037E021681A6811F0800F02D0111D196007E011F0400F02F10401196001D0C4
:401BC000138800E01368227E5C496F2A14BF0A2208221BE078225A4984F845202268186812F0800F00F104051D6003D1550601D5038800E00368D00744BF42F02002226032
:401C00001BB9226822F0200222601022002084F8430001E049490A226568002DA56008DB206820F0040020602BB9002D7DD175460CE0002B79D07546B3FBF2F002FB1033DD
:401C4000CB5C05F8013D03460028F5D1082A0BD12368DA0708D5236962689A42DEBF302305F8013C05F1FF35C5EB0E0323612EE008681A6810F0800F496903D0101D1860F0
:401C8000136808E010F0400F02F104001860136801D0198000E0196000232361754616E01A68111D1960156800216268284600F049F808B1401B6060636804E004F142057E
:401CC00084F8422001232361002384F84330CDF800803B4603AA21463046FFF797FE013002D14FF0FF3026E023692A4639463046C0470130F5D023689B0710D5002504F1DF
:401D0000190907E001234A4639463046C0470130E7D00135E368039A9B1A9D42F2DBE068039B9842B8BF184605E00B7804F1420584F842308AE705B0BDE8F083D720000027
:401D4000E820000010B5C9B202449042034605D01C7801308C42F8D1184610BD002010BD884210B501EB020301D8421E0BE09842FBD28118D21AD34204D013F8014D01F866
:401D8000014DF8E710BD994204D011F8014B02F8014FF8E710BD000038B50546002944D051F8043C0C1F002BB8BFE41800F0D4F81E4A1368114613B96360146030E0A3427A
:401DC0000DD92268A018834201BF18685B681218226063600C6023E0A24203D813465A68002AF9D118681918A1420BD12168014458188242196013D1106852680144196088
:401E00005A600DE002D90C232B6009E021686018824201BF106852680918216062605C602846BDE8384000F098B838BDE881FF1F70B5CD1C25F0030508350C2D38BF0C2596
:401E4000002D064601DBA94202D90C23336046E000F082F8234B1C681A462146A1B10B685B1B0ED40B2B03D90B60CC18CD501EE08C420BBF63684B681360636018BF0C462E
:401E800015E00C464968E9E7174C23681BB9304600F052F820602946304600F04DF8431C18D0C41C24F00304A0420DD12560304600F053F804F10B00231D20F00700C31AE2
:401EC0000ED05A42E25070BD211A304600F034F80130EBD10C233360304600F03EF8002070BD00BFE881FF1FE481FF1FF8B5074615460E4621B91146BDE8F840FFF798BFD7
:401F00001AB9FFF749FF2846F8BD00F027F885420ED929463846FFF78BFF044650B131462A46FFF7EDFB31463846FFF735FF01E03046F8BD2046F8BD38B5064C0023054640
:401F400008462360FEF7F2FA431C02D1236803B12B6038BD8082FF1F7047704751F8040C0028BEBF091851F8043CC018043870470000000053656E736F723A2025642C2014
:401F800025642C2025642C2025642C2025640D0A00000000486572650A00000052696768740A00004C6566740A0000003C5100403C5100403C5100403C5100403C510040D6
:401FC000FC510040CB5A00409B5A0040020408102010011000510040100040510040300000000140001000140140000800400140000A004C01400002005001402000000040
:4020000003030303030000000204081020000000195000401A5000401B5000401C5000401D500040065200400E520040165200401E520040265200402E520040365200402C
:402040007E520040000000000000000008000000001900000500000000000000010101010101020202020203030303030304040404040405050505050506060602020202B8
:40208000020000001F1F1F1F1F1F1F1F000A0A0404040000000404040E0A0C00000E0A0C0A0A0000000E080C080E0000000E080E020E0000000E080E020E000000040404F2
:4020C000000400004300232D302B2000686C4C006566674546470030313233343536373839414243444546003031323334353637383961626364656600000000F8B500BF3A
:40210000F8BC08BC9E4670474D000000A9050000F8B500BFF8BC08BC9E4670472900000030210000C880FF1FD8000000E800000000000000070000008882FF1F1F00000024
:40214000C8C8C8C8C8000000030100006400000001000000140000000100000001050500F22905002482FF1FF881FF1F0482FF1FD880FF1FE480FF1F5820000054200000EB
:4021800044200000E080FF1FD481FF1FEC80FF1F0000E02EC05D00001800000000366E01000000000000000000000000000000000000000000000000000000000000000058
:4021C000C4200000000000000000000000000000000000000000000000000000000000000000000000000000000000000000000000000000000000000000000000000000FB
:402200003881FF1F000000000000000000000000000000000000000000000000000000000000000000000000000000000000000000000000000000000000000000000000C7
:40224000000000000000000000000000000000000000000000000000000000000000000000000000000000000000000000000000000000000000000000000000000000005E
:40228000000000000000000000000000000000000000000000000000000000000000000000000000000000000000000000000000000000000000000000000000000000001E
:4022C00000000000000000000000000000000000000000000000000000000000000000000000000000000000000000000000000000000000000000000000000000000000DE
:40230000000000000000000000000000000000000000000000000000000000000000000000000000000000000000000000000000000000000000000000000000000000009D
:020000040003F7
:0200000480007A
:400000000352004006640040056500400107014061080140420901405C0A0140320B01400117014053180140421901406F1A0140461B01400240014001410140014201409C
:40004000024301400245014002460140024701400348014003490140014C0140094D014004500140015101401E3E618064400AFF0BFF1BFF2BFF89388A1F09FF19FF29FF0F
:40008000880F8972EA04000C0213030106C0081109200A060B080C200D010E03120C14C0152E1710181119161A0E1B281CC01D3A1F04220826C028402C802F063030310CBA
:4000C0003302340F353036C0370138023A203E404005410249FF4AFF4BFF4C024D0C4EF85608580459045A045B0F5C015F01624863A168F06AF06CF06EF08002810C850544
:4001000086038803950397109B0F9C03A10AA401AF0CB103B31CB603BE40BF05C001C102C5A0C9FFCAFFCBFFCC03CD0CCEF4D418D804D904DA04DB04DD10DF01E248E3A18F
:40014000E8F0EAF0ECF0EEF0000202280504068007050B010D2A0F0111081501160A170819801D031E041F80210422022413261527702A422F0231083228361437403A088C
:400180003B013D903E0140014310472049024C015A025E406004630267017D028A84911092C194109A0A9B089D02A001A145A228A302A617A901C0FEC2F1C4F4CA19CC7683
:4001C000CEB3D02CD210D611D81CDE80020204040C010E021E0124043003360438803E014063450446504702481949FF4AFF4BFF4C024D204F055110560258045A045B04AB
:400200005E085F01604061406280648066808003810483408413860887028804895E8A118B208C108D7E8E05900192029302940395669718997E9A029D3A9E029F44A110E6
:40024000A402A508A615AF01B003B13CB20CB302B410B540B701BE14C023C105C762C830D217D804D904DA04DB04DF01E10CE2F0E30CE50CE70CE840E94CEA40EB4CEC9095
:40028000ED58EF0C010202010320062A07600A010EA61020170819801A811C801D291E802540262827682D802E0A361137483C803D023E244010452B48284E0250085320E7
:4002C00054015504560A6D106E046F02710276017A049240B640C0FDC2F1C424CAD0CCF0CEF0D062D214DE04EE0114021801300234013E114034410245EE47BC483349FF76
:400300004AFF4BFF4EF04F44500C540158045A045B045D115F0166C06A406B02812F83D0850C860289048A018D418E02920195FF992C9BD39DF39F0CA004A108A404A7C3FE
:40034000A804A982ADC3B001B1C0B204B320B402B510B70FB920BB80BE11BF04C013C105C502C606C805D602D712D804D904DA04DB04DC11DD10DF01E10CE2F0E30CE50C1B
:40038000E70CE840E94CEA40EB4CEC90ED58EF0C002002220A800E200F0810281302181419081B011C801E0820022180222529282A022B0231883210382839023B804104FB
:4003C00043804521470549844F095240560157085A085C605E085F0168286B027014720278207B089108920494049501960299819D049E409F05A380A520A701AA40AB01CF
:40040000C007C268C40ECA0FCC0ECE0FD0EAD208D6F2E801051809080C040D040E38111C1361157F1812195C1A451B221D671F182110241F2704281F2B632C092EC6301C7B
:40044000313832803403351F366037583B2A3E404053410642044401450C47E0482149FF4AFF4BFF4C624DA04EF04F41500C580459045A045C115D015F016640670269101E
:400480006A306B106D106E106F12804882868355852A874488608A8B930895739618970C98E69A119E01A080A202A480A573A665A704A903AB44ACA0B140B2F8B330B407FA
:4004C000B50FB908BA20BB20BF05C002C540C9FFCA07CBFFCC40CD20CEF0CF05D008D804D904DA04DC11DD01DF01E040E1A8E240E320030205110A080E240F02102A1501A1
:4005000016011704180119241A081B021D301E201F102109225123102440272429042A222F18318832113501370438283B803E043F0240114260472048114B104D01520240
:40054000550157015AC088028B40903892049440950396A0978099019A039D209F04A029A180A308A410A529A612A702B040C051C2E2C4B7CA67CCCFCECED02BD20C308027
:40058000CC10A480A480A880EA201108C408B504EE023980CE08A310AB10EE807B10A310DE40A940108071088880A108B108C408DC01E601EC0400030C0310031C0300036D
:4005C0008000408080008000000000000000000000001000000B0B0000000000007F7F000000000000003E0000000000000000000000000000000000000000000000000059
:4006000000000000000000000000000000000000000000000000000000000000000000000000000000000000000000000000000000000000000000000000000000000000BA
:40064000000000000000000000000000000000000000000000000000000000000000000000000000000000000000000000000000000000000000000000000000000000007A
:40068000000000000000000000000000000000000000000000000000000000000000000000000000000000000000000000000000000000000000000000000000000000003A
:4006C00000000000000000000000000000000000000000000000000000000000000000000000000000000000000000000000000000000000000000000000000000000000FA
:0200000490006A
:0400000000004005B7
:0200000490105A
:04000000BC90ACAF55
:0200000490303A
:020000001ABD27
:0200000490402A
:4000000000000000000000000000000000000000000000000000000000000000000000000000000000000000000000000000000000000000000000000000000000000000C0
:400040000000000000000000000000000000000000000000000000000000000000000000000000000000000000000000000000000000000000000000000000000000000080
:400080000000000000000000000000000000000000000000000000000000000000000000000000000000000000000000000000000000000000000000000000000000000040
:4000C0000000000000000000000000000000000000000000000000000000000000000000000000000000000000000000000000000000000000000000000000000000000000
:0200000490501A
:0C00000000012E16106900012E242B2692
:00000001FF