:400000000080002011000000811600008116000008B5044B1A6803F53F5302331A6001F04FFB00BFFA46004010B5054C237833B9044B13B10448AFF300800123237010BDFE
:400040001882FF1F0000000030250000084B10B51BB108490848AFF300800848036803B910BD074B002BFBD0BDE81040184700BF000000001C82FF1F30250000C880FF1FB6
:400080000000000000B58DB00B490B784A784868049088680390C86802900869019049690091064906A801F01FFE06A801F05CFD0DB05DF804FB00BFCC80FF1F3425000051
:4000C00008B50138042818D8DFE800F003070B0F1300002001F016FC08BD012001F012FC08BD022001F00EFC08BD042001F00AFC08BD052001F006FC08BD032001F002FC82
:4001000008BD00BFF8B50746012001F0FFFB0024264625460EE0E9B2304601F055FC57F82400FFF7CDFF0F2C01D0013501E00126002501341F2CEEDDF8BD00BF00EB01109A
:40014000704700BF2DE9F84362B601F02FFC01F0DBFCB04801F062FD01F06EFD7322AE4B5A70012001F0D2FBAB4B5B78643B0F2B00F2E386DFE813F01000CD06E106480008
:40018000E106E106E106E106E106E106E106E106E106E106E1062B000021084601F014FC9E4801F0A1FB0021012001F00DFC9C4C208801F027FC0A21012001F005FCA088FE
:4001C00001F020FC052001F0EFFC00F0B6BE0021084601F0F9FB934801F086FB0021012001F0F2FB904801F07FFB02E0052001F0DBFC8B4B9B68002BF8D06722864B5A70CA
:40020000FFF740FF00F099BE834B1B78642B00F00E84702B40F091867F4B5B69012B04D0022B00F0FE8100F088BE012001F06EFB0021084601F0C8FB7C4801F055FB0021CA
:40024000012001F0C1FB744C04F1380001F04CFB206C01F0A9FC012001F058FB0021084601F0B2FB724801F03FFB0021012001F0ABFB704801F038FB02E0052001F094FCD5
:4002800001F008FC0028F8D0012001F03FFB0021084601F099FB684801F026FB0021012001F092FB654801F01FFB5B4C206C01F07BFC012001F02AFB0021084601F084FB2E
:4002C0005B4801F011FB0021012001F07DFB5C4801F00AFB206C01F067FC514BD9681869FFF72CFF574B012243F820201846FFF709FF01F0CFFB012812D1494CE1682069F0
:40030000FFF71CFF04EB8000012343610FE0444A02EB830251694B4A42F82310013300E000231F2BF3DD0A2001F03EFCD5E73C4BD9681869FFF702FF424B012243F82020FD
:400340001846FFF7DFFE01F0A5FB01281CD1344B1A69C3F89420DA68C3F89820002307E0384A52F823102E4A02EB8302516101331F2BF5DD0FE02A4A02EB83025169314A80
:4003800042F82310013300E000231F2BF3DD0A2001F00AFCCBE7012001F0B8FA0021084601F012FB284801F09FFA0021012001F00BFB264801F098FA174B186C01F0F4FB91
:4003C000174B00221A61DA60154C266900213046FFF7B4FE04EB80046369012B05D10422184B43F82020002503E00125154B43F8205001213046FFF7A1FE094B03EB800325
:400400005B69012B24D104220E4B43F82020002422E000BFAD100000CC80FF1FE480FF1F3482FF1F502500005C2500006C250000802500008825000094250000A425000020
:40044000AC250000F885FF1FB8250000C42500000124C24B43F82040C048FFF753FE01F019FB012841D1002D41D0002C41D0BC4FD7F8109000214846FFF760FE07EB800084
:400480000126466131464846FFF758FE07EB80004661DFF8D882C8F844900024C8F84840C8F84C90C8F85060304601F02FFA2146204601F089FAAB4801F016FA2146304625
:4004C00001F082FAA84801F00FFAD8F8400001F06BFB3C61FC6013E0A14A02EB830251699E4A42F82310013304E0002302E0002300E000231F2BEFDD0A2001F055FB63E7D8
:40050000974B1B690F2B02D10E22954B1A61944C2669E76839463046FFF710FE04EB80046369012B05D104228C4B43F82020002404E00122894B43F820202C463946701C56
:40054000FFF7FCFD864B03EB80035B69012B05D10422824B43F82020002603E001267F4B43F820607D48FFF7CDFD01F093FA01284CD1012C4CD1002E4CD0794CD4F8108063
:40058000E76839464046FFF7D9FD04EB80000126466108EB060939464846FFF7CFFD04EB80004661714DC5F85480AF65C5F85C902F66304601F0AAF90021084601F004FAEE
:4005C0006B4801F091F90021304601F0FDF9694801F08AF9286C01F0E7FA04F11400FFF791FD286C01F0E0FA02236B6100232361E360FFF747FD00F0A0BC594A02EB830262
:400600005169564A42F82310013304E0002302E0002300E000231F2BEFDD0A2001F0C4FA6EE7012001F072F90021084601F0CCF9514801F059F90021012001F0C5F94B4C66
:4006400004F1640001F050F9206C01F0ADFA012001F05CF90021084601F0B6F9474801F043F90021012001F0AFF9454801F03CF902E0052001F098FA01F00CFA0028F8D092
:40068000012001F043F90021084601F09DF93D4801F02AF90021012001F096F93A4801F023F9324C206C01F07FFA012001F02EF90021084601F088F9304801F015F90021E6
:4006C000012001F081F9314801F00EF9206C01F06BFA234BD9681869FFF730FD2C4B012243F820201846FFF70DFD01F0D3F9012814D11B4CE1682069FFF720FD04EB8000CF
:400700000123C0F89C3010E0154A02EB8302D2F89C101F4A42F82310013300E000231F2BF2DD0A2001F040FAD3E70D4BD9681869FFF704FD164B012243F820201846FFF741
:40074000E1FC01F0A7F901283AD1054B1A69C3F81C21DA68C3F82021002324E0F885FF1F3482FF1FB8250000D0250000CC80FF1FDC250000EC2500006C25000080250000B4
:400780008825000094250000A4250000AC2500007885FF1FAA4A52F82310AA4A02EB8302C2F89C1001331F2BF4DD10E0A54A02EB8302D2F89C10A24A42F82310013300E05E
:4007C00000231F2BF2DD0A2001F0EEF9ADE7012001F09CF80021084601F0F6F89A4801F083F80021012001F0EFF8984801F07CF8974B186C01F0D8F9924B00221A61DA60AA
:40080000904C266900213046FFF798FC04EB8004D4F89C30012B05D10422894B43F82020002503E00125864B43F8205001213046FFF784FC834B03EB8003D3F89C30012BF0
:4008400005D104227E4B43F82020002403E001247B4B43F820407A48FFF754FC01F01AF9012844D1002D44D0002C44D0754FD7F8109000214846FFF761FC07EB8000012612
:40088000C0F89C6031464846FFF758FC07EB8000C0F89C60DFF8B881C8F86C900024C8F87040C8F87490C8F87860304601F02EF82146204601F088F8634801F015F8214678
:4008C000304601F081F8634801F00EF8D8F8400001F06AF93C61FC6014E05A4A02EB8302D2F89C10564A42F82310013304E0002302E0002300E000231F2BEEDD0A2001F019
:4009000053F97DE74F4B1B690F2B02D10E224D4B1A614C4C2669E76839463046FFF70EFC04EB8004D4F89C30012B05D10422444B43F82020002404E00122414B43F82020BF
:400940002C463946701CFFF7F9FB3E4B03EB8003D3F89C30012B05D10422394B43F82020002603E00126364B43F820603448FFF7C9FB01F08FF801284ED1012C4ED1002E7C
:400980004ED0304ED6F81080F76839464046FFF7D5FB06EB80000125C0F89C5008EB050939464846FFF7CAFB06EB8000C0F89C50274CC4F87C80C4F88070C4F88490C4F897
:4009C0008870284600F0A2FF0021084600F0FCFF214800F089FF0021284600F0F5FF1F4800F082FF206C01F0DFF806F19C00FFF789FB206C01F0D8F8656164232370FFF7F6
:400A000041FB9AE20F4A02EB8302D2F89C100C4A42F82310013304E0002302E0002300E000231F2BEEDD0A2001F0BEF86AE7084B5B69012B14D0022B00F031817DE200BF6C
:400A40007885FF1F3482FF1FB8250000C4250000CC80FF1FD0250000DC250000EC250000BE4C0023C4F82431D4F89810D4F89400FFF764FB04EB80004369042B02D10122A9
:400A8000C4F82421B64B1C6D2146586CFFF756FBB24B03EB80004369042B10D12146B04BD86CFFF74BFBAD4B03EB80004369042B05D1AA4AD2F824310133C2F82431A84BD0
:400AC000996D586DFFF73AFBA44B03EB80004369042B10D1A24B196ED86DFFF72FFB9F4B03EB80004369042B05D19C4AD2F824310133C2F824319A4AD2F88C309749D1F8AA
:400B000024115B1AD360136143B110E0944A1A4492F8641082F89010013300E00023042BF4DD65228E4B5A70FFF7ACFA05E2FFF7A9FA0021084600F047FF894C04F1380008
:400B400000F0D2FE0021012000F03EFF854800F0CBFE206C01F028F8012000F0D7FE0021084600F031FF804800F0BEFE0021012000F02AFF7D4800F0B7FE02E0052001F07D
:400B800013F800F087FF0028F8D0012000F0BEFE0021084600F018FF754800F0A5FE704C206C01F001F87348FFF7ACFA206C00F0FBFF012000F0AAFE0021084600F004FF17
:400BC0006D4800F091FE0021012000F0FDFE6B4800F08AFE206C00F0E7FF604C61682068FFF7ACFA04EB8004D4F82831022B01D0032B06D1594B03EB80030522C3F8282193
:400C000005E0564B03EB80030222C3F828215C48FFF778FA00F03EFF012827D14F4C61682068FFF78BFA04EB8004D4F8A831022B1AD0032B18D0D4F89C30012B0AD10423C9
:400C4000C4F89C300323C4F8A831454AD368013BD36009E0414B03EB80000223C0F8A8313F4AD368013BD360FFF70CFA002207E03A4B03EB8203D3F8A811C3F82811013284
:400C80001F2AF5DD364BDB682BB90222344B5A61FFF7F8F951E10A2000F086FF9DE72F4C0023C4F82832D4F82011D4F81C01FFF745FA04EB8000D0F89C30042B02D10122E0
:400CC000C4F82822264B9C6F2146D86EFFF736FA224B03EB8000D0F89C30042B11D121461F4B586FFFF72AFA1C4B03EB8000D0F89C30042B05D1194AD2F828320133C2F88A
:400D00002832174BD3F88010D86FFFF717FA134B03EB8000D0F89C30042B13D1104BD3F88810D3F88400FFF709FA0C4B03EB8000D0F89C30042B05D1084AD2F828320133CD
:400D4000C2F82832064AD2F898300449D1F828125B1A53609360EBB125E000BF3482FF1FCC80FF1FF82500000426000080250000102600004882FF1F1C2600002C260000D6
:400D80005C83FF1F6F4A1A4492F8381082F89010013300E00023042BF4DD6522694B5A70FFF770F9C9E0FFF76DF90021084600F00BFE644C04F1640000F096FD002101205D
:400DC00000F002FE604800F08FFD206C00F0ECFE012000F09BFD0021084600F0F5FD5B4800F082FD0021012000F0EEFD584800F07BFD02E0052000F0D7FE00F04BFE00281B
:400E0000F8D0012000F082FD0021084600F0DCFD504800F069FD4B4C206C00F0C5FE4E48FFF770F9206C00F0BFFE012000F06EFD0021084600F0C8FD484800F055FD00219D
:400E4000012000F0C1FD464800F04EFD206C00F0ABFE444C61682068FFF770F904EB8004D4F82C32022B01D0032B06D13D4B03EB80030522C3F82C2205E03A4B03EB8003D1
:400E80000222C3F82C223848FFF73CF900F002FE012825D1334C61682068FFF74FF904EB8004D4F8AC32022B18D0032B16D06369012B09D1042363610323C4F8AC32214A0F
:400EC0005368013B536009E0264B03EB80000223C0F8AC321B4A5368013B5360FFF7D2F8002207E01F4B03EB8203D3F8AC12C3F82C1201321F2AF5DD124B5B682BB9012219
:400F0000104B5A61FFF7BEF817E00A2000F04CFE9FE7012000F0FAFC0021084600F054FD124800F0E1FC0021012000F04DFD104800F0DAFC052000F037FE142000F034FEF6
:400F4000FFF70FB9CC80FF1FF8250000042600008025000010260000D082FF1F1C2600002C2600003482FF1F6084FF1F3C2600005C81FF1F30281FD031281FD032281FD018
:400F800033281FD034281FD035281FD036281FD037281FD038281FD039281FD041281FD042281FD055281FD044281FD045281FD047281FD10F20704700207047012070474E
:400FC00002207047032070470420704705207047062070470720704708207047092070470A2070470B2070470C2070470D2070470E2070470020704738B505460079FFF720
:40100000B9FF034C2060A879FFF7B4FF606038BD3482FF1F10B40423002106E0C45C0C4A0A4482F8384001310133082BF6DD0A23002106E0C45C064A0A4482F86440013180
:4010400001330E2BF6DD0122024B9A6010BC7047CC80FF1F3482FF1F0379552B07D1124BDB68012B1ED100220F4BDA607047442B06D10D4BDB68ABB901220B4BDA6070475A
:401080004C2B06D1084B1B6963B1013B064A13617047522B06D1044B1B690F2B02D00133014A1361704700BF3482FF1F10B500F039FDA34B18704D2812D1A24A0024C2F84D
:4010C0002C43A14B0121C3F89C10C2F83043C3F8A0100221C2F834136D2283F8A42028E0432812D1974A0024C2F82C43964B0121C3F89C10C2F83043C3F8A0100321C2F81E
:401100003413632283F8A42013E04A2811D18D4A0024C2F82C438C4B0121C3F89C10C2F83043C3F8A0100321C2F834136E2283F8A420854B93F8A4306D2B06D06E2B00F027
:401140000581632B40F07E817CE02C2805D17D4AD2F830330133C2F830337B4BD3F8A030012B06D1774BD3F82C33774A134483F8A800744BD3F82C33032B1AD1724A92F88E
:40118000A8204D2A03D000216F4AC2F89C106E4A92F8A920562A03D000216B4AC2F89C10694A92F8AA20542A03D00021664AC2F89C10062B1AD1644A92F8A8204D2A03D04E
:4011C0000021614AC2F89C105F4A92F8A920562A03D000215C4AC2F89C105B4A92F8AA20542A03D00021584AC2F89C10462822D1062B20D1544BD3F89C30012B1BD1514B61
:40120000D3F83023D3F834339A4214D100224E4BC3F8A02005E04C4B134493F8A81019760132062AF7DD484C04F11800FFF714FF782384F8A430434AD2F82C330133C2F852
:401240002C33FFE02C2805D13E4AD2F830330133C2F830333C4BD3F8A030012B06D1394BD3F82C33384A134483F8A800354BD3F82C33032B1AD1344A92F8A820432A03D05E
:401280000021314AC2F89C102F4A92F8A9204F2A03D000212C4AC2F89C102B4A92F8AA204E2A03D00021284AC2F89C10082B1AD1254A92F8A820432A03D00021224AC2F8A4
:4012C0009C10214A92F8A9204F2A03D000211E4AC2F89C101C4A92F8AA204E2A03D00021194AC2F89C10462822D1082B20D1164BD3F89C30012B1BD1124BD3F83023D3F87F
:4013000034339A4214D100220F4BC3F8A02005E00D4B134493F8A81019760132082AF7DD094C04F11800FFF767FE782384F8A430044AD2F82C330133C2F82C3382E000BF62
:401340007886FF1F3482FF1FCC80FF1F2C2805D13E4AD2F830330133C2F830333C4BD3F8A030012B06D1394BD3F82C33384A134483F8A800354BD3F82C33032B1AD1344AD3
:4013800092F8A8204A2A03D00021314AC2F89C102F4A92F8A9204B2A03D000212C4AC2F89C102B4A92F8AA204C2A03D00021284AC2F89C10112B1AD1254A92F8A8204A2A1A
:4013C00003D00021224AC2F89C10214A92F8A9204B2A03D000211E4AC2F89C101C4A92F8AA204C2A03D00021194AC2F89C10462822D1102B20D1164BD3F89C30012B1BD1A8
:40140000124BD3F83023D3F834339A4214D100220F4BC3F8A02005E00D4B134493F8A81019760132102AF7DD094C04F11800FFF7F1FD782384F8A430044AD2F82C330133C4
:40144000C2F82C3300F0F8FB10BD00BF3482FF1FCC80FF1FFEE700BFF0B40022174611E050F82760F3B226F0FF0608E001EB420511F812406D78A5550132013BDBB2002BE3
:40148000F4D10137102FEBD9F0BC7047064B1B78DBB203F00701054A11701B09013213704422034B1A707047CF0100496E5800407658004008B50A46002100F00CFC08BDA6
:4014C00038B54FF49C72244B1A80182202331A70022203F27E231A7008224FF040231A70032103F5007319701C4B1B78DBB21C490B701C4B1A8041F25122023B1A800024F1
:4015000019250CE0184B1B7803F0010343EA440404F003044FF4F07000F096FB013D0DB1032CEFD115B90320FFF794FF0F4B4FF480721A8007221A7000220D490A70482065
:40154000023108701A700222033B1A70094A137843F00103137038BD8040004008010049A146004022420040254200400440004006400040A243004008B500F0A1FB08BDBC
:4015800038B572B62D4A137843F00403137000240CE02B4D630019194A0011462A44084691882858FFF786FF0134E4B2062CF0D924494FF09040FFF74FFF234A137843F018
:4015C000020313701032137843F0020313701F4C237843F040032370A2F58632513A137843F010031370082219491A48FFF7C4FF0A2219491948FFF7BFFF08221849194868
:40160000FFF7BAFF082218491848FFF7B5FF184A137843F008031370164D61232B70FFF74FFF81232B700122134B1A70FFF72EFF0E2221461148FFF79FFF38BDE84600409E
:401640004C2600004400004803500140A0430040C403004802510040CC030048C0510040D803004812510040E003004822510040224300400048004004000840B04300405B
:4016800008B500F0F1FA03680C2B00D1FEE7FEE708B5094B1A681044084BC31A802B02DC054B186005E000F0DFFA0C2303604FF0FF32104608BD00BF9C81FF1F8086FF1F04
:4016C00008B5104E104D16E029686B68AC68002204E051F8040B43F8040B0432A242F8D1E868002203E0002143F8041B04328242F9D11035013E002EE6D100F0BBFAFEF7E2
:4017000021FDFEE7010000001427000008B5104A104B1A60104A136843F40073136000230AE0032B03D80D4A52F8231000E00C490C4A42F8231001332F2BF2D90A4B1A786A
:401740000A4B1A70074A0A4B1A60FFF719FF08BD0004FA050CED00E014ED00E000000000811600000080FF1FBC760040C080FF1F08ED00E010B50B4C237803F09F03237021
:40178000237803F0F00323702378184340F010002070012000F01EFA237803F0EF03237010BD00BF2051004038B505460E4C237843F020032370237803F0BF0323700020BD
:4017C00000F008FA237803F0F003237023781D4345F010052570012000F0FCF9237803F0EF03237038BD00BF2051004070B5354B1A7802F08002D2B21A7033490A7802F0E2
:40180000F00242F00F020A7001310A7802F0F0020A7001310A7802F0F0020A701A7802F0DF021A701A7842F040021A704FF4CA76002000F0CFF9234D2B7843F010032B7007
:40184000012000F0C7F9214B1C78E4B22B7803F0EF032B70002000F0BDF904F00804E4B22B7843F010032B70012000F0B3F92B7803F0EF032B7014B90A2000F0ABF9013E54
:401880000CB1002ED4D10F4A137803F0BF031370137803F08003DBB213700232137803F0F00313700132137803F0F00343F00F0313700132137803F0F00343F00F0313706B
:4018C00070BD00BF20510040225100402151004010B50446FFF78AFF2009FFF765FF04F00F00FFF761FF10BD38B505460078012404E0FFF7EDFF285D0134E4B20028F8D1D3
:4019000038BD00BF08B5FFF7E3FF08BD10B50446FFF76CFF2009FFF72DFF04F00F00FFF729FF10BD08B5282000F03EF90320FFF721FF052000F038F90320FFF71BFF0F20E3
:4019400000F032F90320FFF715FF012000F02CF90220FFF70FFF052000F026F90620FFF7D5FF0E20FFF7D2FF2C20FFF7CFFF0820FFF7CCFF0120FFF7C9FF0C20FFF7C6FFEB
:401980000320FFF7C3FF052000F00EF9014800F06BF808BD7826000008B50C20FFF7B6FF0122014B1A7008BD6C85FF1F08B5054B5B7823B9FFF7B6FF0122024B5A70FFF739
:4019C000EBFF08BD6C85FF1F08B5032819D8DFE800F002070D1381F08000FFF797FF08BDA1F14000C0B2FFF791FF08BDA1F16C00C0B2FFF78BFF08BDA1F12C00C0B2FFF7C4
:401A000085FF08BD10B584B000238DF80E30092211E0144BA3FB0013DB081C4603EB83035900431ADBB2303304A9114401F80C3C2046013AD2B20928EBD80A4BA3FB001391
:401A4000DB0803EB83035900431ADBB2303304A9114401F80C3C01AB9818FFF745FF04B010BD00BFCDCCCCCC38B50546FFF7BEFE4020FFF74BFF002404E0285DFFF728FFEB
:401A80000134E4B23F2CF8D9FFF7B0FE8020FFF73DFF38BD024B187800F00100704700BF015100407222084B1A702022A3F580731A7006225F3B1A70472210331A70002272
:401AC00003F251131A7070478865004010B500F0C3F804460B4A137843F020031370A2F58072137843F01003137002F58172137843F01003137000F049F8204600F0B0F862
:401B000010BD00BF9865004008B5054B1B7823B9FFF7C8FF0122024B1A70FFF7D7FF08BD6E85FF1F084B1B78DBB213F0200F06D0064A1078C0B213F01E0F02D17047002068
:401B400070470020704700BF686400404B650040034B1B7813F0040FFAD1024B187070476A6500404965004038B5074B1B782BB938BDFFF7EDFF0134A4B201E00546002469
:401B8000285D0028F5D138BD6E85FF1F054A137843F0010313701032137843F001031370704700BFA243004010B5044605E0084B186800F049F8A4F50044B4F5004FF6D85B
:401BC000034B586800FB04F000F03EF810BD00BFA081FF1F08B5034B1B7A00FB03F000F033F808BDA081FF1F014B1B681864704708ED00E04001C0B2014B1870704700BF76
:401C000000E400E00122014B1A60704700E100E00122014B1A60704780E100E010B50446FFF7F6FF2046FFF7DFFF0720FFF7E2FFFFF7E8FF10BD00BF0122014B1A60704763
:401C400080E200E0000000000230800803D000BF01380046FCD17047EFF3108072B6704780F31088704700BF014B1868704700BF1082FF1F0E4B70B51E460E4C0025E41AB0
:401C8000A410A54204D056F8253098470135F8E700F02EFD084B094C1E46E41AA4100025A54204D056F8253098470135F8E770BDFC260000FC260000FC2600000427000010
:401CC00010B5431E0A44914204D011F8014B03F8014FF8E710BD03460244934202D003F8011BFAE7704700000EB400B54FF402719CB0ADF814106FF00041049107914FF644
:401D0000FF711DAB02900690084853F8042BADF81610006802A9019300F064F8029B00221A701CB05DF804EB03B070471082FF1F2DE9F0478E6882469E420C469146984656
:401D40003ED88A8912F4906F3AD02568096902236F1A656905EB450595FBF3F57B1C43449D4238BF1D4653050FD5294600F040FB064698B13A462169FFF7A2FFA38923F458
:401D8000906343F08003A38113E02A4600F08EFB064670B92169504600F0DEFA0C23CAF80030A3894FF0FF3043F04003A381BDE8F08726613E44266046466561ED1BA560BE
:401DC000464528BF464649463246206800F0A8FAA36800209B1BA36023681E442660BDE8F08700002DE9F04F9DB003938B8980461C060D4616460DD50B695BB9402100F0B3
:401E0000F7FA2860286118B90C23C8F80030CDE040236B610023099320238DF82930DFF89CB130238DF82A3037463C4614F8013B1BB9B7EB060910D003E0252BF9D0274689
:401E4000F3E74B46324629464046FFF771FF013000F0A780099B4B4409933B78002B00F0A08000234FF0FF3204930793059206938DF853301A930126052221784E4800F009
:401E800041FA671C049B38B14B4A3C46801A06FA00F018430490EFE7D90644BF20228DF853201A0744BF2B228DF8532022782A2A03D0079A00210A200BE0039A111D126814
:401EC0000391002A10DA524243F00200079204900BE027463B780134303B092B03D800FB02320121F5E701B107923B782E2B1ED17B782A2B0AD1039B02371A1D1B680392CE
:401F0000002BB8BF4FF0FF33059310E0002319460593781C0A2407463A780130303A092A03D804FB01210123F5E703B1059103223978224800F0E6F940B14023CBEB0000FE
:401F400003FA00F0049B013718430490397806221B487E1C8DF8281000F0D4F988B1194B33B9039B073323F007030833039314E003AB00932A46144B04A94046AFF30080B6
:401F800007E003AB00932A460F4B04A9404600F093F8B0F1FF3F824603D0099B5344099342E7AB895B0601D4099801E04FF0FF301DB0BDE8F08F00BFBA260000C026000037
:401FC000C426000000000000311D00002DE9F04791461F460A698B6806469342B8BF1346C9F8003091F843200C46DDF8208012B10133C9F800302368990642BFD9F8003011
:402000000233C9F80030256815F0060510D104F1190A07E00123524639463046C04701301AD00135E368D9F800209B1A9D42F1DB94F843302268003318BF012392060FD525
:40204000E118302081F843005A1C94F845102244023382F8431003E04FF0FF30BDE8F08704F1430239463046C0470130F4D02268D9F80050E36802F00602042A08BF5D1BA7
:402080002269A3680CBF25EAE57500259342C4BF9B1AED184FF000091A344D4509D00123224639463046C0470130D5D009F10109F3E70020BDE8F0872DE9F04317460A7E78
:4020C00085B06E2A984606460C460C9B01F1430E00F0AE8011D8632A22D009D8002A00F0BB80582A40F0CA8081F84520834955E0642A1ED0692A1CD0C0E0732A00F0B080BE
:4021000009D86F2A2ED0702A40F0B8800A6842F020020A603EE0752A24D0782A3AD0ADE01A6801F14205111D1960136884F84230A8E021681A6811F0800F02D0111D1960A4
:4021400008E011F0400F02F10401196002D0B2F9003000E01368002B3CDA2D225B4284F8432037E021681A6811F0800F02D0111D196007E011F0400F02F10401196001D0FE
:40218000138800E01368227E5C496F2A14BF0A2208221BE078225A4984F845202268186812F0800F00F104051D6003D1550601D5038800E00368D00744BF42F0200222606C
:4021C0001BB9226822F0200222601022002084F8430001E049490A226568002DA56008DB206820F0040020602BB9002D7DD175460CE0002B79D07546B3FBF2F002FB103318
:40220000CB5C05F8013D03460028F5D1082A0BD12368DA0708D5236962689A42DEBF302305F8013C05F1FF35C5EB0E0323612EE008681A6810F0800F496903D0101D18602A
:40224000136808E010F0400F02F104001860136801D0198000E0196000232361754616E01A68111D1960156800216268284600F049F808B1401B6060636804E004F14205B8
:4022800084F8422001232361002384F84330CDF800803B4603AA21463046FFF797FE013002D14FF0FF3026E023692A4639463046C0470130F5D023689B0710D5002504F119
:4022C000190907E001234A4639463046C0470130E7D00135E368039A9B1A9D42F2DBE068039B9842B8BF184605E00B7804F1420584F842308AE705B0BDE8F083CB26000068
:40230000DC26000010B5C9B202449042034605D01C7801308C42F8D1184610BD002010BD884210B501EB020301D8421E0BE09842FBD28118D21AD34204D013F8014D01F8A6
:40234000014DF8E710BD994204D011F8014B02F8014FF8E710BD000038B50546002944D051F8043C0C1F002BB8BFE41800F0D4F81E4A1368114613B96360146030E0A342B4
:402380000DD92268A018834201BF18685B681218226063600C6023E0A24203D813465A68002AF9D118681918A1420BD12168014458188242196013D11068526801441960C2
:4023C0005A600DE002D90C232B6009E021686018824201BF106852680918216062605C602846BDE8384000F098B838BD7485FF1F70B5CD1C25F0030508350C2D38BF0C2541
:40240000002D064601DBA94202D90C23336046E000F082F8234B1C681A462146A1B10B685B1B0ED40B2B03D90B60CC18CD501EE08C420BBF63684B681360636018BF0C4668
:4024400015E00C464968E9E7174C23681BB9304600F052F820602946304600F04DF8431C18D0C41C24F00304A0420DD12560304600F053F804F10B00231D20F00700C31A1C
:402480000ED05A42E25070BD211A304600F034F80130EBD10C233360304600F03EF8002070BD00BF7485FF1F7085FF1FF8B5074615460E4621B91146BDE8F840FFF798BFF1
:4024C0001AB9FFF749FF2846F8BD00F027F885420ED929463846FFF78BFF044650B131462A46FFF7EDFB31463846FFF735FF01E03046F8BD2046F8BD38B5064C002305467B
:4025000008462360FFF7C4F8431C02D1236803B12B6038BD7C86FF1F7047704751F8040C0028BEBF091851F8043CC01804387047000000004253542C25632C25632C256420
:402540002C25642C25642C25642C25642C460A0057616974696E6720466F72004E616D657320546F2053746172740000506C61636520796F757220536869707300000000F1
:402580005072657373204100746F20436F6E74696E756500557365204172726F77204B6579730000546F204D6F766500746F20436F6E6669726D0000506C61636520596F39
:4025C000757200005365636F6E6420536869700054686972642053686970000054616B652041204C6F6F6B20546F0000596F75722053686970730000596F757220547572D7
:402600006E000000546F20436F6E74696E756500596F757220426F6172640000506C616365206120426F6D6200000000436F6E662E20576974682041000000005468652035
:4026400057696E6E6572204973000000305100404000F0510040100000000140001000140140000800400140000A004C0140000200500140200000001F1F1F1F1F1F1F1F08
:4026800000000E0E0E0E0000110A040404040A110C1913060C1913060A150A150A150A1500001B0E040E1B00000E080E020E000000040404000400004300232D302B2000FC
:4026C000686C4C006566674546470030313233343536373839414243444546003031323334353637383961626364656600000000F8B500BFF8BC08BC9E4670474D000000E6
:402700000D170000F8B500BFF8BC08BC9E4670472900000028270000C880FF1F5001000068040000000000000000000070730000030000000300000003000000030000006C
:40274000010000004E4E4E2C302C302C4600000000000000000000000000000000000000000000004A75616E00000000D007000000000000000000000000000001000000DE
:40278000000000000000000001000000000000004A6F7365000000000000000000000000000000000100000000000000000000000100000000000000030000004F00000033
:4027C000000000000300000001000000010000006E000000303030303030303030000000000000000000000000000000000000000000000002000000020000008086FF1F8E
:402800000000E02EC05D00001800000000366E010000000000000000000000000000000000000000000000000000000000000000B8260000000000000000000000000000D2
:40284000000000000000000000000000000000000000000000000000000000000000000000000000000000000000000000000000B081FF1F00000000000000000000000009
:402880000000000000000000000000000000000000000000000000000000000000000000000000000000000000000000000000000000000000000000000000000000000018
:4028C00000000000000000000000000000000000000000000000000000000000000000000000000000000000000000000000000000000000000000000000000000000000D8
:402900000000000000000000000000000000000000000000000000000000000000000000000000000000000000000000000000000000000000000000000000000000000097
:402940000000000000000000000000000000000000000000000000000000000000000000000000000000000000000000000000000000000000000000000000000000000057
:020000040003F7
:0200000480007A
:400000000252004001640040026500400107014052080140340901404A180140451901404A1A0140471B014002400140014101400142014003430140074D014004500140B9
:400040000151014061806440883888728A0FE6020003040C081F090F0C0811061309140C150916131706180419061C0F1E101F01221324012502281329072A0C2B082C02D9
:400080002D043307340F3508361C39203AA854185604580459045B045F0184108640870889018B068C0C8D018E718F0E941096AC97039A039B0C9CDC9E22A014A10CA303C1
:4000C000A409A6D0AA20B0E0B10FB41FBA02BB02C004C504C9FFCA07CBFFCC40CD20CEF0CF05D008D804D904DA04DF01E040E1A8E240E32000400220041005810720084074
:400100000A060B100C200D080E12109814A4174018401A041B101C101D141E0A2201271828402C202D802E10301832103484360537A038403B143C1042404A204B0450085B
:400140005F016408664067408740C0F5C2E7C4FECA71CCF6CE2ED001D680D8B002030302041F0501080709010A180C100D01141C1602170218081B041E04201C22012404F6
:40018000262028182F043101321F3304350236203A083F1456025711580459045B045F01880389138B0C8C038D138F04952097059B089C02A10AA314A903AA01AB04B00345
:4001C000B30FB530B802B920BB08BE01C036C104C50EC6CBC80DC9FFCAFFCBFFCEF0CF44D00CD804D904DA04DF01E6C0EA40EB0200500594078008400A020C200D080E01FF
:4002000010081420150117201A401D081E01201022102310260A278428402A102F0230083210371838503D503E043F02405048084B045080521058085B045D015E226D5028
:400240006E0C7420758077208A48904092029660971199149B189C289D819E409FE0A008A201A310A4A0A508C0F3C2E1C472CA15CC66CEFCD003D204D620050208010C015F
:400280001E01250126012A013302360137013E403F445401580459045B045F0180018105820E83028420850388208C048E118F0C930C9420970C9807990C9C209D0A9F013E
:4002C000A50CA807A903AC02AD0CAE11B007B103B220B30CB618BE44C035C106C202C401C5E0C7C0C822C9FFCAFFCBFFCC62CDA0CEF0CF41D00CD804D904DA04DF01E64068
:40030000E702E910EA30EB10ED10EE10EF1200500488051D07040A020C040D080E0A10181210155019801D811E6020012204248027602B102D182E40340435103601374089
:400340003B043E063F80458047144C044E024F825702581159805A088001840187048C208D408E028F219050911092069304970199149A109B109C209D019F40A008A1088F
:40038000A207A310A610A703C0F3C2E1C4C6CA72CCF0CED2D070D230D60FE0013220CC10A620A6208620A620E6401280710281028E80C408DC01E20200010C0110011C0156
:4003C000000300000102020000000000800040808000800000000000000B0B0000000000007F7F0000000000000000000000000000000000000000000000000000000000A1
:4004000000000000000000000000000000000000000000000000000000000000000000000000000000000000000000000000000000000000000000000000000000000000BC
:40044000000000000000000000000000000000000000000000000000000000000000000000000000000000000000000000000000000000000000000000000000000000007C
:40048000000000000000000000000000000000000000000000000000000000000000000000000000000000000000000000000000000000000000000000000000000000003C
:4004C00000000000000000000000000000000000000000000000000000000000000000000000000000000000000000000000000000000000000000000000000000000000FC
:0200000490006A
:0400000000004005B7
:0200000490105A
:04000000BC90ACAF55
:0200000490303A
:020000006B395A
:0200000490402A
:4000000000000000000000000000000000000000000000000000000000000000000000000000000000000000000000000000000000000000000000000000000000000000C0
:400040000000000000000000000000000000000000000000000000000000000000000000000000000000000000000000000000000000000000000000000000000000000080
:400080000000000000000000000000000000000000000000000000000000000000000000000000000000000000000000000000000000000000000000000000000000000040
:4000C0000000000000000000000000000000000000000000000000000000000000000000000000000000000000000000000000000000000000000000000000000000000000
:0200000490501A
:0C00000000012E16106900012E267BA2C4
:00000001FF