:400000000080002011000000690700006907000008B5044B1A6803F53F5302331A6000F0ABFB00BFFA46004010B5054C237833B9044B13B10448AFF300800123237010BDF1
:400040007086FF1F0000000074190000084B10B51BB108490848AFF300800848036803B910BD074B002BFBD0BDE81040184700BF000000007486FF1F74190000C880FF1F8E
:400080000000000098B1012813D0022813D0032813D0042813D0052813D0062813D0072813D0082813D0092813D139207047302070473120704732207047332070473420E0
:4000C0007047352070473620704737207047382070477820704700BF70B505460E460D4B83FB0024C217C2EBA40483FB0423E217C2EBA30303EB83035800201AFFF7C2FF6B
:40010000307004EB84046000281AFFF7BBFF707070BD00BF6766666610B4401A019CE41A04FB00F0521A90FBF2F0184410BC70472DE9F04107468846002676E006EB86023A
:40014000D300FD183B4C2146F858FFF7C5FF211D6868FFF7C1FF04F10801A868FFF7BCFF04F10C01E868FFF7B7FF04F110012869FFF7B2FF04F114016869FFF7ADFF04F16E
:400180001801A869FFF7A8FF04F11C01E869FFF7A3FF04F12001286AFFF79EFF237884F82830637884F82930237984F82B30637984F82C30237A84F82E30637A84F82F30CD
:4001C000237B84F83130637B84F83230237C84F83430637C84F83530237D84F83730637D84F83830237E84F83A30637E84F83B30237F84F83D30637F84F83E3094F82030C0
:4002000084F8403094F8213084F841300021084600F030FC2434204600F0C4FB204600F03FFD686A00F03AFF0136464586DBBDE8F08100BFCC80FF1F80B582B062B600F0B2
:400240000BFC00F0B9FC00F0CBFC00F00FFD012000F0B6FB0021084600F00CFC864800F0A1FB00F03BFF002840F0F18000F0BCFC824D01F09FF87EA3D3E9002301F000F9C0
:4002800006460F467E4C606C01F094F832463B4600F044FF01F006FB28602146FFF71CFF052000F0FBFE012000F09EFC01F082F86FA3D3E9002301F0E3F806460F46606C1E
:4002C00001F078F832463B4600F028FF01F0EAFA6860211DFFF700FF052000F0DFFE022000F082FC01F066F861A3D3E9002301F0C7F806460F46606C01F05CF832463B46AE
:4003000000F00CFF01F0CEFAA86004F10801FFF7E3FE052000F0C2FE032000F065FC01F049F853A3D3E9002301F0AAF806460F46606C01F03FF832463B4600F0EFFE01F0ED
:40034000B1FAE86004F10C01FFF7C6FE052000F0A5FE042000F048FC01F02CF844A3D3E9002301F08DF806460F46606C01F022F832463B4600F0D2FE01F094FA286104F13F
:400380001001FFF7A9FE052000F088FE052000F02BFC082300931F234FF4C86240F24C41FFF7BAFE6861072801DC08226A61334B5B691F2B02DD1F22304B5A61304C04F1C1
:4003C00020012E4B5869FFF787FE052000F066FE237884F82830637884F82930237984F82B30637984F82C30237A84F82E30637A84F82F30237B84F83130637B84F8323002
:40040000237C84F83430637C84F83530237D84F83730637D84F83830237E84F83A30637E84F83B30237F84F83D30637F84F83E3094F8203084F8403094F8213084F84130FE
:400440000A2000F02BFE04F1240000F029FC00F045FE01287FF4FBAE002100F00BFB094800F0A0FA0648816C4C30FFF761FEEEE6BA490C022B87763FF080FF1FA886FF1F6F
:40048000CC80FF1F78190000FEE700BFF0B40022174611E050F82760F3B226F0FF0608E001EB420511F812406D78A5550132013BDBB2002BF4D10137222FEBD9F0BC704709
:4004C00008B50A46002101F04CFA08BD38B50E22264B1A801823264A13704FF49C7102321180023213700222224B1A7008224FF040231A70032103F5007319701E4B1B782B
:40050000DBB21E490B701E4B1A8041F25122023B1A80002419250CE01A4B1B7803F0010343EA440404F003044FF4F07000F0E0FD013D0DB1032CEFD115B90320FFF7A4FF3A
:40054000114B4FF480721A8007221A7000220F490A704820023108701A700222033B1A700B4A137843F00303137038BD80400040824000400043004008010049A146004091
:4005800022420040254200400440004006400040A2430040F8B5164B1B78DBB2154E3478E4B2154F3D78EDB203F00701134A11701B090132137044F00303337045F003036B
:4005C0003B703F220E4B1A7040230E4A137002321370F0220C4B1A70202203331A700A2000F072FD3D7034704422084B1A70F8BDCF010049F8460040F94600406E58004034
:400600000D51004001590040205B00407658004008B501F09BF908BD38B572B63C4A137843F00403137000240CE03A4D630019194A0011462A44084691882858FFF740FF78
:400640000134E4B2052CF0D900240BE03149A3001819420088180622816A406AFFF7D8FF0134E4B2002CF1D02B494FF09040FFF70DFF04212948FFF723FF042228492948F9
:40068000FFF7C6FF284A137843F0020313701032137843F002031370244C237843F040032370A2F58632513A137843F01003137008221F491F48FFF7ABFF0A221E491F486A
:4006C000FFF7A6FF08221E491E48FFF7A1FF08221D491E48FFF79CFF08221D491D48FFF797FF1D4A137843F0080313701B4D61232B70FFF7EBFE81232B700122184B1A7062
:40070000FFF748FF0E2221461648FFF781FF38BDE8460040841900008C000048007600405C0800480876004003500140A0430040300800480251004038080048C05100407A
:4007400044080048F25100404C080048125100405408004822510040224300400048004004000840B043004008B501F0C3F803680C2B00D1FEE7FEE708B5104E104D16E00C
:4007800029686B68AC68002204E051F8040B43F8040B0432A242F8D1E868002203E0002143F8041B04328242F9D11035013E002EE6D101F0A5F8FFF73FFDFEE70100000093
:4007C000D819000008B5114A114B1A60114A136843F40073136000230AE0032B03D80E4A52F8231000E00D490D4A42F8231001332F2BF2D90B4B1A780B4B1A70084A0B4B79
:400800001A60FFF709FF00F067FB08BD0004FA050CED00E014ED00E000000000690700000080FF1FBC760040C080FF1F08ED00E010B50B4C237803F09F032370237803F04C
:40084000F00323702378184340F010002070012000F03AFC237803F0EF03237010BD00BF2051004038B505460E4C237843F020032370237803F0BF032370002000F024FC6C
:40088000237803F0F003237023781D4345F010052570012000F018FC237803F0EF03237038BD00BF2051004070B5354B1A7802F08002D2B21A7033490A7802F0F00242F0E0
:4008C0000F020A7001310A7802F0F0020A7001310A7802F0F0020A701A7802F0DF021A701A7842F040021A704FF4CA76002000F0EBFB234D2B7843F010032B70012000F04C
:40090000E3FB214B1C78E4B22B7803F0EF032B70002000F0D9FB04F00804E4B22B7843F010032B70012000F0CFFB2B7803F0EF032B7014B90A2000F0C7FB013E0CB1002E51
:40094000D4D10F4A137803F0BF031370137803F08003DBB213700232137803F0F00313700132137803F0F00343F00F0313700132137803F0F00343F00F03137070BD00BFB9
:4009800020510040225100402151004010B50446FFF78AFF2009FFF765FF04F00F00FFF761FF10BD38B505460078012404E0FFF7EDFF285D0134E4B20028F8D138BD00BF5A
:4009C00010B50446FFF770FF2009FFF731FF04F00F00FFF72DFF10BD08B5282000F05EFB0320FFF725FF052000F058FB0320FFF71FFF0F2000F052FB0320FFF719FF01205A
:400A000000F04CFB0220FFF713FF052000F046FB0620FFF7D5FF0E20FFF7D2FF2C20FFF7CFFF0820FFF7CCFF0120FFF7C9FF0C20FFF7C6FF0320FFF7C3FF052000F02EFB42
:400A400008BD00BF08B50C20FFF7BAFF0122014B1A7008BD8C86FF1F08B5054B5B7823B9FFF7BAFF0122024B5A70FFF7EBFF08BD8C86FF1F08B5032819D8DFE800F0020759
:400A80000D1381F08000FFF79BFF08BDA1F14000C0B2FFF795FF08BDA1F16C00C0B2FFF78FFF08BDA1F12C00C0B2FFF789FF08BD10B541F6FF734FF480420121022000F06A
:400AC000B3F9084C207041F6FF731A4601210C2000F0C8F96070044800F0E2F9002000F0E5F910BD9086FF1F050C000070B52C4C207800F027FA607800F024FA294B1B7844
:400B0000FF2B03D100F08CFA264B1870254D2878062302460C2100F09DFA214E341DA4B2224645F6A031287800F0A8FA2978307800F048FA6B78FF2B02D100F071FA6870C7
:400B4000184D6878072302460C2100F083FA164A92B22146687800F091FA114C6978607800F030FA0121207800F0D0F90121607800F0CCF900F0C4FA0C4A137843F0200387
:400B8000137000F0C1FA0A4B1A7842F001021A701A7842F002021A700122064B1A6070BD9086FF1FF085FF1FC486FF1F946400407764004080E200E008B5074B1B6923B9C1
:400BC000FFF776FF0122044B1A6100F017F9FFF78DFF024B1B7808BD9086FF1F6664004008B500F019F908BDC0F10500034B33F91030034A1088181A00B27047C486FF1F5C
:400C0000D286FF1F704700BF7222084B1A70202203F580731A700622A3F269131A70472210331A70002250331A7070478964004010B500F065FA04460B4A137843F0200300
:400C4000137002F58072137843F010031370A2F20912137843F01003137000F02FF9204600F052FA10BD00BF9964004008B5054B1B7823B9FFF7C8FF0122024B1A70FFF705
:400C8000D7FF08BDA486FF1F034B1B7813F0040FFAD1024B18707047606400404364004038B5074B1B782BB938BDFFF7EDFF0134A4B201E005460024285D0028F5D138BD48
:400CC000A486FF1F08B50A280FD00C2802D0082806D102E04FF4805209E04FF4807206E0002000F0D9F9002201E04FF480620021094B198042F2107303FB02F303F6C41344
:400D0000064A82FB0302DB17C3EBE223044A1360044B198008BD00BFD086FF1FAD8BDB68D486FF1FD286FF1F10B500F0E9F90446184A137843F0010313701032137843F0AA
:400D40000103137002F5AA520832137843F0030313701822104B1A70013B1A7842F040021A701A7802F0FC021A70C822053B1A700222A3F597530C3B1A70084A137843F046
:400D8000080313700A2000F09FF9204600F0BCF910BD00BFAB43004006590040275B004010B504460A280DD00C2802D0082804D101E0C22207E0422205E0002000F06CF93A
:400DC000C22200E08222034B1A702046FFF77AFF10BD00BF0259004008B5064A137843F0060313700C20FFF7DBFF0022024B1A8008BD00BF01590040D886FF1F08B5054BB4
:400E00001B7823B9FFF7E8FF0122024B1A70FFF78BFF08BDA686FF1F024A137843F001031370704700590040F0B583B016461F460B4C012525700023019300932B460A4646
:400E40000146284600F0CAF83A463146207800F09FF80221207800F089F8207803B0F0BDF285FF1FF0B583B016461F460B4D00242C700194009423460A460146204600F00C
:400E8000ADF83A463146287800F082F80221287800F06CF8287803B0F0BD00BFF385FF1F014B1B681864704708ED00E04001C0B2014B1870704700BF00E400E0054A1378AE
:400EC00043F0020313701032137843F002031370704700BFA24300400B4A7F2313708021517007E0DA0002F1804202F5F042013BDBB21370002BF5D1DB0003F1804303F5D2
:400F0000F04300221A707047F485FF1F172815D831B103010A495A5C42F020025A5405E0030107495A5C02F0DF025A540001044A835C43F00103835400207047012070470C
:400F40001070004017280CD80001074BC1180A7942F004020A71C25C42F00102C254002070470120704700BF1070004017280BD80001064A835C03F0F103490001F00E0113
:400F80001943815400207047012070471070004041F6FF73994201D14FF4005141F6FF739A4201D14FF40052172808D8C00000F1804000F5EC408180C280002070470120CF
:400FC000704700BF172805D8034B03EB0010417200207047012070471070004017281BD810B4C00000F1804404F5EC44D201D2B201F07F01114321709DF804201201D2B260
:4010000003F00F03134363709DF8083003F00F03A3700020E07001E00120704710BC704710B500F06DF80A4B5B78182B0BD9084A1478013B5370E30003F1804303F5F043E6
:401040001B78137000E0FF2400F05EF8204610BDF485FF1F10F0800F0CD111F4704F0BD1C00000F1804000F5F04001808270C37000207047012070470120704710F0800FE9
:4010800008D1C00000F1804000F5F0408180C280002070470120704701BE704710B5044605E0084B186800F023F8A4F50044B4F5004FF6D8034B586800FB04F000F018F8E7
:4010C00010BD00BFFC85FF1F08B5034B1B7A00FB03F000F00DF808BDFC85FF1F024B1878C0F34010704700BFF1510040000000000230800803D000BF01380046FCD17047B7
:40110000EFF3108072B6704780F31088704700BF81F0004102E000BF83F0004330B54FEA41044FEA430594EA050F08BF90EA020F1FBF54EA000C55EA020C7FEA645C7FEA05
:40114000655C00F0E2804FEA5454D4EB5555B8BF6D420CDD2C4480EA020281EA030382EA000083EA010180EA020281EA0303362D88BF30BD11F0004F4FEA01314FF4801CC9
:401180004CEA113102D0404261EB410113F0004F4FEA03334CEA133302D0524263EB430394EA050F00F0A780A4F10104D5F1200E0DDB02FA0EFC22FA05F2801841F100019B
:4011C00003FA0EF2801843FA05F359410EE0A5F120050EF1200E012A03FA0EFC28BF4CF0020C43FA05F3C01851EBE37101F0004507D54FF0000EDCF1000C7EEB00006EEBBB
:401200000101B1F5801F1BD3B1F5001F0CD349085FEA30004FEA3C0C04F101044FEA445212F5800F80F09A80BCF1004F08BF5FEA500C50F1000041EB045141EA050130BD59
:401240005FEA4C0C404141EB010111F4801FA4F10104E9D191F0000F04BF01460020B1FA81F308BF2033A3F10B03B3F120020CDA0C3208DD02F1140CC2F10C0201FA0CF0F7
:4012800021FA02F10CE002F11402D8BFC2F1200C01FA02F120FA0CFCDCBF41EA0C019040E41AA2BF01EB0451294330BD6FEA04041F3C1CDA0C340EDC04F11404C4F1200249
:4012C00020FA04F001FA02F340EA030021FA04F345EA030130BDC4F10C04C4F1200220FA02F001FA04F340EA0300294630BD21FA04F0294630BD94F0000F83F4801306BFA1
:4013000081F480110134013D4EE77FEA645C18BF7FEA655C29D094EA050F08BF90EA020F05D054EA000C04BF1946104630BD91EA030F1EBF0021002030BD5FEA545C05D10D
:401340004000494128BF41F0004130BD14F580043CBF01F5801130BD01F0004545F0FE4141F470014FF0000030BD7FEA645C1ABF194610467FEA655C1CBF0B46024650EA56
:40138000013406BF52EA033591EA030F41F4002130BD00BF90F0000F04BF0021704730B54FF4806404F132044FF000054FF0000150E700BF90F0000F04BF0021704730B546
:4013C0004FF4806404F1320410F0004548BF40424FF000013EE700BF42004FEAE2014FEA31014FEA02701FBF12F07F4393F07F4F81F06051704792F0000F14BF93F07F4FB4
:40140000704730B54FF4607401F0004521F0004120E700BF50EA010208BF704730B54FF000050AE050EA010208BF704730B511F0004502D5404261EB41014FF4806404F1F4
:4014400032045FEA915C3FF4DCAE4FF003025FEADC0C18BF03325FEADC0C18BF033202EBDC02C2F1200300FA03FC20FA02F001FA03FE40EA0E0021FA02F11444C1E600BFDF
:4014800070B54FF0FF0C4CF4E06C1CEA11541DBF1CEA135594EA0C0F95EA0C0F00F0DEF82C4481EA030621EA4C5123EA4C5350EA013518BF52EA033541F4801143F4801300
:4014C00038D0A0FB02CE4FF00005E1FB02E506F00042E0FB03E54FF00006E1FB03569CF0000F18BF4EF0010EA4F1FF04B6F5007F64F5407404D25FEA4E0E6D4146EB060609
:4015000042EAC62141EA55514FEAC52040EA5E504FEACE2EB4F1FD0C88BFBCF5E06F1ED8BEF1004F08BF5FEA500E50F1000041EB045170BD06F0004646EA010140EA0200BC
:4015400081EA0301B4EB5C04C2BFD4EB0C0541EA045170BD41F480114FF0000E013C00F3AB8014F1360FDEBF002001F0004170BDC4F10004203C35DA0C341BDC04F11404C3
:40158000C4F1200500FA05F320FA04F001FA05F240EA020001F0004221F0004110EBD37021FA04F642EB06015EEA430E08BF20EAD37070BDC4F10C04C4F1200500FA04F3BD
:4015C00020FA05F001FA04F240EA020001F0004110EBD37041F100015EEA430E08BF20EAD37070BDC4F1200500FA05F24EEA020E20FA04F301FA05F243EA020321FA04F0EB
:4016000001F0004121FA04F220EA020000EBD3705EEA430E08BF20EAD37070BD94F0000F0FD101F00046400041EB010111F4801F08BF013CF7D041EA060195F0000F18BF2F
:40164000704703F00046520043EB030313F4801F08BF013DF7D043EA0603704794EA0C0F0CEA135518BF95EA0C0F0CD050EA410618BF52EA4306D1D181EA030101F0004131
:401680004FF0000070BD50EA410606BF1046194652EA430619D094EA0C0F02D150EA013613D195EA0C0F05D152EA03361CBF104619460AD181EA030101F0004141F0FE4133
:4016C00041F470014FF0000070BD41F0FE4141F4780170BD70B54FF0FF0C4CF4E06C1CEA11541DBF1CEA135594EA0C0F95EA0C0F00F0A7F8A4EB050481EA030E52EA033593
:401700004FEA013100F088804FEA03334FF0805545EA131343EA12634FEA022245EA111545EA10654FEA00260EF000419D4208BF964244F1FD0404F5407402D25B084FEA07
:401740003202B61A65EB03055B084FEA32024FF480104FF4002CB6EB020E75EB030E22BFB61A754640EA0C005B084FEA3202B6EB020E75EB030E22BFB61A754640EA5C0053
:401780005B084FEA3202B6EB020E75EB030E22BFB61A754640EA9C005B084FEA3202B6EB020E75EB030E22BFB61A754640EADC0055EA060E18D04FEA051545EA16754FEA20
:4017C00006164FEAC30343EA52734FEAC2025FEA1C1CC0D111F4801F0BD141EA00014FF000004FF0004CB6E711F4801F04BF01430020B4F1FD0C88BFBCF5E06F3FF6AFAE68
:40180000B5EB030C04BFB6EB020C5FEA500C50F1000041EB045170BD0EF0004E4EEA113114EB5C04C2BFD4EB0C0541EA045170BD41F480114FF0000E013C90E645EA060EC7
:401840008DE60CEA135594EA0C0F08BF95EA0C0F3FF43BAF94EA0C0F0AD150EA01347FF434AF95EA0C0F7FF425AF104619462CE795EA0C0F06D152EA03353FF4FDAE104685
:40188000194622E750EA410618BF52EA43067FF4C5AE50EA41047FF40DAF52EA43057FF4EBAE12E74FEA410212F5001215D211D56FF47873B3EB625212D94FEAC12343F089
:4018C000004343EA505311F0004F23FA02F018BF404270474FF00000704750EA013005D111F0004008BF6FF0004070474FF00000704700BF014B1868704700BF6C86FF1FCA
:401900000E4B70B51E460E4C0025E41AA410A54204D056F8253098470135F8E700F04AF8084B094C1E46E41AA4100025A54204D056F8253098470135F8E770BDC0190000D5
:40194000C0190000C0190000C819000010B5431E0A44914204D011F8014B03F8014FF8E710BD03460244934202D003F8011BFAE77047000000000000527574696E65204DA4
:401980006F64650030510040400000000140001000140140000800400140000A004C01400002005001402000605200402808004806004300F8B500BFF8BC08BC9E46704743
:4019C0004D000000C5070000F8B500BFF8BC08BC9E46704729000000E8190000C880FF1FA805000070000000000000003030000030300000303000003030000030300000C2
:401A0000303800003038000030380000303000005752452C30302C30302C30302C30302C30302C30302C30302C30302C30302C460800000011000000080000000800000099
:401A400008000000080000000800000014000000140000001400000014000000E80300000800000008000000080000000800000008000000140000001800000014000000AB
:401A800014000000E80300000800000008000000080000000800000008000000140000001A000000140000000A000000E803000008000000080000000800000008000000A8
:401AC00008000000120000001A000000140000000A000000E803000008000000080000000800000008000000080000000E0000001A000000140000000A000000E803000050
:401B000008000000080000000800000008000000080000000E00000018000000140000000A000000E80300001C0000001C0000001C0000001C0000001C0000000E000000B4
:401B400018000000140000000A000000E80300001C0000001C0000001C0000001C0000001C0000000E00000018000000120000001C000000E80300001C0000001C00000041
:401B80001C0000001C0000001C0000000E00000016000000170000001C000000E80300001C0000001C0000001C0000001C0000001C0000000E0000001600000012000000CD
:401BC0001C000000E80300001C0000001C0000001C0000001C0000001C0000000E00000016000000170000001C000000E80300001C0000001C0000001C0000001C000000A0
:401C00001C0000000E00000016000000120000001C000000E80300001C0000001C0000001C0000001C0000001C0000000E00000016000000170000001C000000E80300007D
:401C40001C0000001C0000001C0000001C0000001C0000000E00000016000000120000001C000000E80300001C0000001C0000001C0000001C0000001C0000000E00000001
:401C8000160000001400000014000000E8030000080000000800000008000000080000000800000014000000140000001400000014000000E80300001C0000001C00000060
:401CC00008000000080000001C00000014000000140000001400000014000000E8030000080000000800000008000000080000000800000014000000140000001400000019
:401D000014000000E8030000110000001900000008000000080000000800000014000000140000001400000008000000E803000013000000080000001900000008000000F7
:401D4000080000001400000014000000140000000F000000E8030000140000000800000008000000190000000800000014000000140000001400000012000000E8030000A7
:401D8000180000000800000008000000080000001C00000014000000140000001400000019000000E80300000800000008000000080000000800000008000000140000005B
:401DC000140000001400000014000000E803000008000000080000001E0000001E000000080000000F000000140000001900000014000000E803000018000000080000000D
:401E00001E0000001E0000000800000014000000140000001400000014000000E80300000800000008000000080000000800000008000000140000001400000014000000BF
:401E400008000000E80300001900000008000000080000001E0000001E0000001400000014000000140000001F000000E803000008000000080000000800000008000000A4
:401E80000800000014000000140000001400000014000000E8030000080000001900000019000000190000001900000014000000140000000E0000000A000000F40100003E
:401EC00008000000190000001900000019000000190000001400000014000000120000000A000000F4010000080000001900000019000000190000001900000014000000BD
:401F0000140000000E0000000A000000F4010000FFFFFFFF7F800000030000000000E02EC05D00001800000000366E0100000000000000000000000000000000000000009A
:401F4000000000000000000000000000B219000000000000000000000000000000000000000000000000000000000000000000000000000000000000000000000000000096
:401F80000000000000000000000000000C86FF1F00000000000000000000000000000000000000000000000000000000000000000000000000000000000000000000000071
:401FC00000000000000000000000000000000000000000000000000000000000000000000000000000000000000000000000000000000000000000000000000000000000E1
:4020000000000000000000000000000000000000000000000000000000000000000000000000000000000000000000000000000000000000000000000000000000000000A0
:402040000000000000000000000000000000000000000000000000000000000000000000000000000000000000000000000000000000000000000000000000000000000060
:402080000000000000000000000000000000000000000000000000000000000000000000000000000000000000000000000000000000000000000000000000000000000020
:020000040003F7
:0200000480007A
:4000000002520040015B0040036400400165004028000140300101404F0201404F0301401C0401404B0501402B060140420701402F08014030090140020B0140020D0140C5
:4000400011140140391501400F1701402D1801404F190140371A0140471B0140084001400F410140064201400343014005460140034701400448014001490140014C0140D9
:400080000C4D01400A50014002510140001C01192784800F8405897289380301050206010D03140115041A011C0121032E0130013103330439023E013F054004470449FFB6
:4000C0004A074BFF4C404D204EF04F0550085401580459045A045B045D115F01604061A862406320D804D904DF010109031505500602070909040BC90C120E100F40101067
:400100001110128117441A4020402204281029402A202B402C102D102E102F483002313833403748399A3A013B0A3E2240404B02520858015A485B108521C0CFC27FC4AF96
:40014000CAEFCC5FCEAFD001D60F0105030209030A070B040C050E021007170718071F072007210724062507260128072907300431013202350236013704580459045F010F
:400180008113836C840985CA86108734881C8A228C408F35902C921197809BC89E03A030A113A20CA3E4A414A503A704A810B3F0B460B61FB70FB820BB88C014C105C50CE1
:4001C000C6B0C70EC819C9FFCAFFCBFFCEF0CF44D00CD608D804D904DA04DB04DC11DD91DF01E6C0EA40EB0200240201060207090A010B420C1212181301151016601704D6
:40020000180419101A051D041E801F802020214423012611270229082B402C102D102F4831103288334036803708384039083B013E224040414149084B404FC051085210E7
:40024000588060028302861088028D049102958897819A019B089C109D089E209F45A002A208A528A680A748A904AB40B001B108C0C7C259C47ECAE3CC56CEABD009D20806
:40028000D608D808E2100008030108060A010E01120314081A061F0222052A02310133023408360738203A803E1056025739580459045B0C5C015F01D804D904DF010020D7
:4002C0000201034007040A140B400C100E020F101208130114401520164817801B5022062390285029202B022C502F083080312032043601378539013B803E084A024B80EA
:400300005A10611062106320680869056A4070807110720179407E047F0883409204934397809A019C109E409F05A010A208A520A680A748AA01B240B380B480C04BC2EEBD
:40034000C4DACAEFCCDECE49D604D802DE08E601E810EAA05401580459045B0C5F01804081048280840187088A088B018C108E208F10908092409601970499019A029C0243
:40038000A004A302A408A502A820A908AA10AE04B0FFB51FB920BA80BE01BF10D203D302D804D904DB04DC01DF010020012002D00307078508600A690B440F041008110585
:4003C00012031380141015201640188221302308286029202B022C102F40301431013290342036803709388039043A113C205C40680269406A107D408A028D218E80910505
:4004000092499382956096109A109C109D209E409F05A008A202A520A680A702C0DFC24FC47FCACFCCFFCE2FD610DE10EE040E0112021C013603580459045C095F01831018
:4004400084048570870588018B028F0C911D9203936094049570970999109F02A004A140A57DA804A920AD60B004B37CB402B502B601B701B980BB08BE01BF10D602D713D1
:40048000D80CD904DB04DC10DD10DF0100040120054009080B800E81128C19211A011B801D401F4022482304280229102A022B20325A344036143701384439023B203E289F
:4004C0003F88590169547134720273027B028B018D048F44A240C086C29CC40ACA0FCCFFCE7FD601DE08E040E460EE04A240E6018A40E020010207010F0426022A01300196
:4005000032023301350237043F10580459045F01D804D904DF01011003A2044005010608078009080D100E101008121013821508170218401A301B022020210C2288230AF7
:4005400029012A082B222D102F2232983501368839343B423E108210838087088A0C8B2091249208934296209A109B80A008A410A680A702B702C0DFC264C43FCA7BCCDEAF
:40058000CE2FE008E404E81091249208934296209A109B80A008A410A680A702A840AC04AD01B403EE04580459045F0180078301840685F88601880789948B288D068E018A
:4005C0009006914A9330940195069606980299269BC09F06A004A301A408A706A808A9F8AC08AF06B008B106B318B5E0B607B701BF40D418D804D904DB04DC11DD10DF01C6
:40060000004402840701080209280C400D040E280F801004115413021520162818421A80218022212310280429022A042B022E01300231083260344035403604370138020C
:4006400039043B903E283F804C014E025A02618063047E807F408C048F02915493049444950296209720980A99109A0E9B439C409E20A124A280A340A508A614AB80B10856
:40068000B202B40AB504B680B762C08FC2FEC46FCA8FCCDFCE7FD601D80CE840EC4001200382057C09400B020F641564171819601B011D1821102518276429082D782F04BA
:4006C00031803378351C37033B283F40406441024205440145C046E0480A49FF4AFF4BFF4C624DA04EF04F41500C580459045A045C105D015F016640670269106A306B10C3
:400700006D106E106F12D804D904DF01011803010508070109040B800C010E0910011281153420052109220829102A062B022D102F403228334035403604370138423A089E
:400740003B103D0C3E204049420849024A0A53108284894C8A018B408C038E109040912093109404950A96219720980899109A279B419D42A104A222A302A402A508A604BB
:40078000B621C0A7C2DCC469CAAFCCDECE6FD00DD20CE088E480E810EC401220168032103B023E80C430CC10CE6050045711581059046408810487018F1096209702A22078
:4007C000D4E0D660D880E69096209702A804B018B620EE809620AB01EE201B0424108010C608C8014402AB04D0042408AA10C820EE20B4049C0210801280740284028C802B
:400800008E80B402C408DE04E202E602E80800030101080309010A030C030D0110031A011C030003100A0000808000004000000000000000003F3F008000408080008000DE
:40084000000000002020000000000000000B0B0000000000007F7F000000000000010000000000000000000000000000000000000000000000000000000000000000000023
:400880000000000000000000000000000000000000000000000000000000000000000000000000000000000000000000000000000000000000000000000000000000000038
:4008C00000000000000000000000000000000000000000000000000000000000000000000000000000000000000000000000000000000000000000000000000000000000F8
:4009000000000000000000000000000000000000000000000000000000000000000000000000000000000000000000000000000000000000000000000000000000000000B7
:400940000000000000000000000000000000000000000000000000000000000000000000000000000000000000000000000000000000000000000000000000000000000077
:0200000490006A
:0400000000004005B7
:0200000490105A
:04000000BC90ACAF55
:0200000490303A
:02000000D20B21
:0200000490402A
:4000000000000000000000000000000000000000000000000000000000000000000000000000000000000000000000000000000000000000000000000000000000000000C0
:400040000000000000000000000000000000000000000000000000000000000000000000000000000000000000000000000000000000000000000000000000000000000080
:400080000000000000000000000000000000000000000000000000000000000000000000000000000000000000000000000000000000000000000000000000000000000040
:4000C0000000000000000000000000000000000000000000000000000000000000000000000000000000000000000000000000000000000000000000000000000000000000
:0200000490501A
:0C00000000012E16106900012E22E2748F
:00000001FF